S01700004C696E6520666F6C6C6F77657220332E73726563A8
S11300000C9431000C94B2090C94C3090C944E0066
S11300100C94A4050C944E000C944E000C944E00C9
S11300200C944E000C944E000C94D4090C944E0085
S11300300C944E000C9466000C944E000C944E00EC
S11300400C944E000C944E000C944E000C944E00F4
S11300500C944E00F204F90403050F051905250557
S11300602F0511241FBECFE5D8E0DEBFCDBF11E0C0
S1130070A0E6B0E0E6ECFFE102C005900D92AA30E4
S1130080B107D9F721E0AAE0B1E001C01D92A8357B
S1130090B207E1F70E9455070C94E10F0C9400009D
S11300A0805C87B986B1806586B9349BFECF84B104
S11300B095B1089587E886B9089589B990BD86E811
S11300C080BD88E18AB9579A789408951F920F9257
S11300D00FB60F9211248F938CB180933B018F91B3
S11300E00F900FBE0F901F90189580910B010895EB
S11300F080910A01089580930B01089580930A0169
S1130100089580E00E9450008436910588F08C3276
S113011021E0920778F0843F21E0920768F08C3B5D
S113012022E0920758F08438934050F085E3089514
S113013080E3089581E3089582E3089583E30895B5
S113014084E308950E948100982F809160009813A1
S11301509093600008950E94A20091E0853309F015
S113016090E0892F08950E94790360E080E00E9466
S113017090038AE491E00E94CE0361E080E00E9453
S113018090038CE391E00E94CE0360E08FE00E9434
S1130190900381E00E94A70361E08FE00E94900336
S11301A080E00C94A703EF92FF920F931F93CF93D9
S11301B00E94A200C82F67E870E08AE491E00E94E0
S11301C0020D809163001F928F9381E990E09F93C9
S11301D08F938CE391E09F938F930E94090D0E946B
S11301E0B3000F900F900F900F900F900F9001E9B4
S11301F010E08CE3E82E81E0F82EC43349F10E942C
S1130200A200C82F813341F40E94AB008823E1F39C
S1130210809163008F5F09C0823379F70E94AB003D
S11302208823E1F3809163008150809363001F92DF
S11302308F931F930F93FF92EF920E94090D0E94D8
S1130240B3000F900F900F900F900F900F90D7CF97
S1130250CF911F910F91FF90EF900895EF92FF922D
S11302600F931F93CF930E94A200C82F6BE970E0F5
S11302708AE491E00E94020D809162001F928F93A4
S113028085EA90E09F938F938CE391E09F938F9303
S11302900E94090D0E94B3000F900F900F900F90D1
S11302A00F900F9005EA10E08CE3E82E81E0F82E21
S11302B0C43349F10E94A200C82F813341F40E9443
S11302C0AB008823E1F3809162008F5F09C0823321
S11302D079F70E94AB008823E1F38091620081509A
S11302E0809362001F928F931F930F93FF92EF925C
S11302F00E94090D0E94B3000F900F900F900F9071
S11303000F900F90D7CFCF911F910F91FF90EF9047
S11303100895CF93DF930E94A200C82F6FEA70E084
S11303208AE491E00E94020D0E94B300D1E0C4333C
S113033089F10E94A200C82F813391F40E94AB007E
S11303408823E1F3D0930B0110920A016DEB70E066
S11303508CE391E00E94020D0E94B30060E013C0A0
S1130360823329F70E94AB008823E1F3D0930A017A
S113037010920B0167EC70E08CE391E00E94020D97
S11303800E94B30061E08FE00E94900380E20E942B
S1130390A703CFCFDF91CF910895EF92FF920F93F0
S11303A01F93CF930E94A200C82F61ED70E08AE4EE
S11303B091E00E94020D0E94B30001E910E08CE379
S11303C0E82E81E0F82EC43349F10E94A200C82F20
S11303D0813341F40E94AB008823E1F380916100F2
S11303E08B5F09C0823379F70E94AB008823E1F365
S11303F0809161008550809361001F928F931F93B9
S11304000F93FF92EF920E94090D0E94B3000F9088
S11304100F900F900F900F900F90D7CFCF911F9107
S11304200F91FF90EF900895CF930E94A200C82FE0
S11304306EED70E08AE491E00E94020D62EE70E0DD
S11304408CE391E00E94020D0E94B30060E08FE013
S11304500E94900381E00E94A70361E08EE00E9465
S113046090038FE70E94A70361E08FE00E9490034E
S11304708EE70E94A703C433D1F00E94A200C82FC4
S11304808533D9F3813369F028F48033A1F70E94CE
S1130490D300F3CF823341F0833369F70E942E01F6
S11304A0ECCF0E948901E9CF0E94CD01E6CFCF9124
S11304B00895BF98BE98BD98BC98D298D198D0980A
S11304C008958F929F92AF92BF92CF92DF92EF9254
S11304D0FF920F931F93CF93DF93CDB7DEB764974B
S11304E00FB6F894DEBF0FBECDBF082F61E080E0E9
S11304F00E949003C12CD12C10E080E4882E912C12
S11305009DEEA92E90E0B92ECE0101967C01C40186
S11305100C2C02C0959587950A94E2F780239123C9
S113052021E0892B09F420E01F922F93BF92AF9210
S1130530FF92EF920E94090DC7010E94CE039FEF24
S1130540C91AD90A0F900F900F900F900F900F9027
S113055087E0C816D104D9F61F930F9380EF90E07B
S11305609F938F93FF92EF920E94090DC7010E94FF
S1130570CE030F900F900F900F900F900F906496F2
S11305800FB6F894DEBF0FBECDBFDF91CF911F91A0
S11305900F91FF90EF90DF90CF90BF90AF909F901E
S11305A08F900895CF93C9B386B3C07FC6958770E3
S11305B0C82B8C2F0E9461028C2FCF910895CF936A
S11305C00E94D202C82F882319F080930C010CC01A
S11305D0C0910C018C2F8B7F883011F0C83121F42D
S11305E081E00E94EE0564C00E94F705823051F05C
S11305F08C2F8871883131F4C2FF04C081E00E94DD
S1130600EB0556C00E94F105823059F00E94F705AF
S1130610882339F0CF3711F0CB3619F481E00E94EA
S1130620E5050E94F105823039F48C2F8B7F8837E1
S113063019F481E00E94E8050E94F405823039F43F
S11306408C2F877F873719F481E00E94E2050E948E
S1130650F705882369F18C2F8F7D8034B9F0C0327F
S1130660B9F0C033B9F0C031B9F0C831B9F0C8300D
S1130670F9F0CC30A9F0C430A9F0C630A9F0C230EA
S1130680A9F0CD7FC130A1F481EF13C08FE011C078
S11306908DE00FC088E00DC086E00BC081E009C08A
S11306A08FEF07C08AEF05C088EF03C083EF01C056
S11306B080E0CF910895F1E4FA95F1F7089595B3A8
S11306C0807F9F70892B85BBAB9A0E945B03AB989C
S11306D00C945B03CF93C82F0E945F038C2F8295E9
S11306E0807FCF910C945F03AA27BB271197F1F762
S11306F008950E947403AA9882E00E946A030E94EB
S113070074038CE00E946A030E94740381E00E94D7
S11307106A030E94740310920E0110920F0108954F
S1130720CF93DF93D82FC62F0E945B03AA98EC2F98
S1130730F0E0EC59FF4F80818D0F0E946A03D09343
S11307400F01C0930E01DF91CF910C945B03CF9303
S11307508A3049F460910E016F5F60930E0180E06E
S1130760CF910C949003C82F80910F018F5F8093D9
S11307700F0190910D01981740F460910E016F5F85
S113078060930E0180E00E9490030E945B03AA9A8A
S11307908C2F0E946A03CF910C945B03CF93DF9359
S11307A0EC018991882319F00E94A703FACFDF9105
S11307B0CF910895FF920F931F93CF93DF93CDB7FB
S11307C0DEB760970FB6F894DEBF0FBECDBF98E0DA
S11307D0E7E7F0E0DE01199601900D929A95E1F7B2
S11307E098E0EFE7F0E0DE01119601900D929A9502
S11307F0E1F795B3937F95BBA99894B39C6F94BB91
S113080080930D0190E8980F909366008054809334
S113081067000E94740380E30E945F030E947403D4
S113082080E30E945F030E94740380E30E945F03DD
S11308300E94740380E20E945F030E94740388E2B2
S11308400E946A030E94740384E00E946A030E9467
S1130850740385E80E946A030E947403AA9886E0E0
S11308600E946A0380E40E946A038E010F5F1F4F97
S113087098E0F92EF00EF80181918F010E94A703F0
S1130880F012F9CF80E80E946A0388E40E946A03A8
S11308908E01075F1F4F88E0F82EF00EF80181915A
S11308A08F010E94A703F012F9CF80E80E946A0327
S11308B060960FB6F894DEBF0FBECDBFDF91CF9127
S11308C01F910F91FF900C9479038FB9779BFECF02
S11308D00895C498809168000E94650480911C0169
S11308E00E946504C49A08958CE58DB91EB8BF9A18
S11308F0BD9ABC9AA19AC598C498A99A8DE085BD61
S113090014BC89E183BD0C946904A998089580916D
S113091068008160809368000C9469048CE780937C
S113092068000C9469048AEB809368000C94690451
S113093086ED809368000C9469048EEF80936800C0
S11309400C94690483E00E9450008D3423E09207E4
S113095014F08FEF28C08F3223E0920714F08FE752
S113096022C08B3023E0920714F08FE31CC0893E31
S113097022E0920714F08FE116C0863C22E0920731
S113098014F08FE010C0883A22E0920714F087E058
S11309900AC0843822E0920714F083E004C08F3543
S11309A0924024F081E080931C0102C010921C014B
S11309B00E9469040C94690489B7806889BF08950A
S11309C089B78F7789BF0C949D04E09113018E2F12
S11309D090E08730910508F04FC0FC01E65DFF4FC1
S11309E00C94FC0C809112018F3099F581E0809376
S11309F01301809111018F3021F0809111018F5FDB
S1130A001FC082E037C080911201882331F08091A9
S1130A1012018150809312012FC083E02BC080917A
S1130A2010018F3021F0809110018F5F1FC084E08E
S1130A3021C080911101882331F0809111018150EE
S1130A408093110119C085E015C0809112018F3087
S1130A5021F0809112018F5FDDCF86E00BC0809181
S1130A601001882331F0809110018150809310018E
S1130A7003C081E0809313018091120180931601D9
S1130A8080911201809319018091110180931701C3
S1130A908091110180931A018091100180931801B3
S1130AA08091100180931B0108959091150120916C
S1130AB0160180916800921710F0826001C08D7F4A
S1130AC0809368009091150120911701809168002E
S1130AD0921710F0846001C08B7F8093680090911E
S1130AE015012091180180916800921710F0886018
S1130AF001C0877F809368009091150120911901AE
S1130B0080916800921710F0806801C08F778093FD
S1130B1068009091150120911A0180916800921744
S1130B2010F0806401C08F7B809368009091150160
S1130B3020911B0180916800921710F0806201C01F
S1130B408F7D8093680008951F920F920FB60F92C5
S1130B5011242F933F934F935F936F937F938F93BE
S1130B609F93AF93BF93EF93FF93809115018F5F92
S1130B708093150180911501803110F010921501B8
S1130B80809114018F5F8093140180911401843645
S1130B9021F4109214010E94E5040E9455050E945C
S1130BA06904FF91EF91BF91AF919F918F917F91D4
S1130BB06F915F914F913F912F910F900FBE0F90C6
S1130BC01F90189580932101089580932001089522
S1130BD080931F01089580931E01089580931D0141
S1130BE0089580912001089580911F0108958091B6
S1130BF01E010895AF92BF92CF92DF92EF92FF92BF
S1130C000F931F93CF93DF936C01E42E611102C005
S1130C1080E003C0613029F481E00E94F20780E0A3
S1130C2006C0623031F480E00E94F20781E00E9445
S1130C30FD07B12CA12CC0E0D0E000E010E0F12CC5
S1130C40A11036C00E94D4078823D1F30E940B0858
S1130C50C80FD11D0E940808080F111DB8016C1B94
S1130C607D0B77FF02C06F5F7F4F75956795062EEA
S1130C70000C770B880B990B0E94030CAB01BC0191
S1130C80C7010E945A080C151D0534F080E090E05D
S1130C900E94E607AA24A394CC15DD0534F080E075
S1130CA090E00E94EC07BB24B3940E94D707C8CFFE
S1130CB0BB2041F2DF91CF911F910F91FF90EF90F4
S1130CC0DF90CF90BF90AF900895CF93C0E00E9483
S1130CD0D202882339F080E00E94F20780E0CF91AD
S1130CE00C94FD07C130A1F058F0C230C9F0C330F4
S1130CF071F742E062E089E690E00E94FA05E6CFEF
S1130D0042E060E086E990E00E94FA05C1E0DFCFAE
S1130D1042E062E084E690E00E94FA05C2E0D7CFA8
S1130D2042E061E088EC90E00E94FA05C3E0CFCF96
S1130D30CF930E94790380E00E94F20780E00E9432
S1130D40FD0780912101811106C046E060E084EF37
S1130D5091E00E94FA05C6E080912101811157C0FB
S1130D600E94D4078823C1F380911D01813021F4AE
S1130D700E94650610921D0180911E01813081F44C
S1130D8046E062E086E990E00E94FA0580E00E9475
S1130D90F20780E00E94FD0782E080931E01CCE010
S1130DA080912001813099F446E061E08CE994E07F
S1130DB00E94FA0580E00E94F20780E00E94FD078D
S1130DC00E94870482E0809320010E949304809112
S1130DD01F01813041F482E080931F010E949D0431
S1130DE00E949804C0E10E94DF02682F880F770BED
S1130DF0880B990B0E94030CAB01BC018C2F90E073
S1130E000E945A080E94A2040E94D707A5CF80E03E
S1130E1090E00E94E60780E090E00E94EC070E94C8
S1130E209D04CF910C948E04CF93DF93CDB7DEB79E
S1130E3064970FB6F894DEBF0FBECDBFE12CF12C42
S1130E4000E010E086EFA82E80E0B82ECE010196D7
S1130E506C010E94D4078823E1F30E940808080F5C
S1130E60111D0E940B08E80EF11C60E080E00E9456
S1130E709003C8018E199F099F938F93FF92EF925D
S1130E801F930F93BF92AF92DF92CF920E94090DEE
S1130E90C6010E94CE030E94D2020E94D7070FB659
S1130EA0F894DEBF0FBECDBFD4CF0E94A4070E942A
S1130EB0590280E10E94DA030E9474040E945A00DD
S1130EC08FE190E00E945D000E9485040E94D20799
S1130ED078940E9414070E9465060E9414020E94DE
S1130EE07500882391F00E94980680E00E947B00A0
S1130EF088EE93E0EBE4FDE13197F1F700C00000E8
S1130F000197C1F781E00E947E000E947800882347
S1130F1001F30E94DC040E94310B80E00E947E00F9
S1130F200E94E004D6CF1092330110923401109243
S1130F3035011092360110922F0110923001109257
S1130F4031011092320108958D9A8F9A8C9A8E9A5B
S1130F50889A8B988A989598979A9498969AA8982C
S1130F6082EA8FBD89E18EBD1DBC1CBC8AEF90E076
S1130F709BBD8ABD99BD88BD97BD86BD8DE083BFED
S1130F8012BE82E68CBF89B7826089BF8BB7806C42
S1130F908BBF85B78F6085BF84B784BF8AB7806CE9
S1130FA08ABF0895A89A0895809122010895109205
S1130FB0220108958B3F91051CF497FD04C0089508
S1130FC08AEF90E0089580E090E008950E94DA07A7
S1130FD090E09BBD8ABD08950E94DA0790E099BD18
S1130FE088BD0895882321F097988FB58F7B03C01F
S1130FF0979A8FB580648FBD0895882321F09698C1
S11310008FB58F7E03C0969A8FB580618FBD08958A
S113101080912301089580912401089560937100C3
S1131020709372008093730090937400089560939A
S11310306D0070936E0080936F009093700008951C
S11310400F931F93CF93DF93CDB7DEB764970FB69B
S1131050F894DEBF0FBECDBF60E080E00E94900335
S1131060809138018F93809137018F9380913A0159
S11310708F93809139018F938BEF90E09F938F939F
S11310808E010F5F1F4F1F930F930E94090DC8011C
S11310900E94CE030FB6F894DEBF0FBECDBF649698
S11310A00FB6F894DEBF0FBECDBFDF91CF911F9175
S11310B00F9108954F925F926F927F928F929F92B9
S11310C0AF92BF92CF92DF92EF92FF92CF93DF93D2
S11310D0CDB7DEB72C970FB6F894DEBF0FBECDBFE9
S11310E06A017B01BC0180E090E00E94010C2B01AD
S11310F03C016091230170E080E090E00E94010CCB
S11311009B01AC01C301B2010E945E0BA7019601D1
S11311100E945E0B4B015C0160932B0170932C01C8
S113112080932D0190932E016091240170E080E062
S113113090E00E94010C9B01AC01C301B2010E942A
S11311405E0BA70196010E945F0B6B017C0160930B
S11311502701709328018093290190932A0180919B
S1131160390190913A018A3F910518F01092760066
S113117003C081E08093760080913701909138011B
S11311808A3F910518F01092750003C081E08093A6
S113119075008091690090916A00A0916B00B091F4
S11311A06C0089839A83AB83BC839C01AD01C50128
S11311B0B4010E948F0C2B013C016091760070E019
S11311C080E090E00E94030C9B01AC01C301B201DA
S11311D00E948F0C209133013091340140913501EC
S11311E0509136010E945F0B2B013C016093330147
S11311F070933401809335019093360129813A81AB
S11312004B815C81C701B6010E948F0C69837A838C
S11312108B839C836091750070E080E090E00E9475
S1131220030C9B01AC0169817A818B819C810E94B2
S11312308F0C20912F013091300140913101509158
S113124032010E945F0B69877A878B879C87609342
S11312502F0170933001809331019093320180917A
S11312606D0090916E00A0916F00B0917000898321
S11312709A83AB83BC838091710090917200A0919A
S11312807300B09174008D839E83AF83B8872981E6
S11312903A814B815C81C301B2010E948F0C2B0106
S11312A03C012D813E814F815885C501B4010E94C6
S11312B08F0C9B01AC01C301B2010E945F0B20E0C3
S11312C030E048E451E40E948F0C0E94CB0B2B01C8
S11312D03C0170933A016093390129813A814B8131
S11312E05C8169857A858B859C850E948F0C4B0176
S11312F05C012D813E814F815885C701B6010E9452
S11313008F0C9B01AC01C501B4010E945F0B20E06E
S113131030E048E451E40E948F0C0E94CB0B7093A0
S1131320380160933701C2010E94E60780913701BA
S1131330909138010E94EC072C960FB6F894DEBF0A
S11313400FBECDBFDF91CF91FF90EF90DF90CF9094
S1131350BF90AF909F908F907F906F905F904F90D1
S11313600C9420081F920F920FB60F9211248F93A2
S1131370809126018F5F809326018F910F900FBE7D
S11313800F901F9018951F920F920FB60F92112471
S11313908F93809125018F5F809325018F910F900A
S11313A00FBE0F901F9018951F920F920FB60F92B9
S11313B011248F9380912601809324011092260199
S11313C080912501809323011092250181E080936F
S11313D022018F910F900FBE0F901F90189546E039
S11313E062E080EF90E00E94FA0581E00E94F2073B
S11313F080E00E94FD0784E690E00E94E60784E610
S113140090E00E94EC072FEB84ED91E021508040A6
S11314109040E1F700C0000080E090E00E94E60701
S113142080E090E00C94EC070F931F93CF93DF932D
S1131430CDB7DEB764970FB6F894DEBF0FBECDBF4D
S1131440182F61E080E00E9490031F921F9385E0B3
S113145091E09F938F938E010F5F1F4F1F930F9304
S11314600E94090DC8010E94CE030F900F900F90A7
S11314700F900F900F9064960FB6F894DEBF0FBED6
S1131480CDBFDF91CF911F910F91089582E00E940B
S113149050008739910528F060E070E080E090EC1E
S11314A0089560E070E080E090E4089581E00E9497
S11314B0F20781E00E94FD0784E690E00E94E607BF
S11314C084E690E00E94EC072FEF80E792E0215041
S11314D080409040E1F700C0000080E090E00E946E
S11314E0E60780E090E00C94EC07CF93DF93EC01E7
S11314F080E00E94F20780E00E94FD0781E00E94E4
S113150050008C179D0788F481E00E94140A0E9401
S1131510D407882399F340E050E0BA0186E090E0D4
S11315200E945A080E94D707E9CFDF91CF910C940B
S1131530560A8C34910529F546E061E084E091E097
S11315400E94FA0580E00E94F20781E00E94FD07F4
S113155084E690E00E94E60784E690E00E94EC07AF
S11315602FEB84ED91E0215080409040E1F700C0E2
S1131570000080E090E00E94E60780E090E00C9498
S1131580EC078235910511F40C94EF09089580E07D
S11315900E94F20780E00E94FD0782E00E94500052
S11315A0899788F082E00E94140A0E94D407882355
S11315B0A1F340E050E0BA0186E090E00E945A08AE
S11315C00E94D707EACF46E060E080E392E00E9401
S11315D0FA0583E00C94140A80E00E94F20780E08C
S11315E00E94FD0782E00E9450008436910588F431
S11315F084E00E94140A0E94D407882399F340E0EF
S113160050E0BA0186E090E00E945A080E94D70791
S1131610E9CF80E090E00E94E60780E090E00C943F
S1131620EC0780E00E94F20780E00E94FD0781E061
S11316300E9450008A3F910590F485E00E94140AAC
S11316400E94D407882399F30E94460AAB01BC0187
S113165086E090E00E945A080E94D707E8CF0C94D5
S1131660560A60E070E080EC9FE30E940E0860E0A0
S113167070E0CB010E9417080E9479030E9493072F
S11316808AEF90E00E94750A0E94EF090E94EC0A1A
S11316900E94C70A8CE490E00E94990A0E94EC0A16
S11316A00E94C70A8CE490E00E94990A0E94EC0A06
S11316B00E94110B0E94EF090C94110B5058BB2788
S11316C0AA270E94760B0C94550C0E94470C38F004
S11316D00E944E0C20F039F49F3F19F426F40C9428
S11316E0440C0EF4E095E7FB0C943E0CE92F0E94A9
S11316F0660C58F3BA17620773078407950720F03E
S113170079F4A6F50C94880C0EF4E0950B2EBA2F00
S1131710A02D0B01B90190010C01CA01A0011124F3
S1131720FF27591B99F0593F50F4503E68F11A169F
S1131730F040A22F232F342F4427585FF3CF469530
S113174037952795A795F0405395C9F77EF41F1652
S1131750BA0B620B730B840BBAF09150A1F0FF0F1C
S1131760BB1F661F771F881FC2F70EC0BA0F621F08
S1131770731F841F48F4879577956795B795F795F8
S11317809E3F08F0B0CF9395880F08F09927EE0F8D
S11317909795879508950E94D20B6894B1110C9483
S11317A0890C08950E946E0C88F09F5798F0B92F09
S11317B09927B751B0F0E1F0660F771F881F991F82
S11317C01AF0BA95C9F714C0B13091F00E94880C90
S11317D0B1E008950C94880C672F782F8827B85FA0
S11317E039F0B93FCCF3869577956795B395D9F7DA
S11317F03EF490958095709561957F4F8F4F9F4FE4
S11318000895E89409C097FB3EF4909580957095EF
S113181061957F4F8F4F9F4F9923A9F0F92F96E938
S1131820BB279395F695879577956795B795F111AD
S1131830F8CFFAF4BB0F11F460FF1BC06F5F7F4F4A
S11318408F4F9F4F16C0882311F096E911C077235C
S113185021F09EE8872F762F05C0662371F096E865
S1131860862F70E060E02AF09A95660F771F881F34
S1131870DAF7880F9695879597F9089597F99F67F2
S113188080E870E060E008959FEF80EC0895002404
S11318900A941616170618060906089500240A94D1
S11318A012161306140605060895092E0394000C57
S11318B011F4882352F0BB0F40F4BF2B11F460FFE6
S11318C004C06F5F7F4F8F4F9F4F089557FD90580F
S11318D0440F551F59F05F3F71F04795880F97FBF0
S11318E0991F61F09F3F79F08795089512161306AA
S11318F01406551FF2CF4695F1DF08C016161706D9
S11319001806991FF1CF869571056105089408950D
S1131910E894BB2766277727CB0197F908950E949F
S1131920A20C0C94550C0E94470C38F00E944E0CEB
S113193020F0952311F00C943E0C0C94440C1124CB
S11319400C94890C0E94660C70F3959FC1F3950F5B
S113195050E0551F629FF001729FBB27F00DB11D2F
S1131960639FAA27F00DB11DAA1F649F6627B00DBF
S1131970A11D661F829F2227B00DA11D621F739FA8
S1131980B00DA11D621F839FA00D611D221F749FB6
S11319903327A00D611D231F849F600D211D822FFD
S11319A0762F6A2F11249F5750409AF0F1F0882324
S11319B04AF0EE0FFF1FBB1F661F771F881F915051
S11319C05040A9F79E3F510580F00C943E0C0C94B6
S11319D0890C5F3FE4F3983ED4F386957795679539
S11319E0B795F795E7959F5FC1F7FE2B880F911D7B
S11319F09695879597F90895EE0FFF1F0590F4913A
S1131A00E02D0994FB01DC0101900D920020E1F727
S1131A100895AEE0B0E0EFE0FDE00C94B80F0D895E
S1131A201E8986E08C831A8309838FEF9FE79E8348
S1131A308D83AE01475E5F4F6F89788DCE0101962D
S1131A400E942C0D2F813885F801E20FF31F1082BC
S1131A502E96E4E00C94D40FACE0B0E0E2E3FDE0B9
S1131A600C94AA0F7C016B018A01FC011782168277
S1131A70838181FFBDC1CE0101964C01F7019381A1
S1131A80F60193FD859193FF81916F01882309F4F9
S1131A90ABC1853239F493FD859193FF81916F0138
S1131AA0853229F4B70190E00E94140FE7CF512C3E
S1131AB0312C20E02032A0F48B3269F030F48032F3
S1131AC059F0833269F420612CC08D3239F08033AF
S1131AD039F4216026C02260246023C0286021C01C
S1131AE027FD27C030ED380F3A3078F426FF06C0C2
S1131AF0FAE05F9E300D1124532E13C08AE0389E05
S1131B00300D1124332E20620CC08E3221F426FDB8
S1131B106BC1206406C08C3611F4206802C088367C
S1131B2041F4F60193FD859193FF81916F01811139
S1131B30C1CF982F9F7D9554933028F40C5F1F4F8D
S1131B40FFE3F9830DC0833631F0833771F08335B9
S1131B5009F05BC022C0F801808189830E5F1F4FAA
S1131B6044244394512C540115C03801F2E06F0E03
S1131B70711CF801A080B18026FF03C0652D70E0C0
S1131B8002C06FEF7FEFC5012C870E94090F2C0163
S1131B9083012C852F77222E17C03801F2E06F0EB7
S1131BA0711CF801A080B18026FF03C0652D70E090
S1131BB002C06FEF7FEFC5012C870E94FE0E2C013F
S1131BC02C852068222E830123FC1BC0832D90E0EA
S1131BD048165906B0F4B70180E290E00E94140F51
S1131BE03A94F4CFF50127FC859127FE81915F019A
S1131BF0B70190E00E94140F31103A94F1E04F1AAB
S1131C0051084114510471F7E5C0843611F0893646
S1131C1039F5F80127FF07C06081718182819381C2
S1131C200C5F1F4F08C060817181072E000C880B68
S1131C30990B0E5F1F4F2F76722E97FF09C0909558
S1131C408095709561957F4F8F4F9F4F2068722EBE
S1131C502AE030E0A4010E944C0FA82EA81844C02A
S1131C60853729F42F7EB22E2AE030E025C0F22FEA
S1131C70F97FBF2E8F36C1F018F4883579F0B4C0DF
S1131C80803719F0883721F0AFC02F2F2061B22E92
S1131C90B4FE0DC08B2D8460B82E09C024FF0AC089
S1131CA09F2F9660B92E06C028E030E005C020E1E1
S1131CB030E002C020E132E0F801B7FE07C06081E5
S1131CC07181828193810C5F1F4F06C06081718195
S1131CD080E090E00E5F1F4FA4010E944C0FA82EDD
S1131CE0A818FB2DFF777F2E76FE0BC0372D3E7F85
S1131CF0A51450F474FE0AC072FC08C0372D3E7E51
S1131D0005C0BA2C372D03C0BA2C01C0B52C34FF42
S1131D100DC0FE01EA0DF11D8081803311F4397E7E
S1131D2009C032FF06C0B394B39404C0832F8678ED
S1131D3009F0B39433FD13C030FF06C05A2CB3141A
S1131D4018F4530C5B18B32CB31468F4B70180E295
S1131D5090E03C870E94140FB3943C85F5CFB314F4
S1131D6010F43B1801C0312C34FF12C0B70180E3DA
S1131D7090E03C870E94140F3C8532FF17C031FD70
S1131D8003C088E790E002C088E590E0B7010CC08A
S1131D90832F867859F031FF02C08BE201C080E2C4
S1131DA037FD8DE2B70190E00E94140FA51438F4BA
S1131DB0B70180E390E00E94140F5A94F7CFAA94DD
S1131DC0F401EA0DF11D8081B70190E00E94140F27
S1131DD0A110F5CF332009F451CEB70180E290E091
S1131DE00E94140F3A94F6CFF7018681978102C0BE
S1131DF08FEF9FEF2C96E2E10C94C60FFC01059047
S1131E00615070400110D8F7809590958E0F9F1FF8
S1131E100895FC016150704001900110D8F780953D
S1131E2090958E0F9F1F08950F931F93CF93DF9369
S1131E30FB01238121FD03C08FEF9FEF28C022FF08
S1131E4016C046815781248135814217530744F4D3
S1131E50A081B1819D012F5F3F4F318320838C93FB
S1131E60268137812F5F3F4F3783268310C0EB01D4
S1131E70092F182F0084F185E02D0995892BE1F6AF
S1131E808E819F8101969F838E83812F902FDF9176
S1131E90CF911F910F910895FA01AA27283051F18B
S1131EA0203181F1E8946F936E7F6E5F7F4F8F4F87
S1131EB09F4FAF4FB1E03ED0B4E03CD0670F781FE6
S1131EC0891F9A1FA11D680F791F8A1F911DA11DCB
S1131ED06A0F711D811D911DA11D20D009F4689404
S1131EE03F912AE0269F11243019305D3193DEF6AC
S1131EF0CF010895462F4770405D4193B3E00FD062
S1131F00C9F7F6CF462F4F70405D4A3318F0495D4C
S1131F1031FD4052419302D0A9F7EACFB4E0A6952F
S1131F209795879577956795BA95C9F70097610551
S1131F30710508959B01AC010A2E069457954795A7
S1131F4037952795BA95C9F7620F731F841F951F9C
S1131F50A01D08952F923F924F925F926F927F92AD
S1131F608F929F92AF92BF92CF92DF92EF92FF92A5
S1131F700F931F93CF93DF93CDB7DEB7CA1BDB0B51
S1131F800FB6F894DEBF0FBECDBF09942A883988F6
S1131F9048885F846E847D848C849B84AA84B984FD
S1131FA0C884DF80EE80FD800C811B81AA81B98109
S1131FB0CE0FD11D0FB6F894DEBF0FBECDBFED011D
S1091FC00895F894FFCF20
S1131FC635640F0580C00000FE0AD7233C000000DC
S1131FD6400000C03F0101040E1504040000000483
S1131FE604150E0400000041646A757374206B7056
S1131FF6006B70203D20253033640041646A75739C
S113200674206B69006B69203D20253033640052CF
S1132016756E2073656C656374696F6E0052756EB8
S11320264C696E6528290052756E57616C6C2829B7
S113203600456E5F426C7565746F6F746800527507
S11320466E00506172616D6574657273002564007B
S11320562025303264002530346920253034692047
S10D2066253034690025303269008A
S9030000FC
