S01500004C696E6520466F6C6C6F7765722E737265631D
S11300000C9431000C94EF050C9400060C944E00F3
S11300100C9429050C944E000C944E000C944E0044
S11300200C944E000C944E000C9411060C944E004B
S11300300C944E000C9465000C944E000C944E00ED
S11300400C944E000C944E000C944E000C944E00F4
S11300500C944E004D045A046804760484049204FB
S1130060A00411241FBECFE5D8E0DEBFCDBF10E051
S1130070A0E6B0E0E8E1F2E102C005900D92AC3DEB
S1130080B107D9F721E0ACEDB0E001C01D92A03179
S1130090B207E1F70E947C050C940A090C94000055
S11300A0806487B9369A3699FECF84B195B10895A4
S11300B087E886B9379A089589B990BD86E880BDE6
S11300C088E18AB9579A789408951F920F920FB6CF
S11300D00F9211248F938CB18093F3008F910F9022
S11300E00FBE0F901F90189580E00E945000843638
S11300F0910588F08C3221E0920778F0843F21E06A
S1130100920768F08C3B22E0920758F084389340C1
S113011050F085E3089580E3089581E3089582E330
S1130120089583E3089584E308950E947400982F4A
S11301308091600098139093600008950E94950048
S113014091E0853309F090E0892F08950E94CC0254
S113015060E080E00E94E30282E091E00E942303D9
S113016061E080E00E94E30284EF90E00E942303B8
S113017060E08FE00E94E30281E00E94FB0261E004
S11301808FE00E94E30280E00E94FB0208950F9337
S11301901F93CF93DF930E949500C82F9AE0E9E75D
S11301A0F0E0A2E0B1E001900D929A95E1F7809120
S11301B063001F928F9323E830E03F932F9324EF43
S11301C030E03F932F930E9432060E94A6000F90C6
S11301D00F900F900F900F900F90C43309F440C00C
S11301E003E810E0C4EFD0E00E9495008133D1F41D
S11301F00E949E008823E1F3809163008F5F8093C7
S113020063001F928F931F930F93DF93CF930E94EA
S113021032060E94A6000F900F900F900F900F903F
S11302200F90E2CF8233D1F40E949E008823E1F341
S1130230809163008150809363001F928F931F937A
S11302400F93DF93CF930E9432060E94A6000F9073
S11302500F900F900F900F900F90C6CF843321F61C
S1130260DF91CF911F910F9108950F931F93CF9317
S1130270DF930E949500C82F9AE0EDE8F0E0A2E039
S1130280B1E001900D929A95E1F7809162001F927E
S11302908F9327E930E03F932F9324EF30E03F938F
S11302A02F930E9432060E94A6000F900F900F9089
S11302B00F900F900F90C43309F440C007E910E089
S11302C0C4EFD0E00E9495008133D1F40E949E00D7
S11302D08823E1F3809162008F5F809362001F9214
S11302E08F931F930F93DF93CF930E9432060E9444
S11302F0A6000F900F900F900F900F900F90E2CFE9
S11303008233D1F40E949E008823E1F3809162003D
S11303108150809362001F928F931F930F93DF93FA
S1130320CF930E9432060E94A6000F900F900F9068
S11303300F900F900F90C6CF843321F6DF91CF91A9
S11303401F910F910895CF93DF930E949500C82FBA
S11303509EE0E5EBF0E0A2E0B1E001900D929A9509
S1130360E1F70E94A600C43309F440C0C1E0DAE01A
S11303700E9495008133D9F40E949E008823E1F302
S1130380C093DD001092DC00E1EAF0E0A4EFB0E0FD
S11303908D2F01900D928A95E1F70E94A60060E0EE
S11303A08FE00E94E30280E20E94FB02E1CF8233ED
S11303B0D9F40E949E008823E1F3C093DC001092DC
S11303C0DD00EBEAF0E0A4EFB0E08D2F01900D9298
S11303D08A95E1F70E94A6006C2F8FE00E94E30249
S11303E080E20E94FB02C4CF843311F6DF91CF91E7
S11303F008950F931F93CF93DF930E949500C82F06
S11304009DE0E3ECF0E0A2E0B1E001900D929A955A
S1130410E1F70E94A600C43309F440C003E810E0E9
S1130420C4EFD0E00E9495008133D1F40E949E0075
S11304308823E1F3809161008B5F809361001F92B8
S11304408F931F930F93DF93CF930E9432060E94E2
S1130450A6000F900F900F900F900F900F90E2CF87
S11304608233D1F40E949E008823E1F380916100DD
S11304708550809361001F928F931F930F93DF9396
S1130480CF930E9432060E94A6000F900F900F9007
S11304900F900F900F90C6CF843321F6DF91CF9148
S11304A01F910F910895CF930E949500C82F82E564
S11304B095E7AEE6B0E08093020190930301A09328
S11304C00401B09305019BE0E0EDF0E0A4EFB0E09F
S11304D001900D929A95E1F70E94A60060E08FE0EA
S11304E00E94E30281E00E94FB0261E08EE00E9430
S11304F0E3028FE70E94FB0261E08FE00E94E302C7
S11305008EE70E94FB02C433E9F00E949500853314
S1130510E1F3813361F018F4803331F011C0823398
S113052049F0833351F00CC00E94C700EECF0E9403
S1130530A301EBCF0E94F901E8CF0E943501E5CF7A
S1130540843319F7CF910895BF98BE98BD98BC988D
S1130550D298D198D0980895F1E4FA95F1F70895D6
S113056095B3807F9F70892B85BBAB9A0E94AC02A8
S1130570AB980E94AC020895CF93C82F0E94B0029A
S11305808C2F8295807F0E94B002CF910895AA2774
S1130590BB271197F1F708950E94C702AA9882E039
S11305A00E94BC020E94C7028CE00E94BC020E940E
S11305B0C70281E00E94BC020E94C7021092DF00C1
S11305C01092E0000895CF93DF93D82FC62F0E9496
S11305D0AC02AA98EC2FF0E0EC59FF4F80818D0F0C
S11305E00E94BC02D093E000C093DF000E94AC02E2
S11305F0DF91CF910895CF93C82F8A3049F4609149
S1130600DF006F5F6093DF0080E00E94E30219C0A7
S11306109091E0009F5F9093E0008091DE00891745
S113062040F46091DF006F5F6093DF0080E00E9420
S1130630E3020E94AC02AA9A8C2F0E94BC020E9480
S1130640AC02CF910895CF93DF93EC018881882386
S113065031F021960E94FB0289918111FBCFDF9139
S1130660CF910895EF92FF920F931F93CF93DF934F
S1130670CDB7DEB760970FB6F894DEBF0FBECDBF1F
S113068098E0E9E6F0E0DE01119601900D929A956A
S1130690E1F798E0E1E7F0E0DE01199601900D92B0
S11306A09A95E1F795B3937F95BBA99894B39C6F02
S11306B094BB8093DE00E4E6F0E090E8980F928328
S11306C0805483830E94C70280E30E94B0020E9488
S11306D0C70280E30E94B0020E94C70280E30E9426
S11306E0B0020E94C70280E20E94B0020E94C702C8
S11306F088E20E94BC020E94C70284E00E94BC02FD
S11307000E94C70285E80E94BC020E94C702AA9800
S113071086E00E94BC0280E40E94BC028E01075F56
S11307201F4F7E0181E1E80EF11CF80181918F01D8
S11307300E94FB020E151F05C1F780E80E94BC024F
S113074088E40E94BC028E010F5F1F4F7E01F9E016
S1130750EF0EF11CF80181918F010E94FB020E152E
S11307601F05C1F780E80E94BC020E94CC0260967B
S11307700FB6F894DEBF0FBECDBFDF91CF911F91AE
S11307800F91FF90EF9008958FB9779BFECF089556
S1130790C498809168000E94C4038091ED000E9477
S11307A0C403C49A08958CE58DB91EB8BF9ABD9A46
S11307B0BC9AA19AC598C498A99A8DE085BD14BC29
S11307C089E183BD0E94C8030895A998089583E030
S11307D00E9450008D3423E0920734F08FEF809311
S11307E0ED000E94C80349C08F3223E0920734F021
S11307F08FE78093ED000E94C8033FC08B3023E055
S1130800920734F08FE38093ED000E94C80335C053
S1130810893E22E0920734F08FE18093ED000E943C
S1130820C8032BC0863C22E0920734F08FE080930B
S1130830ED000E94C80321C0883A22E0920734F0F8
S113084087E08093ED000E94C80317C0843822E03B
S1130850920734F083E08093ED000E94C8030DC03A
S11308608F35924034F081E08093ED000E94C803FC
S113087004C01092ED000E94C8030E94C8030895AA
S1130880E091E4008E2F90E08730910508F065C078
S1130890FC01E65DFF4F0C942C068091E3008F3041
S11308A031F08091E3008F5F8093E30056C081E0D4
S11308B08093E4008091E2008F3031F08091E20077
S11308C08F5F8093E20049C082E08093E40045C0DA
S11308D08091E300882331F08091E300815080937C
S11308E0E3003BC083E08093E40037C08091E100E3
S11308F08F3031F08091E1008F5F8093E1002DC053
S113090084E08093E40029C08091E200882331F0E0
S11309108091E20081508093E2001FC085E08093C3
S1130920E4001BC08091E3008F3031F08091E3003C
S11309308F5F8093E30011C086E08093E4000DC0D4
S11309408091E100882331F08091E100815080930F
S1130950E10003C081E08093E4008091E300E7EECE
S1130960F0E080838091E30083838091E2008183BF
S11309708091E20084838091E10082838091E10090
S1130980858308958091E6009091E700891730F0FF
S11309908091680082608093680005C0809168003F
S11309A08D7F809368008091E6009091E80089171C
S11309B030F08091680084608093680005C0809165
S11309C068008B7F809368008091E6009091E90035
S11309D0891730F08091680088608093680005C0B2
S11309E080916800877F809368008091E6009091F1
S11309F0EA00891730F0809168008068809368006D
S1130A0005C0809168008F77809368008091E6002C
S1130A109091EB00891730F0809168008064809396
S1130A20680005C0809168008F7B80936800809186
S1130A30E6009091EC00891730F0809168008062A4
S1130A40809368000895809168008F7D809368008A
S1130A5008951F920F920FB60F9211242F933F9374
S1130A604F935F936F937F938F939F93AF93BF93B2
S1130A70EF93FF938091E6008F5F8093E60080916F
S1130A80E600803110F01092E6008091E5008F5F5F
S1130A908093E5008091E500843621F41092E5000E
S1130AA00E9440040E94C2040E94C803FF91EF9177
S1130AB0BF91AF919F918F917F916F915F914F9172
S1130AC03F912F910F900FBE0F901F9018950E9489
S1130AD091050E94A40280E10E9432030E94D30384
S1130AE00E9458008FE190E00E945C000E94E503A0
S1130AF00E94BF05789408950E9467050E94E70349
S1130B000E94530280E00E94D70580E00E94E30522
S1130B108AEF90E00E94CB058AEF90E00E94D10515
S1130B20EDCF8D9A8F9A8C9A8E9A889A8B988A9800
S1130B309598979A9498969AA89882EA8FBD89E195
S1130B408EBD1DBC1CBC8AEF90E09BBD8ABD99BDC7
S1130B5088BD97BD86BD8DE083BF12BE82E68CBF83
S1130B6089B7826089BF8BB7806C8BBF85B78F6074
S1130B7085BF84B784BF8AB7806C8ABF0895A89A5A
S1130B8008958B3F910514F08AEF90E0992314F4B3
S1130B9080E090E008950E94C10590E09BBD8ABD6D
S1130BA008950E94C10590E099BD88BD08958823E9
S1130BB029F097988FB58F7B8FBD0895979A8FB53D
S1130BC080648FBD0895882329F096988FB58F7E11
S1130BD08FBD0895969A8FB580618FBD08951F9239
S1130BE00F920FB60F9211248F938091F2008F5FB2
S1130BF08093F2008F910F900FBE0F901F90189565
S1130C001F920F920FB60F9211248F938091F100CF
S1130C108F5F8093F1008F910F900FBE0F901F9004
S1130C2018951F920F920FB60F9211248F938091F3
S1130C30F2008093F0001092F2008091F100809312
S1130C40EF001092F10081E08093EE008F910F90FD
S1130C500FBE0F901F901895EE0FFF1F0590F49193
S1130C60E02D0994AEE0B0E0E8E3F6E00C94E1088E
S1130C700D891E8986E08C831A8309838FEF9FE791
S1130C809E838D83AE01475E5F4F6F89788DCE0161
S1130C9001960E9455062F813885F801E20FF31F53
S1130CA010822E96E4E00C94FD08ACE0B0E0EBE595
S1130CB0F6E00C94D3087C016B018A01FC011782D5
S1130CC01682838181FFBDC1CE0101964C01F701DB
S1130CD09381F60193FD859193FF81916F018823A0
S1130CE009F4ABC1853239F493FD859193FF819169
S1130CF06F01853229F4B70190E00E943D08E7CFE7
S1130D00512C312C20E02032A0F48B3269F030F4E5
S1130D10803259F0833269F420612CC08D3239F06D
S1130D20803339F4216026C02260246023C0286007
S1130D3021C027FD27C030ED380F3A3078F426FF64
S1130D4006C0FAE05F9E300D1124532E13C08AE0D2
S1130D50389E300D1124332E20620CC08E3221F4C3
S1130D6026FD6BC1206406C08C3611F4206802C0D5
S1130D70883641F4F60193FD859193FF81916F01CB
S1130D808111C1CF982F9F7D9554933028F40C5F27
S1130D901F4FFFE3F9830DC0833631F0833771F0C1
S1130DA0833509F05BC022C0F801808189830E5F1E
S1130DB01F4F44244394512C540115C03801F2E0D0
S1130DC06F0E711CF801A080B18026FF03C0652D51
S1130DD070E002C06FEF7FEFC5012C870E943208DC
S1130DE02C0183012C852F77222E17C03801F2E0C5
S1130DF06F0E711CF801A080B18026FF03C0652D21
S1130E0070E002C06FEF7FEFC5012C870E942708B6
S1130E102C012C852068222E830123FC1BC0832DEA
S1130E2090E048165906B0F4B70180E290E00E94C1
S1130E303D083A94F4CFF50127FC859127FE819172
S1130E405F01B70190E00E943D0831103A94F1E04F
S1130E504F1A51084114510471F7E5C0843611F05A
S1130E60893639F5F80127FF07C0608171818281D5
S1130E7093810C5F1F4F08C060817181072E000CA5
S1130E80880B990B0E5F1F4F2F76722E97FF09C0A8
S1130E9090958095709561957F4F8F4F9F4F2068F7
S1130EA0722E2AE030E0A4010E947508A82EA8182A
S1130EB044C0853729F42F7EB22E2AE030E025C0C5
S1130EC0F22FF97FBF2E8F36C1F018F4883579F0F0
S1130ED0B4C0803719F0883721F0AFC02F2F2061BC
S1130EE0B22EB4FE0DC08B2D8460B82E09C024FF31
S1130EF00AC09F2F9660B92E06C028E030E005C0D6
S1130F0020E130E002C020E132E0F801B7FE07C082
S1130F1060817181828193810C5F1F4F06C0608163
S1130F20718180E090E00E5F1F4FA4010E9475085C
S1130F30A82EA818FB2DFF777F2E76FE0BC0372D29
S1130F403E7FA51450F474FE0AC072FC08C0372D0D
S1130F503E7E05C0BA2C372D03C0BA2C01C0B52C77
S1130F6034FF0DC0FE01EA0DF11D8081803311F4C0
S1130F70397E09C032FF06C0B394B39404C0832FF2
S1130F80867809F0B39433FD13C030FF06C05A2CA1
S1130F90B31418F4530C5B18B32CB31468F4B701EE
S1130FA080E290E03C870E943D08B3943C85F5CFF5
S1130FB0B31410F43B1801C0312C34FF12C0B70134
S1130FC080E390E03C870E943D083C8532FF17C0D7
S1130FD031FD03C088E790E002C088E590E0B701E6
S1130FE00CC0832F867859F031FF02C08BE201C018
S1130FF080E237FD8DE2B70190E00E943D08A51420
S113100038F4B70180E390E00E943D085A94F7CF8A
S1131010AA94F401EA0DF11D8081B70190E00E94C9
S11310203D08A110F5CF332009F451CEB70180E279
S113103090E00E943D083A94F6CFF70186819781AB
S113104002C08FEF9FEF2C96E2E10C94EF08FC01B5
S11310500590615070400110D8F7809590958E0FDF
S11310609F1F0895FC016150704001900110D8F752
S1131070809590958E0F9F1F08950F931F93CF9384
S1131080DF93FB01238121FD03C08FEF9FEF28C075
S113109022FF16C0468157812481358142175307A8
S11310A044F4A081B1819D012F5F3F4F31832083A0
S11310B08C93268137812F5F3F4F3783268310C05F
S11310C0EB01092F182F0084F185E02D0995892B58
S11310D0E1F68E819F8101969F838E83812F902FCD
S11310E0DF91CF911F910F910895FA01AA2728301B
S11310F051F1203181F1E8946F936E7F6E5F7F4FE1
S11311008F4F9F4FAF4FB1E03ED0B4E03CD0670F5C
S1131110781F891F9A1FA11D680F791F8A1F911DAF
S1131120A11D6A0F711D811D911DA11D20D009F4FF
S113113068943F912AE0269F11243019305D319341
S1131140DEF6CF010895462F4770405D4193B3E02A
S11311500FD0C9F7F6CF462F4F70405D4A3318F0D1
S1131160495D31FD4052419302D0A9F7EACFB4E082
S1131170A6959795879577956795BA95C9F700973A
S11311806105710508959B01AC010A2E06945795DB
S1131190479537952795BA95C9F7620F731F841F32
S11311A0951FA01D08952F923F924F925F926F92C8
S11311B07F928F929F92AF92BF92CF92DF92EF92E3
S11311C0FF920F931F93CF93DF93CDB7DEB7CA1B64
S11311D0DB0B0FB6F894DEBF0FBECDBF09942A888F
S11311E0398848885F846E847D848C849B84AA8437
S11311F0B984C884DF80EE80FD800C811B81AA81C4
S1131200B981CE0FD11D0FB6F894DEBF0FBECDBF8E
S10B1210ED010895F894FFCFED
S113121835640F0580C00000FE040E1504040000A8
S1131228000404150E0400000041646A75737420F8
S11312386B70006B70203D20253033640041646A74
S1131248757374206B69006B69203D202530336405
S11312580052756E4C696E6528290052756E576187
S11312686C6C28290052756E2073656C656374690B
S11312786F6E00456E5F426C7565746F6F746800BD
S10F1288506172616D6574657273000042
S9030000FC
