S01500004C696E6520466F6C6C6F7765722E737265631D
S11300000C9431000C94D5090C94E6090C944E0020
S11300100C9426060C944E000C944E000C944E0046
S11300200C944E000C944E000C94F7090C944E0062
S11300300C944E000C9465000C944E000C944E00ED
S11300400C944E000C944E000C944E000C944E00F4
S11300500C944E004A0557056505730581058F0507
S11300609D0511241FBECFE5D8E0DEBFCDBF11E052
S1130070A0E6B0E0E6E8FDE102C005900D92A230F2
S1130080B107D9F721E0A2E0B1E001C01D92A0358B
S1130090B207E1F70E94B9070C94C10E0C9400005A
S11300A0806487B9369A3699FECF84B195B10895A4
S11300B087E886B9379A089589B990BD86E880BDE6
S11300C088E18AB9579A789408951F920F920FB6CF
S11300D00F9211248F938CB1809333018F910F90E1
S11300E00FBE0F901F90189580910301089580937F
S11300F00301089580930201089580E00E94500056
S11301008436910588F08C3221E0920778F0843FA0
S113011021E0920768F08C3B22E0920758F0843883
S1130120934050F085E3089580E3089581E30895B2
S113013082E3089583E3089584E308950E947D0093
S1130140982F8091600098139093600008950E9406
S11301509E0091E0853309F090E0892F08950E9474
S1130160C90360E080E00E94E00382E491E00E9421
S1130170200461E080E00E94E00384E391E00E94B7
S1130180200460E08FE00E94E00381E00E94F80315
S113019061E08FE00E94E00380E00E94F80308958C
S11301A00F931F93CF93DF930E949E00C82F9AE072
S11301B0E7E8F0E0A2E4B1E001900D929A95E1F74E
S11301C0809163001F928F9321E930E03F932F9336
S11301D024E331E03F932F930E94E90B0E94AF0088
S11301E00F900F900F900F900F900F90C43309F45D
S11301F040C001E910E0C4E3D1E00E949E008133D5
S1130200D1F40E94A7008823E1F3809163008F5FFB
S1130210809363001F928F931F930F93DF93CF9369
S11302200E94E90B0E94AF000F900F900F900F9067
S11302300F900F90E2CF8233D1F40E94A70088235D
S1130240E1F3809163008150809363001F928F9348
S11302501F930F93DF93CF930E94E90B0E94AF008B
S11302600F900F900F900F900F900F90C6CF843384
S113027021F6DF91CF911F910F9108950F931F9352
S1130280CF93DF930E949E00C82F9AE0EBE9F0E041
S1130290A2E4B1E001900D929A95E1F78091620099
S11302A01F928F9325EA30E03F932F9324E331E0AC
S11302B03F932F930E94E90B0E94AF000F900F9081
S11302C00F900F900F900F90C43309F440C005EACB
S11302D010E0C4E3D1E00E949E008133D1F40E9477
S11302E0A7008823E1F3809162008F5F809362000E
S11302F01F928F931F930F93DF93CF930E94E90B69
S11303000E94AF000F900F900F900F900F900F90DE
S1130310E2CF8233D1F40E94A7008823E1F38091D5
S113032062008150809362001F928F931F930F93FA
S1130330DF93CF930E94E90B0E94AF000F900F90C0
S11303400F900F900F900F90C6CF843321F6DF915A
S1130350CF911F910F910895CF93DF930E949E0038
S1130360C82F9EE0E3ECF0E0A2E4B1E001900D922E
S11303709A95E1F70E94AF00C43309F440C0C1E08C
S1130380DAE00E949E008133D9F40E94A7008823FA
S1130390E1F3C093030110920201EFEAF0E0A4E359
S11303A0B1E08D2F01900D928A95E1F70E94AF0084
S11303B060E08FE00E94E00380E20E94F803E1CF56
S11303C08233D9F40E94A7008823E1F3C093020189
S11303D010920301E9EBF0E0A4E3B1E08D2F01906A
S11303E00D928A95E1F70E94AF006C2F8FE00E9476
S11303F0E00380E20E94F803C4CF843311F6DF9156
S1130400CF9108950F931F93CF93DF930E949E0083
S1130410C82F9DE0E1EDF0E0A2E4B1E001900D927F
S11304209A95E1F70E94AF00C43309F440C001E992
S113043010E0C4E3D1E00E949E008133D1F40E9415
S1130440A7008823E1F3809161008B5F80936100B2
S11304501F928F931F930F93DF93CF930E94E90B07
S11304600E94AF000F900F900F900F900F900F907D
S1130470E2CF8233D1F40E94A7008823E1F3809174
S113048061008550809361001F928F931F930F9397
S1130490DF93CF930E94E90B0E94AF000F900F905F
S11304A00F900F900F900F90C6CF843321F6DF91F9
S11304B0CF911F910F910895CF930E949E00C82F52
S11304C082E595E7AEE6B0E0809342019093430164
S11304D0A0934401B09345019BE0EEEDF0E0A4E36A
S11304E0B1E001900D929A95E1F70E94AF0060E0AF
S11304F08FE00E94E00381E00E94F80361E08EE057
S11305000E94E0038FE70E94F80361E08FE00E94FD
S1130510E0038EE70E94F803C433E9F00E949E00D2
S11305208533E1F3813361F018F4803331F011C085
S1130530823349F0833351F00CC00E94D000EECFD7
S11305400E94AC01EBCF0E940202E8CF0E943E0160
S1130550E5CF843319F7CF910895BF98BE98BD981D
S1130560BC98D298D198D09808954F925F926F9288
S11305707F928F929F92AF92BF92CF92DF92EF922F
S1130580FF920F931F93CF93DF93CDB7DEB764979A
S11305900FB6F894DEBF0FBECDBFE82E61E080E059
S11305A00E94E00300E010E0F12C6894882486F8AF
S11305B0912C44244394712C0F2EF9EEAF2EF0E0CD
S11305C0BF2EF02DCE0101966C016E2C5F2CC40160
S11305D0002E02C0959587950A94E2F78E219F21FB
S11305E0242D372D892B09F4272D3F932F93BF9268
S11305F0AF92DF92CF920E94E90BC6010E942004C1
S11306000F5F1F4F0F900F900F900F900F900F9050
S113061007301105D1F65F926F928CEE90E09F93B4
S11306208F938E010F5F1F4F1F930F930E94E90B4F
S1130630C8010E9420040F900F900F900F900F900C
S11306400F9064960FB6F894DEBF0FBECDBFDF9156
S1130650CF911F910F91FF90EF90DF90CF90BF90BB
S1130660AF909F908F907F906F905F904F90089580
S1130670CF93C9B386B3C07FC6958770C82B8C2F20
S11306800E94B5028C2FCF910895CF930E94380316
S1130690C82F882319F0809304010DC0C091040170
S11306A08C2F8B7F883011F0C83129F481E00E94AF
S11306B06A0680E04CC00E946D06823059F08C2F8F
S11306C08871883139F4C2FF05C081E00E94670651
S11306D080E03DC08C2F877F873719F481E00E942A
S11306E064060E946D068823D9F08C2F8F7D803498
S11306F0C9F0C032C9F0C033C9F0C031C9F0C83143
S1130700C9F0C830C9F0CC30C9F0C430C9F0C63023
S1130710C9F0C230C9F0CD7FC130C1F481EF17C038
S113072080E015C08FE013C08DE011C088E00FC0D9
S113073086E00DC081E00BC080E009C08FEF07C0E8
S11307408AEF05C088EF03C083EF01C080E0CF913A
S11307500895F1E4FA95F1F7089595B3807F9F70B9
S1130760892B85BBAB9A0E94A903AB980E94A9036D
S11307700895CF93C82F0E94AD038C2F8295807F5C
S11307800E94AD03CF910895AA27BB271197F1F7D3
S113079008950E94C403AA9882E00E94B9030E94AB
S11307A0C4038CE00E94B9030E94C40381E00E9448
S11307B0B9030E94C4031092060110920701089520
S11307C0CF93DF93D82FC62F0E94A903AA98EC2FAA
S11307D0F0E0EC59FF4F80818D0F0E94B903D09354
S11307E00701C09306010E94A903DF91CF910895E8
S11307F0CF93C82F8A3049F4609106016F5F6093EC
S1130800060180E00E94E00319C0909107019F5FF8
S11308109093070180910501891740F460910601C6
S11308206F5F6093060180E00E94E0030E94A903C9
S1130830AA9A8C2F0E94B9030E94A903CF9108950C
S1130840CF93DF93EC018881882331F021960E94B5
S1130850F80389918111FBCFDF91CF910895EF9235
S1130860FF920F931F93CF93DF93CDB7DEB76097BB
S11308700FB6F894DEBF0FBECDBF98E0E7E7F0E017
S1130880DE01119601900D929A95E1F798E0EFE759
S1130890F0E0DE01199601900D929A95E1F795B377
S11308A0937F95BBA99894B39C6F94BB80930501E7
S11308B0E4E6F0E090E8980F9283805483830E94EA
S11308C0C40380E30E94AD030E94C40380E30E943A
S11308D0AD030E94C40380E30E94AD030E94C403DD
S11308E080E20E94AD030E94C40388E20E94B9031F
S11308F00E94C40384E00E94B9030E94C40385E8F3
S11309000E94B9030E94C403AA9886E00E94B90316
S113091080E40E94B9038E01075F1F4F7E0181E1CD
S1130920E80EF11CF80181918F010E94F8030E1565
S11309301F05C1F780E80E94B90388E40E94B90347
S11309408E010F5F1F4F7E01F9E0EF0EF11CF801DD
S113095081918F010E94F8030E151F05C1F780E8ED
S11309600E94B9030E94C90360960FB6F894DEBFD3
S11309700FBECDBFDF91CF911F910F91FF90EF90EC
S113098008958FB9779BFECF0895C498809168002D
S11309900E94C104809114010E94C104C49A089564
S11309A08CE58DB91EB8BF9ABD9ABC9AA19AC59818
S11309B0C498A99A8DE085BD14BC89E183BD0E94C9
S11309C0C5040895A998089583E00E9450008D34C9
S11309D023E0920734F08FEF809314010E94C50442
S11309E049C08F3223E0920734F08FE780931401DB
S11309F00E94C5043FC08B3023E0920734F08FE39C
S1130A00809314010E94C50435C0893E22E09207F8
S1130A1034F08FE1809314010E94C5042BC0863CFE
S1130A2022E0920734F08FE0809314010E94C50401
S1130A3021C0883A22E0920734F087E080931401C1
S1130A400E94C50417C0843822E0920734F083E082
S1130A50809314010E94C5040DC08F35924034F078
S1130A6081E0809314010E94C50404C01092140113
S1130A700E94C5040E94C5040895E0910B018E2FC5
S1130A8090E08730910508F065C0FC01E65DFF4FFA
S1130A900C94E30B80910A018F3031F080910A01AC
S1130AA08F5F80930A0156C081E080930B0180918F
S1130AB009018F3031F0809109018F5F8093090122
S1130AC049C082E080930B0145C080910A018823CC
S1130AD031F080910A01815080930A013BC083E088
S1130AE080930B0137C0809108018F3031F08091E1
S1130AF008018F5F809308012DC084E080930B016F
S1130B0029C080910901882331F080910901815025
S1130B10809309011FC085E080930B011BC0809165
S1130B200A018F3031F080910A018F5F80930A01AE
S1130B3011C086E080930B010DC0809108018823C9
S1130B4031F08091080181508093080103C081E055
S1130B5080930B0180910A01EEE0F1E080838091A3
S1130B600A0183838091090181838091090184832F
S1130B708091080182838091080185830895809182
S1130B800D0190910E01891730F080916800826008
S1130B908093680005C0809168008D7F8093680011
S1130BA080910D0190910F01891730F080916800B8
S1130BB084608093680005C0809168008B7F809377
S1130BC0680080910D0190911001891730F0809197
S1130BD0680088608093680005C080916800877F02
S1130BE08093680080910D0190911101891730F074
S1130BF08091680080688093680005C080916800D7
S1130C008F778093680080910D019091120189176C
S1130C1030F08091680080648093680005C0809102
S1130C2068008F7B8093680080910D01909113017F
S1130C30891730F08091680080628093680008957D
S1130C40809168008F7D8093680008951F920F92B1
S1130C500FB60F9211242F933F934F935F936F938B
S1130C607F938F939F93AF93BF93EF93FF93809161
S1130C700D018F5F80930D0180910D01803110F083
S1130C8010920D0180910C018F5F80930C01809173
S1130C900C01843621F410920C010E943D050E943F
S1130CA0BF050E94C504FF91EF91BF91AF919F9141
S1130CB08F917F916F915F914F913F912F910F9001
S1130CC00FBE0F901F90189580931901089580937B
S1130CD016010895809315010895809116010895D1
S1130CE09F92AF92BF92CF92DF92EF92FF920F93B7
S1130CF01F93CF93DF935C01C42E611107C080E082
S1130D000E94240880E00E94300811C0613039F448
S1130D1081E00E94240880E00E94300808C062300C
S1130D2031F480E00E94240881E00E943008D0E081
S1130D30C0E0E12CF12C00E010E0D12C9924939434
S1130D4033C00E940808882379F10E943F08E80E06
S1130D50F11C0E943C08080F111DC8018E199F093F
S1130D60BC0112F46F5F7F4F75956795062E000CDA
S1130D70770B880B990B0E94EA0AAB01BC01C601F0
S1130D800E947C080A151B052CF080E090E00E946C
S1130D901808C92DEA14FB042CF080E090E00E94AE
S1130DA01E08D92D0E940B08CC2359F2DD2349F2E9
S1130DB0DF91CF911F910F91FF90EF90DF90CF9033
S1130DC0BF90AF909F9008951F93CF93DF93C0E09F
S1130DD0D1E013E00E943803882339F080E00E94B8
S1130DE0240880E00E94300828C0C13071F028F047
S1130DF0C23099F0C330C9F0EDCF42E060E086E93B
S1130E0090E00E947006CD2FE5CF42E062E084E6D8
S1130E1090E00E947006C2E0DDCF42E06D2F88ECC6
S1130E2090E00E947006C12FD5CF42E062E089E6CF
S1130E3090E00E947006C0E0CDCFDF91CF911F916A
S1130E400895EF92FF921F93CF93DF930E94C903FB
S1130E5080E00E94240880E00E943008C6E01CE084
S1130E60D0E15FC00E940808882309F45AC0809129
S1130E701501813021F40E94E4061092150180913D
S1130E801601813081F446E062E086E990E00E9438
S1130E90700680E00E94240880E00E94300882E00E
S1130EA080931601C12F80911801813079F446E0B6
S1130EB061E08CE994E00E94700680E00E942408BE
S1130EC080E00E94300882E080931801809117012D
S1130ED0813021F482E080931701CD2F8091160197
S1130EE0823071F481E00E9450007C010E94120A59
S1130EF081E9E81681E0F80618F081E08093190191
S1130F000E944503682F880F770B880B990B0E946A
S1130F10EA0AAB01BC018C2F90E00E947C080E947D
S1130F200B0880911901882309F49CCF80E090E09C
S1130F300E94180880E090E00E941E08DF91CF9183
S1130F401F91FF90EF9008950E94D8070E94AD0270
S1130F5080E10E942F040E94D0040E9458008FE177
S1130F6090E00E945C000E94E2040E9406087894CB
S1130F7008950E94A407D8EEC3E00E94E4040E94EE
S1130F805C020E9474008823C1F30E94210780E060
S1130F900E9477008D2F9C2FEBE4FDE13197F1F750
S1130FA000C000000197C1F781E00E947A00E5CFFC
S1130FB08D9A8F9A8C9A8E9A889A8B988A989598FB
S1130FC0979A9498969AA89882EA8FBD89E18EBDE3
S1130FD01DBC1CBC8AEF90E09BBD8ABD99BD88BD39
S1130FE097BD86BD8DE083BF12BE82E68CBF89B7F4
S1130FF0826089BF8BB7806C8BBF85B78F6085BFDC
S113100084B784BF8AB7806C8ABF0895A89A08956C
S113101080911A01089510921A0108958B3F910549
S113102014F08AEF90E0992314F480E090E008959E
S11310300E940E0890E09BBD8ABD08950E940E0890
S113104090E099BD88BD0895882329F097988FB5BD
S11310508F7B8FBD0895979A8FB580648FBD089557
S1131060882329F096988FB58F7E8FBD0895969A20
S11310708FB580618FBD089580911B010895809183
S11310801C0108950F931F93CF93DF93CDB7DEB761
S113109064970FB6F894DEBF0FBECDBF60E080E06A
S11310A00E94E003809130018F9380912F018F93F0
S11310B0809132018F93809131018F9382EF90E080
S11310C09F938F938E010F5F1F4F1F930F930E9467
S11310D0E90BC8010E9420040FB6F894DEBF0FBECE
S11310E0CDBF64960FB6F894DEBF0FBECDBFDF91BF
S11310F0CF911F910F9108954F925F926F927F92BB
S11311008F929F92AF92BF92CF92DF92EF92FF9213
S1131110CF93DF93CDB7DEB72C970FB6F894DEBF2D
S11311200FBECDBF6A017B01BC0180E090E00E944C
S1131130E80A2B013C0160911B0170E080E090E023
S11311400E94E80A9B01AC01C301B2010E94450A56
S1131150A70196010E94450A4B015C01609323019B
S113116070932401809325019093260160911C01C2
S113117070E080E090E00E94E80A9B01AC01C301AA
S1131180B2010E94450AA70196010E94460A6B011A
S11311907C0160931F01709320018093210190933F
S11311A0220180913101909132018A3F910518F01A
S11311B01092760003C081E08093760080912F0125
S11311C0909130018A3F910518F01092750003C088
S11311D081E0809375008091690090916A00A091EC
S11311E06B00B0916C0089839A83AB83BC839C01B0
S11311F0AD01C501B4010E94760B2B013C01609145
S1131200760070E080E090E00E94EA0A9B01AC0165
S1131210C301B2010E94760B20912B0130912C0165
S113122040912D0150912E010E94460A2B013C0150
S113123060932B0170932C0180932D0190932E01C8
S113124029813A814B815C81C701B6010E94760BEA
S113125069837A838B839C836091750070E080E05E
S113126090E00E94EA0A9B01AC0169817A818B813A
S11312709C810E94760B2091270130912801409196
S1131280290150912A010E94460A69877A878B872F
S11312909C87609327017093280180932901909380
S11312A02A0180916D0090916E00A0916F00B09121
S11312B0700089839A83AB83BC8380917100909181
S11312C07200A0917300B09174008D839E83AF83EC
S11312D0B88729813A814B815C81C301B2010E94A4
S11312E0760B2B013C012D813E814F815885C50130
S11312F0B4010E94760B9B01AC01C301B2010E94B0
S1131300460A20E030E048E451E40E94760B0E9453
S1131310B20A2B013C01709332016093310129819F
S11313203A814B815C8169857A858B859C850E9495
S1131330760B4B015C012D813E814F815885C7019D
S1131340B6010E94760B9B01AC01C501B4010E9459
S1131350460A20E030E048E451E40E94760B0E9403
S1131360B20A7093300160932F01C2010E941808E1
S113137080912F01909130010E941E080E94420822
S11313802C960FB6F894DEBF0FBECDBFDF91CF9180
S1131390FF90EF90DF90CF90BF90AF909F908F9091
S11313A07F906F905F904F9008951F920F920FB6A9
S11313B00F9211248F9380911E018F5F80931E01E1
S11313C08F910F900FBE0F901F9018951F920F9240
S11313D00FB60F9211248F9380911D018F5F80931C
S11313E01D018F910F900FBE0F901F9018951F92A3
S11313F00F920FB60F9211248F9380911E01809348
S11314001C0110921E0180911D0180931B011092FA
S11314101D0181E080931A018F910F900FBE0F90F0
S11314201F9018950F931F93CF93DF93CDB7DEB71B
S113143064970FB6F894DEBF0FBECDBF182F092FE7
S113144061E080E00E94E0030F931F938CEF90E033
S11314509F938F938E010F5F1F4F1F930F930E94D3
S1131460E90BC8010E9420040F900F900F900F9079
S11314700F900F9064960FB6F894DEBF0FBECDBFE9
S1131480DF91CF911F910F9108955058BB27AA2740
S11314900E945D0A0C943C0B0E942E0B38F00E94B3
S11314A0350B20F039F49F3F19F426F40C942B0BE0
S11314B00EF4E095E7FB0C94250BE92F0E944D0BED
S11314C058F3BA17620773078407950720F079F475
S11314D0A6F50C946F0B0EF4E0950B2EBA2FA02DED
S11314E00B01B90190010C01CA01A0011124FF27CD
S11314F0591B99F0593F50F4503E68F11A16F040C8
S1131500A22F232F342F4427585FF3CF46953795C6
S11315102795A795F0405395C9F77EF41F16BA0B8B
S1131520620B730B840BBAF09150A1F0FF0FBB1F39
S1131530661F771F881FC2F70EC0BA0F621F731F82
S1131540841F48F4879577956795B795F7959E3FDF
S113155008F0B0CF9395880F08F09927EE0F979570
S1131560879508950E94B90A6894B1110C94700B80
S113157008950E94550B88F09F5798F0B92F99272A
S1131580B751B0F0E1F0660F771F881F991F1AF06A
S1131590BA95C9F714C0B13091F00E946F0BB1E055
S11315A008950C946F0B672F782F8827B85F39F054
S11315B0B93FCCF3869577956795B395D9F73EF403
S11315C090958095709561957F4F8F4F9F4F0895AB
S11315D0E89409C097FB3EF49095809570956195C9
S11315E07F4F8F4F9F4F9923A9F0F92F96E9BB277F
S11315F09395F695879577956795B795F111F8CFFB
S1131600FAF4BB0F11F460FF1BC06F5F7F4F8F4F65
S11316109F4F16C0882311F096E911C0772321F05B
S11316209EE8872F762F05C0662371F096E8862FF3
S113163070E060E02AF09A95660F771F881FDAF74A
S1131640880F9695879597F9089597F99F6780E88D
S113165070E060E008959FEF80EC089500240A9400
S11316601616170618060906089500240A94121679
S11316701306140605060895092E0394000C11F4AC
S1131680882352F0BB0F40F4BF2B11F460FF04C059
S11316906F5F7F4F8F4F9F4F089557FD9058440FB2
S11316A0551F59F05F3F71F04795880F97FB991FBD
S11316B061F09F3F79F0879508951216130614067A
S11316C0551FF2CF4695F1DF08C016161706180607
S11316D0991FF1CF86957105610508940895E894E2
S11316E0BB2766277727CB0197F908950E94890BBA
S11316F00C943C0B0E942E0B38F00E94350B20F00A
S1131700952311F00C94250B0C942B0B11240C94A1
S1131710700B0E944D0B70F3959FC1F3950F50E031
S1131720551F629FF001729FBB27F00DB11D639F8F
S1131730AA27F00DB11DAA1F649F6627B00DA11D35
S1131740661F829F2227B00DA11D621F739FB00DDB
S1131750A11D621F839FA00D611D221F749F33274B
S1131760A00D611D231F849F600D211D822F762FE4
S11317706A2F11249F5750409AF0F1F088234AF0C1
S1131780EE0FFF1FBB1F661F771F881F915050402D
S1131790A9F79E3F510580F00C94250B0C94700B17
S11317A05F3FE4F3983ED4F3869577956795B795B4
S11317B0F795E7959F5FC1F7FE2B880F911D9695CE
S11317C0879597F90895EE0FFF1F0590F491E02D8A
S11317D00994AEE0B0E0EFEEFBE00C94980E0D89B6
S11317E01E8986E08C831A8309838FEF9FE79E838B
S11317F08D83AE01475E5F4F6F89788DCE01019670
S11318000E940C0C2F813885F801E20FF31F10821F
S11318102E96E4E00C94B40EACE0B0E0E2E1FCE01F
S11318200C948A0E7C016B018A01FC0117821682DA
S1131830838181FFBDC1CE0101964C01F7019381E3
S1131840F60193FD859193FF81916F01882309F43B
S1131850ABC1853239F493FD859193FF81916F017A
S1131860853229F4B70190E00E94F40DE7CF512CA2
S1131870312C20E02032A0F48B3269F030F4803235
S113188059F0833269F420612CC08D3239F08033F1
S113189039F4216026C02260246023C0286021C05E
S11318A027FD27C030ED380F3A3078F426FF06C004
S11318B0FAE05F9E300D1124532E13C08AE0389E47
S11318C0300D1124332E20620CC08E3221F426FDFB
S11318D06BC1206406C08C3611F4206802C08836BF
S11318E041F4F60193FD859193FF81916F0181117C
S11318F0C1CF982F9F7D9554933028F40C5F1F4FD0
S1131900FFE3F9830DC0833631F0833771F08335FB
S113191009F05BC022C0F801808189830E5F1F4FEC
S113192044244394512C540115C03801F2E06F0E45
S1131930711CF801A080B18026FF03C0652D70E002
S113194002C06FEF7FEFC5012C870E94E90D2C01C7
S113195083012C852F77222E17C03801F2E06F0EF9
S1131960711CF801A080B18026FF03C0652D70E0D2
S113197002C06FEF7FEFC5012C870E94DE0D2C01A2
S11319802C852068222E830123FC1BC0832D90E02C
S113199048165906B0F4B70180E290E00E94F40DB5
S11319A03A94F4CFF50127FC859127FE81915F01DC
S11319B0B70190E00E94F40D31103A94F1E04F1A0F
S11319C051084114510471F7E5C0843611F0893689
S11319D039F5F80127FF07C0608171818281938105
S11319E00C5F1F4F08C060817181072E000C880BAB
S11319F0990B0E5F1F4F2F76722E97FF09C090959B
S1131A008095709561957F4F8F4F9F4F2068722E00
S1131A102AE030E0A4010E942C0EA82EA81844C08D
S1131A20853729F42F7EB22E2AE030E025C0F22F2C
S1131A30F97FBF2E8F36C1F018F4883579F0B4C021
S1131A40803719F0883721F0AFC02F2F2061B22ED4
S1131A50B4FE0DC08B2D8460B82E09C024FF0AC0CB
S1131A609F2F9660B92E06C028E030E005C020E123
S1131A7030E002C020E132E0F801B7FE07C0608127
S1131A807181828193810C5F1F4F06C060817181D7
S1131A9080E090E00E5F1F4FA4010E942C0EA82E40
S1131AA0A818FB2DFF777F2E76FE0BC0372D3E7FC7
S1131AB0A51450F474FE0AC072FC08C0372D3E7E93
S1131AC005C0BA2C372D03C0BA2C01C0B52C34FF85
S1131AD00DC0FE01EA0DF11D8081803311F4397EC1
S1131AE009C032FF06C0B394B39404C0832F867830
S1131AF009F0B39433FD13C030FF06C05A2CB3145D
S1131B0018F4530C5B18B32CB31468F4B70180E2D7
S1131B1090E03C870E94F40DB3943C85F5CFB31458
S1131B2010F43B1801C0312C34FF12C0B70180E31C
S1131B3090E03C870E94F40D3C8532FF17C031FDD4
S1131B4003C088E790E002C088E590E0B7010CC0CC
S1131B50832F867859F031FF02C08BE201C080E206
S1131B6037FD8DE2B70190E00E94F40DA51438F41E
S1131B70B70180E390E00E94F40D5A94F7CFAA9441
S1131B80F401EA0DF11D8081B70190E00E94F40D8B
S1131B90A110F5CF332009F451CEB70180E290E0D3
S1131BA00E94F40D3A94F6CFF7018681978102C022
S1131BB08FEF9FEF2C96E2E10C94A60EFC010590AA
S1131BC0615070400110D8F7809590958E0F9F1F3B
S1131BD00895FC016150704001900110D8F7809580
S1131BE090958E0F9F1F08950F931F93CF93DF93AC
S1131BF0FB01238121FD03C08FEF9FEF28C022FF4B
S1131C0016C046815781248135814217530744F415
S1131C10A081B1819D012F5F3F4F318320838C933D
S1131C20268137812F5F3F4F3783268310C0EB0116
S1131C30092F182F0084F185E02D0995892BE1F6F1
S1131C408E819F8101969F838E83812F902FDF91B8
S1131C50CF911F910F910895FA01AA27283051F1CD
S1131C60203181F1E8946F936E7F6E5F7F4F8F4FC9
S1131C709F4FAF4FB1E03ED0B4E03CD0670F781F28
S1131C80891F9A1FA11D680F791F8A1F911DA11D0D
S1131C906A0F711D811D911DA11D20D009F4689446
S1131CA03F912AE0269F11243019305D3193DEF6EE
S1131CB0CF010895462F4770405D4193B3E00FD0A4
S1131CC0C9F7F6CF462F4F70405D4A3318F0495D8F
S1131CD031FD4052419302D0A9F7EACFB4E0A69572
S1131CE09795879577956795BA95C9F70097610594
S1131CF0710508959B01AC010A2E069457954795EA
S1131D0037952795BA95C9F7620F731F841F951FDE
S1131D10A01D08952F923F924F925F926F927F92EF
S1131D208F929F92AF92BF92CF92DF92EF92FF92E7
S1131D300F931F93CF93DF93CDB7DEB7CA1BDB0B93
S1131D400FB6F894DEBF0FBECDBF09942A88398838
S1131D5048885F846E847D848C849B84AA84B9843F
S1131D60C884DF80EE80FD800C811B81AA81B9814B
S1131D70CE0FD11D0FB6F894DEBF0FBECDBFED015F
S1091D800895F894FFCF62
S1131D8635640F0580C00000FE0AD7233C0000001E
S1131D96400000C03F0101040E15040400000004C5
S1131DA604150E0400000041646A757374206B7098
S1131DB6006B70203D20253033640041646A7573DE
S1131DC674206B69006B69203D2025303364005212
S1131DD6756E4C696E6528290052756E57616C6C78
S1131DE628290052756E2073656C656374696F6E7D
S1131DF600456E5F426C7565746F6F746800506160
S1131E0672616D6574657273002564002025303235
S1131E166400253034692025303469002530326960
S1051E260000B6
S9030000FC
