:100000000C942A000C94C1080C94D2080C9447005C
:100010000C9447000C9447000C9447000C94470044
:100020000C9447000C9447000C94E3080C94470090
:100030000C9447000C9447000C9447000C94470024
:100040000C9447000C9447000C9447000C94470014
:100050000C94470011241FBECFE5D8E0DEBFCDBF12
:1000600010E0A0E6B0E0EAE8FCE102C005900D92E5
:10007000A83EB107D9F721E0A8EEB0E001C01D927B
:10008000A632B207E1F70E9494060C94430E0C943A
:100090000000806487B9369A3699FECF84B195B155
:1000A000089587E886B9379A08951F93CF93DF9311
:1000B000D82F162FC42F611110C081E00E940307B2
:1000C00080E00E940F078CE390E00E94F7068C2FDF
:1000D00090E00E94FD06C0E022C06130E1F780E0C0
:1000E0000E94030781E00E940F078C2F90E00E947E
:1000F000F7068CE390E00E94FD06EDCF0E94E70634
:10010000882369F0111104C00E941E07C80F05C0A2
:10011000113039F40E941B07C80F0E94EA06CD1760
:1001200068F3DF91CF911F910895CF92DF92EF9204
:10013000FF921F93CF93DF932B3508F042C0D62F49
:10014000182FE42EF12C6AE570E0CB01821B910997
:100150009C01E29EC001E39E900DF29E900D112441
:100160000E94430B6B0180E00E94030780E00E9425
:100170000F07D11109C0C60199270E94F706C701D0
:100180000E94FD06C0E01BC0D130D9F4C7010E9417
:10019000F706C60199270E94FD06F4CF0E94E706E4
:1001A000882369F0D11104C00E941E07C80F05C042
:1001B000D13039F40E941B07C80F0E94EA06C1170C
:1001C00068F3DF91CF911F91FF90EF90DF90CF9078
:1001D00008958091E90008958093E900089580E0F2
:1001E0000E9449008436910588F08C3221E0920704
:1001F00078F0843F21E0920768F08C3B22E0920780
:1002000058F08438934050F085E3089580E30895D2
:1002100081E3089582E3089583E3089584E30895D4
:100220000E94EF00982F80916000981390936000D7
:1002300008950E94100191E0853309F090E0892F24
:1002400008950E94E40360E080E00E94FB0388E1DF
:1002500091E00E943B0461E080E00E94FB038AE0A1
:1002600091E00E943B0460E08FE00E94FB0381E08C
:100270000E94130461E08FE00E94FB0380E00E9473
:10028000130408950F931F93CF93DF930E941001DF
:10029000C82F9AE0E5E8F0E0A8E1B1E001900D9206
:1002A0009A95E1F7809162001F928F932FE830E0DA
:1002B0003F932F932AE031E03F932F930E946B0BE3
:1002C0000E9421010F900F900F900F900F900F90B0
:1002D000C43309F440C00FE810E0CAE0D1E00E9446
:1002E00010018133D1F40E9419018823E1F3809138
:1002F00062008F5F809362001F928F931F930F9312
:10030000DF93CF930E946B0B0E9421010F900F90FF
:100310000F900F900F900F90E2CF8233D1F40E9494
:1003200019018823E1F3809162008150809362007B
:100330001F928F931F930F93DF93CF930E946B0BAA
:100340000E9421010F900F900F900F900F900F902F
:10035000C6CF843321F6DF91CF911F910F9108957D
:100360000F931F93CF93DF930E941001C82F9AE041
:10037000E9E9F0E0A8E1B1E001900D929A95E1F78A
:10038000809161001F928F9323EA30E03F932F9377
:100390002AE031E03F932F930E946B0B0E942101D2
:1003A0000F900F900F900F900F900F90C43309F49F
:1003B00040C003EA10E0CAE0D1E00E94100181339E
:1003C000D1F40E9419018823E1F3809161008F5FCD
:1003D000809361001F928F931F930F93DF93CF93AE
:1003E0000E946B0B0E9421010F900F900F900F90B5
:1003F0000F900F90E2CF8233D1F40E94190188232D
:10040000E1F3809161008150809361001F928F938E
:100410001F930F93DF93CF930E946B0B0E942101D8
:100420000F900F900F900F900F900F90C6CF8433C6
:1004300021F6DF91CF911F910F910895CF93DF9314
:100440000E941001C82F9EE0E7EBF0E0A8E1B1E0C8
:1004500001900D929A95E1F70E942101C43319F1A0
:10046000D1E0CAE00E9410018133D9F40E94190141
:100470008823E1F3D093E9001092E800EDEAF0E080
:10048000AAE0B1E08C2F01900D928A95E1F70E94CD
:10049000210160E08FE00E94FB0380E20E941304D0
:1004A000E1CF8433F9F6DF91CF910895CF930E9485
:1004B0001001C82F82E595E7AEE6B0E08093180101
:1004C00090931901A0931A01B0931B019BE0E5ECF6
:1004D000F0E0AAE0B1E001900D929A95E1F70E9458
:1004E000210160E08FE00E94FB0381E00E94130481
:1004F00061E08EE00E94FB038FE70E94130461E03D
:100500008FE00E94FB038EE70E941304C433E9F0DE
:100510000E9410018533E1F3813361F018F48033D8
:1005200031F011C0823349F0833351F00CC00E9486
:100530004201EECF0E941E02EBCF0E944006FDCF8B
:100540000E94B001E5CF843319F7CF910895BF9889
:10055000BE98BD98BC98D298D198D09808954F92E3
:100560005F926F927F928F929F92AF92BF92CF9243
:10057000DF92EF92FF920F931F93CF93DF93CDB74C
:10058000DEB764970FB6F894DEBF0FBECDBFE82E7E
:1005900061E080E00E94FB0300E010E0F12C689431
:1005A000882486F8912C44244394712C0F2EF0ED6E
:1005B000AF2EF0E0BF2EF02DCE0101966C016E2C17
:1005C0005F2CC401002E02C0959587950A94E2F72E
:1005D0008E219F21242D372D892B09F4272D3F9320
:1005E0002F93BF92AF92DF92CF920E946B0BC60106
:1005F0000E943B040F5F1F4F0F900F900F900F90C2
:100600000F900F9007301105D1F65F926F9283ED36
:1006100090E09F938F938E010F5F1F4F1F930F9357
:100620000E946B0BC8010E943B040F900F900F902B
:100630000F900F900F9064960FB6F894DEBF0FBE28
:10064000CDBFDF91CF911F910F91FF90EF90DF9081
:10065000CF90BF90AF909F908F907F906F905F9062
:100660004F900895CF93C9B386B3C07FC695877066
:10067000C82B8C2F0E94AF028C2FCF910895CF935F
:100680000E943203C82F882319F08093EA000FC01C
:10069000C091EA008C2F8B7F883011F0C83139F47B
:1006A00081E00E94460560E070E0CB016BC00E94D3
:1006B0004905823069F08C2F8871883149F4C2FF76
:1006C00007C081E00E94430560E070E0CB015AC0A2
:1006D0000E9449058823F1F08C2F8F7D8034F1F042
:1006E000C03209F1C03321F1C03139F1C83151F1C3
:1006F000C83069F1CC3079F1C43091F1C630A9F13C
:10070000C230C1F1CD7FC130D1F560E070E080EF43
:1007100091EC38C060E070E0CB0134C060E070E084
:1007200080EF91E42FC060E070E080ED91E42AC09A
:1007300060E070E080E891E425C060E070E080E473
:1007400091E420C060E070E080E090E41BC060E0D5
:1007500070E0CB0117C060E070E080E090EC12C068
:1007600060E070E080E491EC0DC060E070E080E853
:1007700091EC08C060E070E080ED91EC03C060E0B7
:1007800070E0CB01CF910895F1E4FA95F1F7089567
:1007900095B3807F9F70892B85BBAB9A0E94C40361
:1007A000AB980E94C4030895CF93C82F0E94C8033A
:1007B0008C2F8295807F0E94C803CF910895AA272D
:1007C000BB271197F1F708950E94DF03AA9882E0F2
:1007D0000E94D4030E94DF038CE00E94D4030E9495
:1007E000DF0381E00E94D4030E94DF031092EC003B
:1007F0001092ED000895CF93DF93D82FC62F0E945B
:10080000C403AA98EC2FF0E0ED59FF4F80818D0FC3
:100810000E94D403D093ED00C093EC000E94C40367
:10082000DF91CF910895CF93C82F8A3049F460911A
:10083000EC006F5F6093EC0080E00E94FB0319C046
:100840009091ED009F5F9093ED008091EB008917F0
:1008500040F46091EC006F5F6093EC0080E00E94D8
:10086000FB030E94C403AA9A8C2F0E94D4030E9407
:10087000C403CF910895CF93DF93EC01888188233F
:1008800031F021960E94130489918111FBCFDF91F1
:10089000CF910895EF92FF920F931F93CF93DF9321
:1008A000CDB7DEB760970FB6F894DEBF0FBECDBFF1
:1008B00098E0E5E7F0E0DE01119601900D929A953F
:1008C000E1F798E0EDE7F0E0DE01199601900D9276
:1008D0009A95E1F795B3937F95BBA99894B39C6FD4
:1008E00094BB8093EB00E3E6F0E090E8980F9283EE
:1008F000805483830E94DF0380E30E94C8030E9428
:10090000DF0380E30E94C8030E94DF0380E30E94AC
:10091000C8030E94DF0380E20E94C8030E94DF0335
:1009200088E20E94D4030E94DF0384E00E94D40383
:100930000E94DF0385E80E94D4030E94DF03AA9887
:1009400086E00E94D40380E40E94D4038E01075FF6
:100950001F4F7E0181E1E80EF11CF80181918F01AA
:100960000E9413040E151F05C1F780E80E94D403EE
:1009700088E40E94D4038E010F5F1F4F7E01F9E0CF
:10098000EF0EF11CF80181918F010E9413040E15E6
:100990001F05C1F780E80E94D4030E94E40360961B
:1009A0000FB6F894DEBF0FBECDBFDF91CF911F9180
:1009B0000F91FF90EF9008958FB9779BFECF089528
:1009C000C4980E94DC04C49A08958CE58DB91EB8C1
:1009D000BF9ABD9ABC9AA19AC598C498A99A8DE06D
:1009E00085BD14BC89E183BD80E00E94E0040895C8
:1009F000A998089583E00E9449008D3423E092076E
:100A000024F08FEF0E94E00408958F3223E09207D4
:100A100024F08FE70E94E00408958B3023E09207D2
:100A200024F08FE30E94E0040895893E22E09207BB
:100A300024F08FE10E94E0040895863C22E09207B2
:100A400024F08FE00E94E0040895883A22E09207A3
:100A500024F087E00E94E0040895843822E09207A1
:100A600024F083E00E94E00408958F35924024F042
:100A700081E00E94E004089580E00E94E00408956F
:100A80008093F00008958093EF0008958093EE0026
:100A900008958091EF0008959F92AF92BF92CF92F8
:100AA000DF92EF92FF920F931F93CF93DF935C013E
:100AB000C42E611107C080E00E94030780E00E94FD
:100AC0000F0711C0613039F481E00E94030780E014
:100AD0000E940F0708C0623031F480E00E940307D3
:100AE00081E00E940F07D0E0C0E0E12CF12C00E093
:100AF00010E0D12C992493942CC00E94E7068823FF
:100B000041F10E941E07E80EF11C0E941B07080F0E
:100B1000111D602F6E19062E000C770B880B990B98
:100B20000E944A0AAB01BC01C6010E945B070A157C
:100B30001B052CF080E090E00E94F706C92DEA1416
:100B4000FB042CF080E090E00E94FD06D92D0E946D
:100B5000EA06CC2391F2DD2381F2DF91CF911F9140
:100B60000F91FF90EF90DF90CF90BF90AF909F904C
:100B700008951F93CF93DF93C0E0D1E013E027C027
:100B8000C13071F028F0C23099F0C330C9F01FC0F5
:100B900042E060E086E990E00E944C05CD2F17C04E
:100BA00042E062E084E690E00E944C05C2E00FC0A3
:100BB00042E06D2F88EC90E00E944C05C12F07C0E9
:100BC00042E062E089E690E00E944C05C0E00E94AD
:100BD00032038823A9F280E00E94030780E00E948C
:100BE0000F07DF91CF911F9108950E94E40380E0E9
:100BF0000E94030780E00E940F0735C00E94E706AD
:100C0000882389F18091EE00813021F40E94B9059A
:100C10001092EE008091EF00813081F442E062E0BA
:100C200086E990E00E944C0580E00E94030780E086
:100C30000E940F0782E08093EF0002C0823049F4E7
:100C400081E00E944900853F914018F081E0809347
:100C5000F0000E943F03AB01BC0182E090E00E94E3
:100C60005B070E94EA068091F000882339F280E059
:100C700090E00E94F70680E090E00E94FD06089553
:100C8000CF93DF93CDB7DEB764970FB6F894DEBF8E
:100C90000FBECDBFE12CF12C00E010E00F2EF9EDDE
:100CA000AF2EF0E0BF2EF02DCE0101966C010E9418
:100CB000E7068823E1F30E941B07080F111D0E941D
:100CC0001E07E80EF11C60E080E00E94FB03980123
:100CD0002E193F093F932F93FF92EF921F930F938B
:100CE000BF92AF92DF92CF920E946B0BC6010E941F
:100CF0003B040E9432030E94EA060FB6F894DEBF5E
:100D00000FBECDBFD4CF0E94B7060E94A70280E1DC
:100D10000E944A040E94E5040E9451000E94F804C7
:100D20000E94E506789408950E9483060E94FA04C2
:100D30000E945602D8EEC3E00E94FA040E94E90025
:100D4000882391F00E94F50581E00E94EC0080E08C
:100D50000E9440058D2F9C2FEBE4FDE13197F1F7C8
:100D600000C000000197C1F70E948209E5CF8D9A6B
:100D70008F9A8C9A8E9A889A8B988A989598979A37
:100D80009498969AA89882EA8FBD89E18EBD1DBC81
:100D90001CBC8AEF90E09BBD8ABD99BD88BD97BD04
:100DA00086BD8DE083BF12BE82E68CBF89B78260AC
:100DB00089BF8BB7806C8BBF85B78F6085BF84B7C9
:100DC00084BF8AB7806C8ABF0895A89A08958091DD
:100DD000F10008951092F10008958B3F910514F0F1
:100DE0008AEF90E0992314F480E090E008950E9447
:100DF000ED0690E09BBD8ABD08950E94ED0690E04F
:100E000099BD88BD0895882329F097988FB58F7B69
:100E10008FBD0895979A8FB580648FBD08958823FC
:100E200029F096988FB58F7E8FBD0895969A8FB5CD
:100E300080618FBD08958091F20008958091F30044
:100E400008950F931F93CF93DF93CDB7DEB76497C9
:100E50000FB6F894DEBF0FBECDBF60E080E00E9409
:100E6000FB03809107018F93809106018F938091FE
:100E700009018F93809108018F938EED90E09F93ED
:100E80008F938E010F5F1F4F1F930F930E946B0B69
:100E9000C8010E943B040FB6F894DEBF0FBECDBF61
:100EA00064960FB6F894DEBF0FBECDBFDF91CF9131
:100EB0001F910F9108954F925F926F927F928F9240
:100EC0009F92AF92BF92CF92DF92EF92FF92CF9319
:100ED000DF93CDB7DEB72C970FB6F894DEBF0FBE09
:100EE000CDBF6A017B01BC0180E090E00E94480A0E
:100EF0002B013C01B090F20020E030E040E05FE3E5
:100F0000C701B6010E94D60A6B017C016B2D70E00F
:100F100080E090E00E94480A9B01AC01C301B2014D
:100F20000E94A509A70196010E94A5094B015C0139
:100F30006093FA007093FB008093FC009093FD0097
:100F40006091F30070E080E090E00E94480A9B010D
:100F5000AC01C301B2010E94A5099B01AC01C7010C
:100F6000B6010E94A6096B017C016093F6007093A4
:100F7000F7008093F8009093F90080910801909118
:100F800009018A3F910518F01092740003C081E0B6
:100F90008093740080910601909107018A3F91052A
:100FA00018F01092730003C081E080937300809169
:100FB000670090916800A0916900B0916A008983F0
:100FC0009A83AB83BC839C01AD01C501B4010E942F
:100FD000D60A2B013C016091740070E080E090E043
:100FE0000E944A0A9B01AC01C301B2010E94D60AC9
:100FF00020910201309103014091040150910501BB
:101000000E94A6092B013C01609302017093030129
:10101000809304019093050129813A814B815C8181
:10102000C701B6010E94D60A69837A838B839C83A9
:101030006091730070E080E090E00E944A0A9B019A
:10104000AC0169817A818B819C810E94D60A2091B2
:10105000FE003091FF0040910001509101010E947B
:10106000A60969877A878B879C876093FE007093B7
:10107000FF00809300019093010180916B0090919B
:101080006C00A0916D00B0916E0089839A83AB8350
:10109000BC8380916F0090917000A0917100B0911D
:1010A00072008D839E83AF83B88729813A814B81FB
:1010B0005C81C301B2010E94D60A2B013C012D8143
:1010C0003E814F815885C501B4010E94D60A9B011B
:1010D000AC01C301B2010E94A60920E030E048E45F
:1010E00051E40E94D60A0E94120A2B013C0170931F
:1010F00009016093080129813A814B815C816985EE
:101100007A858B859C850E94D60A4B015C012D81D6
:101110003E814F815885C701B6010E94D60A9B01C6
:10112000AC01C501B4010E94A60920E030E048E40A
:1011300051E40E94D60A0E94120A7093070160933C
:101140000601C2010E94F7068091060190910701F5
:101150000E94FD060E9421072C960FB6F894DEBF70
:101160000FBECDBFDF91CF91FF90EF90DF90CF907A
:10117000BF90AF909F908F907F906F905F904F90B7
:1011800008951F920F920FB60F9211248F938091A2
:10119000F5008F5F8093F5008F910F900FBE0F9039
:1011A0001F9018951F920F920FB60F9211248F93D4
:1011B0008091F4008F5F8093F4008F910F900FBEA9
:1011C0000F901F9018951F920F920FB60F92112437
:1011D0008F938091F5008093F3001092F500809139
:1011E000F4008093F2001092F40081E08093F1000B
:1011F0008F910F900FBE0F901F9018950E94320391
:10120000803460F48E33A8F4803228F48E3188F470
:101210008F3069F40EC08C3351F40BC08C3749F019
:1012200018F4883721F405C08E57823010F080E022
:10123000089581E00895CF93C4E00E94FE088823BA
:1012400041F0E3ECF9E03197F1F700C00000C15044
:10125000A1F7CF91089581E00E94490021E08139F2
:10126000914008F420E0822F089582E00E94490016
:1012700021E08E35914008F020E0822F089582E031
:101280000E94490021E08139914008F420E0822F3A
:10129000089520E546E460E085E00E949500089509
:1012A00046E461E085E00E94550008952AE546E4A1
:1012B00061E085E00E949500089520E046E461E049
:1012C00085E00E949500089582E00E94490021E097
:1012D0008B3F910508F420E0822F089541E461E0FE
:1012E00082E30E9455000E9464098823B9F308959F
:1012F00082E00E94490021E0853F914008F420E00F
:10130000822F08950E942B09882319F00E946E09EC
:1013100017C00E943509882319F00E94490910C09E
:101320000E947809882319F00E94500909C00E9480
:101330003F09882319F00E94560902C00E945D09E6
:101340000E941B098823F1F208955058BB27AA2751
:101350000E94BD090C949C0A0E948E0A38F00E94DB
:10136000950A20F039F49F3F19F426F40C948B0A67
:101370000EF4E095E7FB0C94850AE92F0E94AD0A74
:1013800058F3BA17620773078407950720F079F4BA
:10139000A6F50C94CF0A0EF4E0950B2EBA2FA02DD3
:1013A0000B01B90190010C01CA01A0011124FF2712
:1013B000591B99F0593F50F4503E68F11A16F0400D
:1013C000A22F232F342F4427585FF3CF469537950C
:1013D0002795A795F0405395C9F77EF41F16BA0BD1
:1013E000620B730B840BBAF09150A1F0FF0FBB1F7F
:1013F000661F771F881FC2F70EC0BA0F621F731FC8
:10140000841F48F4879577956795B795F7959E3F24
:1014100008F0B0CF9395880F08F09927EE0F9795B5
:10142000879508950E94190A6894B1110C94D00A06
:1014300008950E94B50A88F09F5798F0B92F992710
:10144000B751B0F0E1F0660F771F881F991F1AF0AF
:10145000BA95C9F714C0B13091F00E94CF0AB1E03B
:1014600008950C94CF0A672F782F8827B85F39F03A
:10147000B93FCCF3869577956795B395D9F73EF448
:1014800090958095709561957F4F8F4F9F4F0895F0
:10149000E89409C097FB3EF490958095709561950E
:1014A0007F4F8F4F9F4F9923A9F0F92F96E9BB27C4
:1014B0009395F695879577956795B795F111F8CF40
:1014C000FAF4BB0F11F460FF1BC06F5F7F4F8F4FAB
:1014D0009F4F16C0882311F096E911C0772321F0A1
:1014E0009EE8872F762F05C0662371F096E8862F39
:1014F00070E060E02AF09A95660F771F881FDAF790
:10150000880F9695879597F9089597F99F6780E8D2
:1015100070E060E008959FEF80EC089500240A9445
:101520001616170618060906089500240A941216BE
:101530001306140605060895092E0394000C11F4F1
:10154000882352F0BB0F40F4BF2B11F460FF04C09E
:101550006F5F7F4F8F4F9F4F089557FD9058440FF7
:10156000551F59F05F3F71F04795880F97FB991F02
:1015700061F09F3F79F087950895121613061406BF
:10158000551FF2CF4695F1DF08C01616170618064C
:10159000991FF1CF86957105610508940895E89427
:1015A000BB2766277727CB0197F908950E94E90AA0
:1015B0000C949C0A0E948E0A38F00E94950A20F032
:1015C000952311F00C94850A0C948B0A11240C9429
:1015D000D00A0E94AD0A70F3959FC1F3950F50E0B9
:1015E000551F629FF001729FBB27F00DB11D639FD5
:1015F000AA27F00DB11DAA1F649F6627B00DA11D7B
:10160000661F829F2227B00DA11D621F739FB00D20
:10161000A11D621F839FA00D611D221F749F332790
:10162000A00D611D231F849F600D211D822F762F29
:101630006A2F11249F5750409AF0F1F088234AF006
:10164000EE0FFF1FBB1F661F771F881F9150504072
:10165000A9F79E3F510580F00C94850A0C94D00A9E
:101660005F3FE4F3983ED4F3869577956795B795F9
:10167000F795E7959F5FC1F7FE2B880F911D969513
:10168000879597F9089597FB072E16F4009407D0D5
:1016900077FD09D00E94570B07FC05D03EF49095CA
:1016A00081959F4F0895709561957F4F0895AA1B6E
:1016B000BB1B51E107C0AA1FBB1FA617B70710F03D
:1016C000A61BB70B881F991F5A95A9F7809590956F
:1016D000BC01CD010895AEE0B0E0E1E7FBE00C9481
:1016E0001A0E0D891E8986E08C831A8309838FEF79
:1016F0009FE79E838D83AE01475E5F4F6F89788D34
:10170000CE0101960E948E0B2F813885F801E20FE1
:10171000F31F10822E96E4E00C94360EACE0B0E09D
:10172000E4E9FBE00C940C0E7C016B018A01FC01E6
:1017300017821682838181FFBDC1CE0101964C01C3
:10174000F7019381F60193FD859193FF81916F01DC
:10175000882309F4ABC1853239F493FD859193FF59
:1017600081916F01853229F4B70190E00E94760DD6
:10177000E7CF512C312C20E02032A0F48B3269F0DD
:1017800030F4803259F0833269F420612CC08D32FC
:1017900039F0803339F4216026C02260246023C0F0
:1017A000286021C027FD27C030ED380F3A3078F48B
:1017B00026FF06C0FAE05F9E300D1124532E13C0A1
:1017C0008AE0389E300D1124332E20620CC08E32F8
:1017D00021F426FD6BC1206406C08C3611F420680C
:1017E00002C0883641F4F60193FD859193FF819103
:1017F0006F018111C1CF982F9F7D9554933028F4AC
:101800000C5F1F4FFFE3F9830DC0833631F0833740
:1018100071F0833509F05BC022C0F80180818983B3
:101820000E5F1F4F44244394512C540115C03801BE
:10183000F2E06F0E711CF801A080B18026FF03C09A
:10184000652D70E002C06FEF7FEFC5012C870E940D
:101850006B0D2C0183012C852F77222E17C03801A8
:10186000F2E06F0E711CF801A080B18026FF03C06A
:10187000652D70E002C06FEF7FEFC5012C870E94DD
:10188000600D2C012C852068222E830123FC1BC0B7
:10189000832D90E048165906B0F4B70180E290E03D
:1018A0000E94760D3A94F4CFF50127FC859127FE2E
:1018B00081915F01B70190E00E94760D31103A945A
:1018C000F1E04F1A51084114510471F7E5C0843614
:1018D00011F0893639F5F80127FF07C06081718161
:1018E000828193810C5F1F4F08C060817181072E38
:1018F000000C880B990B0E5F1F4F2F76722E97FFEF
:1019000009C090958095709561957F4F8F4F9F4F3F
:101910002068722E2AE030E0A4010E94AE0DA82EAD
:10192000A81844C0853729F42F7EB22E2AE030E073
:1019300025C0F22FF97FBF2E8F36C1F018F48835FD
:1019400079F0B4C0803719F0883721F0AFC02F2F5D
:101950002061B22EB4FE0DC08B2D8460B82E09C05C
:1019600024FF0AC09F2F9660B92E06C028E030E001
:1019700005C020E130E002C020E132E0F801B7FE0E
:1019800007C060817181828193810C5F1F4F06C007
:101990006081718180E090E00E5F1F4FA4010E9482
:1019A000AE0DA82EA818FB2DFF777F2E76FE0BC05C
:1019B000372D3E7FA51450F474FE0AC072FC08C097
:1019C000372D3E7E05C0BA2C372D03C0BA2C01C07E
:1019D000B52C34FF0DC0FE01EA0DF11D808180336E
:1019E00011F4397E09C032FF06C0B394B39404C029
:1019F000832F867809F0B39433FD13C030FF06C0FF
:101A00005A2CB31418F4530C5B18B32CB31468F4A9
:101A1000B70180E290E03C870E94760DB3943C854C
:101A2000F5CFB31410F43B1801C0312C34FF12C0B1
:101A3000B70180E390E03C870E94760D3C8532FF41
:101A400017C031FD03C088E790E002C088E590E050
:101A5000B7010CC0832F867859F031FF02C08BE2AA
:101A600001C080E237FD8DE2B70190E00E94760D63
:101A7000A51438F4B70180E390E00E94760D5A94E3
:101A8000F7CFAA94F401EA0DF11D8081B70190E02F
:101A90000E94760DA110F5CF332009F451CEB70185
:101AA00080E290E00E94760D3A94F6CFF7018681AD
:101AB000978102C08FEF9FEF2C96E2E10C94280EE5
:101AC000FC010590615070400110D8F78095909509
:101AD0008E0F9F1F0895FC0161507040019001100E
:101AE000D8F7809590958E0F9F1F08950F931F93A1
:101AF000CF93DF93FB01238121FD03C08FEF9FEF85
:101B000028C022FF16C046815781248135814217A3
:101B1000530744F4A081B1819D012F5F3F4F318372
:101B200020838C93268137812F5F3F4F3783268315
:101B300010C0EB01092F182F0084F185E02D0995C5
:101B4000892BE1F68E819F8101969F838E83812F61
:101B5000902FDF91CF911F910F910895FA01AA273D
:101B6000283051F1203181F1E8946F936E7F6E5FE0
:101B70007F4F8F4F9F4FAF4FB1E03ED0B4E03CD08E
:101B8000670F781F891F9A1FA11D680F791F8A1F71
:101B9000911DA11D6A0F711D811D911DA11D20D0D8
:101BA00009F468943F912AE0269F11243019305D92
:101BB0003193DEF6CF010895462F4770405D419383
:101BC000B3E00FD0C9F7F6CF462F4F70405D4A33D0
:101BD00018F0495D31FD4052419302D0A9F7EACF98
:101BE000B4E0A6959795879577956795BA95C9F7C7
:101BF00000976105710508959B01AC010A2E0694BA
:101C00005795479537952795BA95C9F7620F731F72
:101C1000841F951FA01D08952F923F924F925F92AF
:101C20006F927F928F929F92AF92BF92CF92DF92EC
:101C3000EF92FF920F931F93CF93DF93CDB7DEB751
:101C4000CA1BDB0B0FB6F894DEBF0FBECDBF0994E5
:101C50002A88398848885F846E847D848C849B843C
:101C6000AA84B984C884DF80EE80FD800C811B814A
:101C7000AA81B981CE0FD11D0FB6F894DEBF0FBE79
:0A1C8000CDBFED010895F894FFCFE9
:101C8A00350F0580C000000AD7233C000000400041
:101C9A0000C03F0101040E150404000000040415ED
:101CAA000E0400000041646A757374206B70006B47
:101CBA0070203D20253033640041646A75737420B6
:101CCA006B69006B69203D20253033640052756EC4
:101CDA004C696E6528290052756E2073656C6563C0
:101CEA0074696F6E00506172616D6574657273001C
:101CFA0025640020253032640025303469202530DF
:081D0A00346920253034690022
:00000001FF
