:100000000C9431000C940E0A0C941F0A0C944E00B0
:100010000C944F060C944E000C944E000C944E0021
:100020000C944E000C944E000C94300A0C944E002C
:100030000C944E000C944E000C944E000C944E0008
:100040000C944E000C944E000C944E000C944E00F8
:100050000C944E00730580058E059C05AA05B80515
:10006000C60511241FBECFE5D8E0DEBFCDBF10E02E
:10007000A0E6B0E0E0E3FFE102C005900D92AA3EE9
:10008000B107D9F721E0AAEEB0E001C01D92A53377
:10009000B207E1F70E94E1070C94960F0C94000060
:1000A000806487B9369A3699FECF84B195B10895A8
:1000B00087E886B9379A08951F93CF93DF93D82F97
:1000C000162FC42F611110C081E00E94500880E0FB
:1000D0000E945C088CE390E00E9444088C2F90E022
:1000E0000E944A08C0E022C06130E1F780E00E942F
:1000F000500881E00E945C088C2F90E00E94440828
:100100008CE390E00E944A08EDCF0E9434088823D7
:1001100069F0111104C00E946B08C80F05C01130AE
:1001200039F40E946808C80F0E943708CD1768F399
:10013000DF91CF911F910895CF92DF92EF92FF92BE
:100140001F93CF93DF932B3508F042C0D62F182F83
:10015000E42EF12C6AE570E0CB01821B91099C0131
:10016000E29EC001E39E900DF29E900D11240E942C
:10017000900C6B0180E00E94500880E00E945C08B7
:10018000D11109C0C60199270E944408C7010E94E5
:100190004A08C0E01BC0D130D9F4C7010E9444080E
:1001A000C60199270E944A08F4CF0E943408882388
:1001B00069F0D11104C00E946B08C80F05C0D1308E
:1001C00039F40E946808C80F0E943708C11768F305
:1001D000DF91CF911F91FF90EF90DF90CF90089526
:1001E0008091EB0008958093EB00089580E00E94D9
:1001F00050008436910588F08C3221E0920778F027
:10020000843F21E0920768F08C3B22E0920758F08F
:100210008438934050F085E3089580E3089581E3A6
:10022000089582E3089583E3089584E308950E9486
:10023000F600982F809160009813909360000895C5
:100240000E94170191E0853309F090E0892F08950D
:100250000E94F20360E080E00E94090487E291E0DE
:100260000E94490461E080E00E94090489E191E074
:100270000E94490460E08FE00E94090481E00E942E
:10028000210461E08FE00E94090480E00E942104C3
:1002900008950F931F93CF93DF930E941701C82FE8
:1002A0009AE0E6E8F0E0A7E2B1E001900D929A95BD
:1002B000E1F7809162001F928F9320E930E03F9335
:1002C0002F9329E131E03F932F930E94BE0C0E94AF
:1002D00028010F900F900F900F900F900F90C43344
:1002E00009F440C000E910E0C9E1D1E00E94170123
:1002F0008133D1F40E9420018823E1F380916200D0
:100300008F5F809362001F928F931F930F93DF93F1
:10031000CF930E94BE0C0E9428010F900F900F9067
:100320000F900F900F90E2CF8233D1F40E94200102
:100330008823E1F3809162008150809362001F92D4
:100340008F931F930F93DF93CF930E94BE0C0E9455
:1003500028010F900F900F900F900F900F90C6CF25
:10036000843321F6DF91CF911F910F9108950F9360
:100370001F93CF93DF930E941701C82F9AE0EAE9F9
:10038000F0E0A7E2B1E001900D929A95E1F780913B
:1003900061001F928F9324EA30E03F932F9329E16D
:1003A00031E03F932F930E94BE0C0E9428010F90D2
:1003B0000F900F900F900F900F90C43309F440C02E
:1003C00004EA10E0C9E1D1E00E9417018133D1F4C1
:1003D0000E9420018823E1F3809161008F5F809368
:1003E00061001F928F931F930F93DF93CF930E940F
:1003F000BE0C0E9428010F900F900F900F900F904D
:100400000F90E2CF8233D1F40E9420018823E1F3E0
:10041000809161008150809361001F928F931F93A0
:100420000F93DF93CF930E94BE0C0E9428010F9080
:100430000F900F900F900F900F90C6CF843321F63E
:10044000DF91CF911F910F910895CF93DF930E9479
:100450001701C82F9EE0E8EBF0E0A7E2B1E00190C1
:100460000D929A95E1F70E942801C43319F1D1E069
:10047000CAE00E9417018133D9F40E942001882329
:10048000E1F3D093EB001092EA00EEEAF0E0A9E18C
:10049000B1E08C2F01900D928A95E1F70E9428011E
:1004A00060E08FE00E94090480E20E942104E1CF15
:1004B0008433F9F6DF91CF910895CF930E9417010D
:1004C000C82F82E595E7AEE6B0E0809327019093D0
:1004D0002801A0932901B0932A019BE0E6ECF0E00B
:1004E000A9E1B1E001900D929A95E1F70E942801EF
:1004F00060E08FE00E94090481E00E94210461E035
:100500008EE00E9409048FE70E94210461E08FE0E1
:100510000E9409048EE70E942104C433E9F00E947E
:1005200017018533E1F3813361F018F4803331F042
:1005300011C0823349F0833351F00CC00E9449014D
:10054000EECF0E942502EBCF0E948D07FDCF0E94C7
:10055000B701E5CF843319F7CF910895BF98BE98BE
:10056000BD98BC98D298D198D09808954F925F9238
:100570006F927F928F929F92AF92BF92CF92DF92B3
:10058000EF92FF920F931F93CF93DF93CDB7DEB718
:1005900064970FB6F894DEBF0FBECDBFE82E61E0C2
:1005A00080E00E94090400E010E0F12C68948824A7
:1005B00086F8912C44244394712C0F2EF1EDAF2E2C
:1005C000F0E0BF2EF02DCE0101966C016E2C5F2C59
:1005D000C401002E02C0959587950A94E2F78E21FA
:1005E0009F21242D372D892B09F4272D3F932F93FD
:1005F000BF92AF92DF92CF920E94BE0CC6010E94C2
:1006000049040F5F1F4F0F900F900F900F900F90A6
:100610000F9007301105D1F65F926F9284ED90E054
:100620009F938F938E010F5F1F4F1F930F930E9415
:10063000BE0CC8010E9449040F900F900F900F90BC
:100640000F900F9064960FB6F894DEBF0FBECDBF2B
:10065000DF91CF911F910F91FF90EF90DF90CF909E
:10066000BF90AF909F908F907F906F905F904F90D2
:100670000895CF93C9B386B3C07FC6958770C82B42
:100680008C2F0E94B6028C2FCF910895CF930E9499
:100690003903C82F882319F08093EC000FC0C09154
:1006A000EC008C2F8B7F883011F0C83139F481E059
:1006B0000E94930660E070E0CB0172C00E94960633
:1006C000823069F08C2F8871883149F4C2FF07C0ED
:1006D00081E00E94900660E070E0CB0161C08C2F49
:1006E000877F873719F481E00E948D060E94960665
:1006F0008823F1F08C2F8F7D8034F1F0C03209F126
:10070000C03321F1C03139F1C83151F1C83069F13C
:10071000CC3079F1C43091F1C630A9F1C230C1F1C9
:10072000CD7FC130D1F560E070E080EF91EC38C052
:1007300060E070E0CB0134C060E070E080EF91E4F5
:100740002FC060E070E080ED91E42AC060E070E0CE
:1007500080E891E425C060E070E080E491E420C08E
:1007600060E070E080E090E41BC060E070E0CB01EE
:1007700017C060E070E080E090EC12C060E070E0D4
:1007800080E491EC0DC060E070E080E891EC08C07E
:1007900060E070E080ED91EC03C060E070E0CB01C0
:1007A000CF910895F1E4FA95F1F7089595B3807F1C
:1007B0009F70892B85BBAB9A0E94D203AB980E9495
:1007C000D2030895CF93C82F0E94D6038C2F829511
:1007D000807F0E94D603CF910895AA27BB27119747
:1007E000F1F708950E94ED03AA9882E00E94E203C7
:1007F0000E94ED038CE00E94E2030E94ED0381E081
:100800000E94E2030E94ED031092EE001092EF00AE
:100810000895CF93DF93D82FC62F0E94D203AA98B2
:10082000EC2FF0E0ED59FF4F80818D0F0E94E20325
:10083000D093EF00C093EE000E94D203DF91CF91DE
:100840000895CF93C82F8A3049F46091EE006F5F0E
:100850006093EE0080E00E94090419C09091EF00BF
:100860009F5F9093EF008091ED00891740F46091B5
:10087000EE006F5F6093EE0080E00E9409040E942A
:10088000D203AA9A8C2F0E94E2030E94D203CF9136
:100890000895CF93DF93EC018881882331F021966E
:1008A0000E94210489918111FBCFDF91CF9108959E
:1008B000EF92FF920F931F93CF93DF93CDB7DEB7E5
:1008C00060970FB6F894DEBF0FBECDBF98E0E6E7A5
:1008D000F0E0DE01119601900D929A95E1F798E013
:1008E000EEE7F0E0DE01199601900D929A95E1F79E
:1008F00095B3937F95BBA99894B39C6F94BB809359
:10090000ED00E3E6F0E090E8980F92838054838353
:100910000E94ED0380E30E94D6030E94ED0380E372
:100920000E94D6030E94ED0380E30E94D6030E943A
:10093000ED0380E20E94D6030E94ED0388E20E944C
:10094000E2030E94ED0384E00E94E2030E94ED03B3
:1009500085E80E94E2030E94ED03AA9886E00E94C7
:10096000E20380E40E94E2038E01075F1F4F7E01D5
:1009700081E1E80EF11CF80181918F010E942104B0
:100980000E151F05C1F780E80E94E20388E40E946B
:10099000E2038E010F5F1F4F7E01F9E0EF0EF11CA5
:1009A000F80181918F010E9421040E151F05C1F7E6
:1009B00080E80E94E2030E94F20360960FB6F8946A
:1009C000DEBF0FBECDBFDF91CF911F910F91FF9082
:1009D000EF9008958FB9779BFECF0895C4988091CA
:1009E00067000E94EA048091FC000E94EA04C49A15
:1009F00008958CE58DB91EB8BF9ABD9ABC9AA19A8C
:100A0000C598C498A99A8DE085BD14BC89E183BDC1
:100A10000E94EE040895A998089583E00E94500072
:100A20008D3423E0920734F08FEF8093FC000E9416
:100A3000EE0449C08F3223E0920734F08FE78093B1
:100A4000FC000E94EE043FC08B3023E0920734F09C
:100A50008FE38093FC000E94EE0435C0893E22E0C3
:100A6000920734F08FE18093FC000E94EE042BC0CB
:100A7000863C22E0920734F08FE08093FC000E94D5
:100A8000EE0421C0883A22E0920734F087E0809398
:100A9000FC000E94EE0417C0843822E0920734F074
:100AA00083E08093FC000E94EE040DC08F359240DD
:100AB00034F081E08093FC000E94EE0404C01092A8
:100AC000FC000E94EE040E94EE040895E091F30001
:100AD0008E2F90E08730910508F065C0FC01E65D3F
:100AE000FF4F0C94A40C8091F2008F3031F0809174
:100AF000F2008F5F8093F20056C081E08093F30094
:100B00008091F1008F3031F08091F1008F5F809300
:100B1000F10049C082E08093F30045C08091F2006B
:100B2000882331F08091F20081508093F2003BC025
:100B300083E08093F30037C08091F0008F3031F074
:100B40008091F0008F5F8093F0002DC084E080934F
:100B5000F30029C08091F100882331F08091F100E9
:100B600081508093F1001FC085E08093F3001BC08B
:100B70008091F2008F3031F08091F2008F5F80938E
:100B8000F20011C086E08093F3000DC08091F00068
:100B9000882331F08091F00081508093F00003C0F1
:100BA00081E08093F3008091F200E6EFF0E0808333
:100BB0008091F20083838091F10081838091F10024
:100BC00084838091F00082838091F0008583089572
:100BD0008091F5009091F600891730F080916700C0
:100BE00082608093670005C0809167008D7F80934D
:100BF00067008091F5009091F700891730F080919F
:100C0000670084608093670005C0809167008B7FD8
:100C1000809367008091F5009091F800891730F07B
:100C20008091670088608093670005C080916700AD
:100C3000877F809367008091F5009091F900891774
:100C400030F08091670080688093670005C08091D4
:100C500067008F77809367008091F5009091FA008C
:100C6000891730F08091670080648093670005C029
:100C7000809167008F7B809367008091F500909151
:100C8000FB00891730F080916700806280936700D5
:100C90000895809167008F7D8093670008951F926B
:100CA0000F920FB60F9211242F933F934F935F93A0
:100CB0006F937F938F939F93AF93BF93EF93FF9324
:100CC0008091F5008F5F8093F5008091F500803171
:100CD00010F01092F5008091F4008F5F8093F40083
:100CE0008091F400843621F41092F4000E9466058D
:100CF0000E94E8050E94EE04FF91EF91BF91AF9131
:100D00009F918F917F916F915F914F913F912F9123
:100D10000F900FBE0F901F9018958093FF000895BD
:100D20008093FE0008958093FD0008958091FE0059
:100D300008959F92AF92BF92CF92DF92EF92FF926F
:100D40000F931F93CF93DF935C01C42E611107C0F3
:100D500080E00E94500880E00E945C0811C0613071
:100D600039F481E00E94500880E00E945C0808C0CD
:100D7000623031F480E00E94500881E00E945C08FB
:100D8000D0E0C0E0E12CF12C00E010E0D12C99245F
:100D900093942CC00E943408882341F10E946B0870
:100DA000E80EF11C0E946808080F111D602F6E19D3
:100DB000062E000C770B880B990B0E94970BAB014A
:100DC000BC01C6010E94A8080A151B052CF080E092
:100DD00090E00E944408C92DEA14FB042CF080E046
:100DE00090E00E944A08D92D0E943708CC2391F246
:100DF000DD2381F2DF91CF911F910F91FF90EF9052
:100E0000DF90CF90BF90AF909F9008951F93CF93A6
:100E1000DF93C0E0D1E013E027C0C13071F028F0CB
:100E2000C23099F0C330C9F01FC042E060E086E9EB
:100E300090E00E949906CD2F17C042E062E084E660
:100E400090E00E949906C2E00FC042E06D2F88EC4E
:100E500090E00E949906C12F07C042E062E089E657
:100E600090E00E949906C0E00E9439038823A9F20D
:100E700080E00E94500880E00E945C08DF91CF91E2
:100E80001F9108950E94F20380E00E94500880E0C4
:100E90000E945C0835C00E943408882389F1809143
:100EA000FD00813021F40E9406071092FD00809120
:100EB000FE00813081F442E062E086E990E00E9429
:100EC000990680E00E94500880E00E945C0882E061
:100ED0008093FE0002C0823049F481E00E945000FD
:100EE000853F914018F081E08093FF000E94460307
:100EF000AB01BC0182E090E00E94A8080E94370884
:100F00008091FF00882339F280E090E00E9444083D
:100F100080E090E00E944A080895CF93DF93CDB718
:100F2000DEB764970FB6F894DEBF0FBECDBFE12CDD
:100F3000F12C00E010E00F2EFAEDAF2EF0E0BF2E06
:100F4000F02DCE0101966C010E9434088823E1F354
:100F50000E946808080F111D0E946B08E80EF11C22
:100F600060E080E00E94090498012E193F093F9338
:100F70002F93FF92EF921F930F93BF92AF92DF9246
:100F8000CF920E94BE0CC6010E9449040E94390300
:100F90000E9437080FB6F894DEBF0FBECDBFD4CF86
:100FA0000E9404080E94AE0280E10E9458040E9440
:100FB000F9040E9458000E940B050E9432087894A0
:100FC00008950E94D0070E940D050E945D02D8EE90
:100FD000C3E00E940D050E94F000882391F00E945A
:100FE000420781E00E94F30080E00E948D068D2F71
:100FF0009C2FEBE4FDE13197F1F700C00000019771
:10100000C1F70E94CF0AE5CF8D9A8F9A8C9A8E9A5B
:10101000889A8B988A989598979A9498969AA8986F
:1010200082EA8FBD89E18EBD1DBC1CBC8AEF90E0B9
:101030009BBD8ABD99BD88BD97BD86BD8DE083BF30
:1010400012BE82E68CBF89B7826089BF8BB7806C85
:101050008BBF85B78F6085BF84B784BF8AB7806C2C
:101060008ABF0895A89A089580910001089510926A
:10107000000108958B3F910514F08AEF90E09923C9
:1010800014F480E090E008950E943A0890E09BBD3F
:101090008ABD08950E943A0890E099BD88BD0895E0
:1010A000882329F097988FB58F7B8FBD0895979AE5
:1010B0008FB580648FBD0895882329F096988FB5E9
:1010C0008F7E8FBD0895969A8FB580618FBD0895EC
:1010D0008091010108958091020108950F931F935B
:1010E000CF93DF93CDB7DEB764970FB6F894DEBF2A
:1010F0000FBECDBF60E080E00E9409048091160120
:101100008F93809115018F93809118018F93809117
:1011100017018F938FED90E09F938F938E010F5F58
:101120001F4F1F930F930E94BE0CC8010E944904D9
:101130000FB6F894DEBF0FBECDBF64960FB6F8941D
:10114000DEBF0FBECDBFDF91CF911F910F910895EC
:101150004F925F926F927F928F929F92AF92BF92C7
:10116000CF92DF92EF92FF92CF93DF93CDB7DEB7AE
:101170002C970FB6F894DEBF0FBECDBF6A017B017E
:10118000BC0180E090E00E94950B2B013C01B090E7
:10119000010120E030E040E05FE3C701B6010E94BA
:1011A000230C6B017C016B2D70E080E090E00E94CD
:1011B000950B9B01AC01C301B2010E94F20AA70189
:1011C00096010E94F20A4B015C0160930901709341
:1011D0000A0180930B0190930C016091020170E071
:1011E00080E090E00E94950B9B01AC01C301B2012D
:1011F0000E94F20A9B01AC01C701B6010E94F30AEA
:101200006B017C01609305017093060180930701D7
:101210009093080180911701909118018A3F9105E0
:1012200018F01092750003C081E0809375008091E2
:101230001501909116018A3F910518F010927400E3
:1012400003C081E0809374008091680090916900F0
:10125000A0916A00B0916B0089839A83AB83BC83B1
:101260009C01AD01C501B4010E94230C2B013C017E
:101270006091750070E080E090E00E94970B9B0108
:10128000AC01C301B2010E94230C209111013091E5
:10129000120140911301509114010E94F30A2B0195
:1012A0003C0160931101709312018093130190939C
:1012B000140129813A814B815C81C701B6010E94EA
:1012C000230C69837A838B839C836091740070E024
:1012D00080E090E00E94970B9B01AC0169817A81CC
:1012E0008B819C810E94230C20910D0130910E0175
:1012F00040910F01509110010E94F30A69877A878B
:101300008B879C8760930D0170930E0180930F0172
:101310009093100180916C0090916D00A0916E00EF
:10132000B0916F0089839A83AB83BC8380917000F6
:1013300090917100A0917200B09173008D839E8393
:10134000AF83B88729813A814B815C81C301B201A7
:101350000E94230C2B013C012D813E814F81588539
:10136000C501B4010E94230C9B01AC01C301B20171
:101370000E94F30A20E030E048E451E40E94230C8C
:101380000E945F0B2B013C017093180160931701C1
:1013900029813A814B815C8169857A858B859C8521
:1013A0000E94230C4B015C012D813E814F815885A9
:1013B000C701B6010E94230C9B01AC01C501B40119
:1013C0000E94F30A20E030E048E451E40E94230C3C
:1013D0000E945F0B7093160160931501C2010E9479
:1013E000440880911501909116010E944A080E94BC
:1013F0006E082C960FB6F894DEBF0FBECDBFDF91FE
:10140000CF91FF90EF90DF90CF90BF90AF909F90E3
:101410008F907F906F905F904F9008951F920F92E2
:101420000FB60F9211248F93809104018F5F8093E8
:1014300004018F910F900FBE0F901F9018951F926F
:101440000F920FB60F9211248F93809103018F5F3B
:10145000809303018F910F900FBE0F901F901895EE
:101460001F920F920FB60F9211248F938091040157
:101470008093020110920401809103018093010185
:101480001092030181E0809300018F910F900FBEB5
:101490000F901F9018950E943903803460F48E33AA
:1014A000A8F4803228F48E3188F48F3069F40EC0AD
:1014B0008C3351F40BC08C3749F018F4883721F481
:1014C00005C08E57823010F080E0089581E00895C5
:1014D000CF93C3E00E944B0A882341F0E7E9FAE387
:1014E0003197F1F700C00000C150A1F7CF910895E6
:1014F00081E00E94500021E08139914008F420E011
:10150000822F089582E00E94500021E08E359140A4
:1015100008F020E0822F089582E00E94500021E030
:101520008139914008F420E0822F089520E546E4B7
:1015300060E085E00E949C00089546E461E085E05B
:101540000E945C0008952AE546E461E085E00E947F
:101550009C00089520E046E461E085E00E949C0044
:10156000089582E00E94500021E08B3F910508F42D
:1015700020E0822F089541E461E082E30E945C0054
:101580000E94B10A8823B9F3089582E00E945000B6
:1015900021E0853F914008F420E0822F08950E94C9
:1015A000780A882319F00E94BB0A17C00E94820A99
:1015B000882319F00E94960A10C00E94C50A882349
:1015C00019F00E949D0A09C00E948C0A882319F014
:1015D0000E94A30A02C00E94AA0A0E94680A8823E5
:1015E000F1F208955058BB27AA270E940A0B0C94C9
:1015F000E90B0E94DB0B38F00E94E20B20F039F47B
:101600009F3F19F426F40C94D80B0EF4E095E7FBF9
:101610000C94D20BE92F0E94FA0B58F3BA17620709
:1016200073078407950720F079F4A6F50C941C0C39
:101630000EF4E0950B2EBA2FA02D0B01B9019001ED
:101640000C01CA01A0011124FF27591B99F0593F31
:1016500050F4503E68F11A16F040A22F232F342F79
:101660004427585FF3CF469537952795A795F040C7
:101670005395C9F77EF41F16BA0B620B730B840BDC
:10168000BAF09150A1F0FF0FBB1F661F771F881F94
:10169000C2F70EC0BA0F621F731F841F48F48795EC
:1016A00077956795B795F7959E3F08F0B0CF9395DE
:1016B000880F08F09927EE0F9795879508950E9457
:1016C000660B6894B1110C941D0C08950E94020CD5
:1016D00088F09F5798F0B92F9927B751B0F0E1F0F3
:1016E000660F771F881F991F1AF0BA95C9F714C0A3
:1016F000B13091F00E941C0CB1E008950C941C0CC8
:10170000672F782F8827B85F39F0B93FCCF38695DB
:1017100077956795B395D9F73EF490958095709538
:1017200061957F4F8F4F9F4F0895E89409C097FBB5
:101730003EF490958095709561957F4F8F4F9F4FA8
:101740009923A9F0F92F96E9BB279395F6958795EC
:1017500077956795B795F111F8CFFAF4BB0F11F4AF
:1017600060FF1BC06F5F7F4F8F4F9F4F16C0882356
:1017700011F096E911C0772321F09EE8872F762F8C
:1017800005C0662371F096E8862F70E060E02AF0CD
:101790009A95660F771F881FDAF7880F96958795B9
:1017A00097F9089597F99F6780E870E060E00895E1
:1017B0009FEF80EC089500240A9416161706180669
:1017C0000906089500240A94121613061406050645
:1017D0000895092E0394000C11F4882352F0BB0FD6
:1017E00040F4BF2B11F460FF04C06F5F7F4F8F4F39
:1017F0009F4F089557FD9058440F551F59F05F3F74
:1018000071F04795880F97FB991F61F09F3F79F022
:1018100087950895121613061406551FF2CF4695A4
:10182000F1DF08C0161617061806991FF1CF869526
:101830007105610508940895E894BB27662777270A
:10184000CB0197F908950E94360C0C94E90B0E9485
:10185000DB0B38F00E94E20B20F0952311F00C9482
:10186000D20B0C94D80B11240C941D0C0E94FA0B73
:1018700070F3959FC1F3950F50E0551F629FF001E3
:10188000729FBB27F00DB11D639FAA27F00DB11DFC
:10189000AA1F649F6627B00DA11D661F829F222785
:1018A000B00DA11D621F739FB00DA11D621F839F0C
:1018B000A00D611D221F749F3327A00D611D231FE2
:1018C000849F600D211D822F762F6A2F11249F5730
:1018D00050409AF0F1F088234AF0EE0FFF1FBB1F33
:1018E000661F771F881F91505040A9F79E3F5105F2
:1018F00080F00C94D20B0C941D0C5F3FE4F3983EE7
:10190000D4F3869577956795B795F795E7959F5F9B
:10191000C1F7FE2B880F911D9695879597F908952D
:1019200097FB072E16F4009407D077FD09D00E948C
:10193000AA0C07FC05D03EF4909581959F4F089521
:10194000709561957F4F0895EE0FFF1F0590F491FC
:10195000E02D0994AA1BBB1B51E107C0AA1FBB1FA6
:10196000A617B70710F0A61BB70B881F991F5A952B
:10197000A9F780959095BC01CD010895AEE0B0E047
:10198000E4ECFCE00C946D0F0D891E8986E08C83DD
:101990001A8309838FEF9FE79E838D83AE01475E95
:1019A0005F4F6F89788DCE0101960E94E10C2F81E7
:1019B0003885F801E20FF31F10822E96E4E00C94B4
:1019C000890FACE0B0E0E7EEFCE00C945F0F7C0127
:1019D0006B018A01FC0117821682838181FFBDC1E0
:1019E000CE0101964C01F7019381F60193FD85919B
:1019F00093FF81916F01882309F4ABC1853239F4DB
:101A000093FD859193FF81916F01853229F4B70190
:101A100090E00E94C90EE7CF512C312C20E02032FB
:101A2000A0F48B3269F030F4803259F0833269F4DB
:101A300020612CC08D3239F0803339F4216026C00A
:101A40002260246023C0286021C027FD27C030ED1C
:101A5000380F3A3078F426FF06C0FAE05F9E300D6A
:101A60001124532E13C08AE0389E300D1124332EDA
:101A700020620CC08E3221F426FD6BC1206406C0AA
:101A80008C3611F4206802C0883641F4F60193FDCB
:101A9000859193FF81916F018111C1CF982F9F7D17
:101AA0009554933028F40C5F1F4FFFE3F9830DC06A
:101AB000833631F0833771F0833509F05BC022C083
:101AC000F801808189830E5F1F4F44244394512C79
:101AD000540115C03801F2E06F0E711CF801A080AE
:101AE000B18026FF03C0652D70E002C06FEF7FEF6D
:101AF000C5012C870E94BE0E2C0183012C852F77F7
:101B0000222E17C03801F2E06F0E711CF801A08080
:101B1000B18026FF03C0652D70E002C06FEF7FEF3C
:101B2000C5012C870E94B30E2C012C852068222E23
:101B3000830123FC1BC0832D90E048165906B0F4A6
:101B4000B70180E290E00E94C90E3A94F4CFF5010B
:101B500027FC859127FE81915F01B70190E00E94EB
:101B6000C90E31103A94F1E04F1A51084114510452
:101B700071F7E5C0843611F0893639F5F80127FF91
:101B800007C060817181828193810C5F1F4F08C003
:101B900060817181072E000C880B990B0E5F1F4F1F
:101BA0002F76722E97FF09C090958095709561955C
:101BB0007F4F8F4F9F4F2068722E2AE030E0A401A4
:101BC0000E94010FA82EA81844C0853729F42F7E43
:101BD000B22E2AE030E025C0F22FF97FBF2E8F36DB
:101BE000C1F018F4883579F0B4C0803719F088371F
:101BF00021F0AFC02F2F2061B22EB4FE0DC08B2D6F
:101C00008460B82E09C024FF0AC09F2F9660B92EA9
:101C100006C028E030E005C020E130E002C020E14D
:101C200032E0F801B7FE07C0608171818281938143
:101C30000C5F1F4F06C06081718180E090E00E5FF5
:101C40001F4FA4010E94010FA82EA818FB2DFF779B
:101C50007F2E76FE0BC0372D3E7FA51450F474FE08
:101C60000AC072FC08C0372D3E7E05C0BA2C372D45
:101C700003C0BA2C01C0B52C34FF0DC0FE01EA0D23
:101C8000F11D8081803311F4397E09C032FF06C016
:101C9000B394B39404C0832F867809F0B39433FDD2
:101CA00013C030FF06C05A2CB31418F4530C5B1841
:101CB000B32CB31468F4B70180E290E03C870E9433
:101CC000C90EB3943C85F5CFB31410F43B1801C092
:101CD000312C34FF12C0B70180E390E03C870E94B2
:101CE000C90E3C8532FF17C031FD03C088E790E084
:101CF00002C088E590E0B7010CC0832F867859F0C8
:101D000031FF02C08BE201C080E237FD8DE2B701F6
:101D100090E00E94C90EA51438F4B70180E390E06A
:101D20000E94C90E5A94F7CFAA94F401EA0DF11D4E
:101D30008081B70190E00E94C90EA110F5CF332039
:101D400009F451CEB70180E290E00E94C90E3A94A6
:101D5000F6CFF7018681978102C08FEF9FEF2C9617
:101D6000E2E10C947B0FFC01059061507040011082
:101D7000D8F7809590958E0F9F1F0895FC016150B4
:101D8000704001900110D8F7809590958E0F9F1F9D
:101D900008950F931F93CF93DF93FB01238121FDC0
:101DA00003C08FEF9FEF28C022FF16C046815781E6
:101DB000248135814217530744F4A081B1819D01EC
:101DC0002F5F3F4F318320838C93268137812F5F94
:101DD0003F4F3783268310C0EB01092F182F008453
:101DE000F185E02D0995892BE1F68E819F81019681
:101DF0009F838E83812F902FDF91CF911F910F9121
:101E00000895FA01AA27283051F1203181F1E89490
:101E10006F936E7F6E5F7F4F8F4F9F4FAF4FB1E0DD
:101E20003ED0B4E03CD0670F781F891F9A1FA11DD8
:101E3000680F791F8A1F911DA11D6A0F711D811DD9
:101E4000911DA11D20D009F468943F912AE0269F9E
:101E500011243019305D3193DEF6CF010895462FFD
:101E60004770405D4193B3E00FD0C9F7F6CF462FDE
:101E70004F70405D4A3318F0495D31FD4052419347
:101E800002D0A9F7EACFB4E0A69597958795779504
:101E90006795BA95C9F700976105710508959B018B
:101EA000AC010A2E06945795479537952795BA9514
:101EB000C9F7620F731F841F951FA01D08952F92ED
:101EC0003F924F925F926F927F928F929F92AF92CA
:101ED000BF92CF92DF92EF92FF920F931F93CF9317
:101EE000DF93CDB7DEB7CA1BDB0B0FB6F894DEBFAE
:101EF0000FBECDBF09942A88398848885F846E84D4
:101F00007D848C849B84AA84B984C884DF80EE801D
:101F1000FD800C811B81AA81B981CE0FD11D0FB626
:101F2000F894DEBF0FBECDBFED010895F894FFCF4A
:101F3000350F0580C00000FE0AD7233C000000409A
:101F40000000C03F0101040E150404000000040459
:101F5000150E0400000041646A757374206B7000F4
:101F60006B70203D20253033640041646A757374C2
:101F7000206B69006B69203D202530336400527569
:101F80006E4C696E6528290052756E2073656C650C
:101F90006374696F6E00506172616D657465727310
:101FA0000025640020253032640025303469202566
:0A1FB0003034692025303469000048
:00000001FF
