:100000000C9431000C94500A0C94610A0C944E002C
:100010000C9472060C944E000C944E000C944E00FE
:100020000C944E000C944E000C94720A0C944E00EA
:100030000C944E000C9466000C944E000C944E00F0
:100040000C944E000C944E000C944E000C944E00F8
:100050000C944E009605A305B105BF05CD05DB0543
:10006000E90511241FBECFE5D8E0DEBFCDBF11E00A
:10007000A0E6B0E0E6E0F1E202C005900D92A23009
:10008000B107D9F721E0A2E0B1E001C01D92A0358F
:10009000B207E1F70E94F4070C9481100C94000061
:1000A000805C87B986B1806586B9349BFECF84B108
:1000B00095B1089587E886B9089589B990BD86E815
:1000C00080BD88E18AB9579A789408951F920F925B
:1000D0000FB60F9211248F938CB1809333018F91BF
:1000E0000F900FBE0F901F901895809103010895F7
:1000F0008091020108958093030108958093020185
:10010000089580E00E9450008436910588F08C327A
:1001100021E0920778F0843F21E0920768F08C3B61
:1001200022E0920758F08438934050F085E3089518
:1001300080E3089581E3089582E3089583E30895B9
:1001400084E308950E948100982F809160009813A5
:100150009093600008950E94A20091E0853309F019
:1001600090E0892F08950E94EB0360E080E00E94F8
:10017000020482E491E00E94420461E080E00E9477
:10018000020484E391E00E94420460E08FE00E9458
:10019000020481E00E941A0461E08FE00E940204E0
:1001A00080E00E941A0408950F931F93CF93DF936A
:1001B0000E94A200C82F9AE0E7E8F0E0A2E4B1E0D4
:1001C00001900D929A95E1F7809163001F928F93B1
:1001D00021E930E03F932F9324E331E03F932F93C5
:1001E0000E94A90D0E94B3000F900F900F900F90E6
:1001F0000F900F90C43309F440C001E910E0C4E34C
:10020000D1E00E94A2008133D1F40E94AB00882388
:10021000E1F3809163008F5F809363001F928F935F
:100220001F930F93DF93CF930E94A90D0E94B300F9
:100230000F900F900F900F900F900F90E2CF82339E
:10024000D1F40E94AB008823E1F3809163008150D8
:10025000809363001F928F931F930F93DF93CF932D
:100260000E94A90D0E94B3000F900F900F900F9065
:100270000F900F90C6CF843321F6DF91CF911F915D
:100280000F9108950F931F93CF93DF930E94A200C5
:10029000C82F9AE0EBE9F0E0A2E4B1E001900D9202
:1002A0009A95E1F7809162001F928F9325EA30E0E2
:1002B0003F932F9324E331E03F932F930E94A90DA6
:1002C0000E94B3000F900F900F900F900F900F901F
:1002D000C43309F440C005EA10E0C4E3D1E00E9451
:1002E000A2008133D1F40E94AB008823E1F3809116
:1002F00062008F5F809362001F928F931F930F9312
:10030000DF93CF930E94A90D0E94B3000F900F902E
:100310000F900F900F900F90E2CF8233D1F40E9494
:10032000AB008823E1F380916200815080936200EA
:100330001F928F931F930F93DF93CF930E94A90D6A
:100340000E94B3000F900F900F900F900F900F909E
:10035000C6CF843321F6DF91CF911F910F9108957D
:10036000CF93DF930E94A200C82F9EE0E3ECF0E061
:10037000A2E4B1E001900D929A95E1F70E94B300DA
:10038000C43309F440C0C1E0DAE00E94A200813326
:10039000D9F40E94AB008823E1F3C09303011092CB
:1003A0000201EFEAF0E0A4E3B1E08D2F01900D929D
:1003B0008A95E1F70E94B30060E08FE00E9402049A
:1003C00080E20E941A04E1CF8233D9F40E94AB008C
:1003D0008823E1F3C093020110920301E9EBF0E0FE
:1003E000A4E3B1E08D2F01900D928A95E1F70E9470
:1003F000B3006C2F8FE00E94020480E20E941A0476
:10040000C4CF843311F6DF91CF9108950F931F93DA
:10041000CF93DF930E94A200C82F9DE0E1EDF0E0B2
:10042000A2E4B1E001900D929A95E1F70E94B30029
:10043000C43309F440C001E910E0C4E3D1E00E94F4
:10044000A2008133D1F40E94AB008823E1F38091B4
:1004500061008B5F809361001F928F931F930F93B6
:10046000DF93CF930E94A90D0E94B3000F900F90CD
:100470000F900F900F900F90E2CF8233D1F40E9433
:10048000AB008823E1F38091610085508093610087
:100490001F928F931F930F93DF93CF930E94A90D09
:1004A0000E94B3000F900F900F900F900F900F903D
:1004B000C6CF843321F6DF91CF911F910F9108951C
:1004C000CF930E94A200C82F82E595E7AEE6B0E088
:1004D0008093420190934301A0934401B09345015E
:1004E0009BE0EEEDF0E0A4E3B1E001900D929A956F
:1004F000E1F70E94B30060E08FE00E94020481E017
:100500000E941A0461E08EE00E9402048FE70E94BC
:100510001A0461E08FE00E9402048EE70E941A0430
:10052000C433E9F00E94A2008533E1F3813361F026
:1005300018F4803331F011C0823349F0833351F025
:100540000CC00E94D400EECF0E94B001EBCF0E94FD
:100550000602E8CF0E944201E5CF843319F7CF911C
:100560000895BF98BE98BD98BC98D298D198D0985D
:1005700008954F925F926F927F928F929F92AF9267
:10058000BF92CF92DF92EF92FF920F931F93CF9380
:10059000DF93CDB7DEB764970FB6F894DEBF0FBE1A
:1005A000CDBFE82E61E080E00E94020400E010E090
:1005B000F12C6894882486F8912C44244394712C5F
:1005C0000F2EF9EEAF2EF0E0BF2EF02DCE010196EA
:1005D0006C016E2C5F2CC401002E02C0959587958E
:1005E0000A94E2F78E219F21242D372D892B09F4BF
:1005F000272D3F932F93BF92AF92DF92CF920E940D
:10060000A90DC6010E9442040F5F1F4F0F900F906B
:100610000F900F900F900F9007301105D1F65F9259
:100620006F928CEE90E09F938F938E010F5F1F4F20
:100630001F930F930E94A90DC8010E9442040F90BE
:100640000F900F900F900F900F9064960FB6F89444
:10065000DEBF0FBECDBFDF91CF911F910F91FF90F5
:10066000EF90DF90CF90BF90AF909F908F907F9052
:100670006F905F904F900895CF93C9B386B3C07FBA
:10068000C6958770C82B8C2F0E94B9028C2FCF91F2
:100690000895CF930E943C03C82F882319F08093BC
:1006A00004010DC0C09104018C2F8B7F883011F0A4
:1006B000C83129F481E00E94BC0680E06AC00E9433
:1006C000C506823059F08C2F8871883139F4C2FF09
:1006D00005C081E00E94B90680E05BC00E94BF06B1
:1006E000823059F00E94C506882339F0CF3711F0C7
:1006F000CB3619F481E00E94B3060E94BF06823017
:1007000039F48C2F8B7F883719F481E00E94B6066C
:100710000E94C206823039F48C2F877F873719F404
:1007200081E00E94B0060E94C5068823D9F08C2F74
:100730008F7D8034C9F0C032C9F0C033C9F0C031F8
:10074000C9F0C831C9F0C830C9F0CC30C9F0C430E4
:10075000C9F0C630C9F0C230C9F0CD7FC130C1F494
:1007600081EF17C080E015C08FE013C08DE011C08D
:1007700088E00FC086E00DC081E00BC080E009C0BA
:100780008FEF07C08AEF05C088EF03C083EF01C079
:1007900080E0CF910895F1E4FA95F1F7089595B3CB
:1007A000807F9F70892B85BBAB9A0E94CB03AB984F
:1007B0000E94CB030895CF93C82F0E94CF038C2FA4
:1007C0008295807F0E94CF03CF910895AA27BB27EF
:1007D0001197F1F708950E94E603AA9882E00E941B
:1007E000DB030E94E6038CE00E94DB030E94E60329
:1007F00081E00E94DB030E94E60310920601109242
:1008000007010895CF93DF93D82FC62F0E94CB0303
:10081000AA98EC2FF0E0EC59FF4F80818D0F0E94D9
:10082000DB03D0930701C09306010E94CB03DF9145
:10083000CF910895CF93C82F8A3049F46091060173
:100840006F5F6093060180E00E94020419C09091DE
:1008500007019F5F9093070180910501891740F47C
:10086000609106016F5F6093060180E00E940204C0
:100870000E94CB03AA9A8C2F0E94DB030E94CB0319
:10088000CF910895CF93DF93EC018881882331F0D5
:1008900021960E941A0489918111FBCFDF91CF919B
:1008A0000895EF92FF920F931F93CF93DF93CDB7ED
:1008B000DEB760970FB6F894DEBF0FBECDBF98E0ED
:1008C000E7E7F0E0DE01119601900D929A95E1F7CD
:1008D00098E0EFE7F0E0DE01199601900D929A950D
:1008E000E1F795B3937F95BBA99894B39C6F94BBA4
:1008F00080930501E4E6F0E090E8980F928380543D
:1009000083830E94E60380E30E94CF030E94E603F4
:1009100080E30E94CF030E94E60380E30E94CF039E
:100920000E94E60380E20E94CF030E94E60388E271
:100930000E94DB030E94E60384E00E94DB030E9426
:10094000E60385E80E94DB030E94E603AA9886E09E
:100950000E94DB0380E40E94DB038E01075F1F4FD0
:100960007E0181E1E80EF11CF80181918F010E9466
:100970001A040E151F05C1F780E80E94DB0388E406
:100980000E94DB038E010F5F1F4F7E01F9E0EF0E27
:10099000F11CF80181918F010E941A040E151F05A8
:1009A000C1F780E80E94DB030E94EB0360960FB65C
:1009B000F894DEBF0FBECDBFDF91CF911F910F9195
:1009C000FF90EF9008958FB9779BFECF0895C4985C
:1009D000809168000E94E304809114010E94E30466
:1009E000C49A08958CE58DB91EB8BF9ABD9ABC9A79
:1009F000A19AC598C498A99A8DE085BD14BC89E1D7
:100A000083BD0E94E7040895A99808958091680025
:100A10008160809368000E94E70408958CE78093CA
:100A200068000E94E70408958AEB809368000E94A2
:100A3000E704089586ED809368000E94E704089516
:100A40008EEF809368000E94E704089583E00E947F
:100A500050008D3423E0920734F08FEF809314011F
:100A60000E94E70449C08F3223E0920734F08FE7F9
:100A7000809314010E94E7043FC08B3023E092076B
:100A800034F08FE3809314010E94E70435C0893E5F
:100A900022E0920734F08FE1809314010E94E70472
:100AA0002BC0863C22E0920734F08FE08093140143
:100AB0000E94E70421C0883A22E0920734F087E0E0
:100AC000809314010E94E70417C0843822E0920743
:100AD00034F083E0809314010E94E7040DC08F3549
:100AE000924034F081E0809314010E94E70404C036
:100AF000109214010E94E7040E94E704089589B748
:100B0000806889BF089589B78F7789BF0E942005C3
:100B10000895E0910B018E2F90E08730910508F049
:100B200065C0FC01E65DFF4F0C94A30D80910A01A6
:100B30008F3031F080910A018F5F80930A0156C097
:100B400081E080930B01809109018F3031F0809119
:100B500009018F5F8093090149C082E080930B01F6
:100B600045C080910A01882331F080910A018150AB
:100B700080930A013BC083E080930B0137C08091D2
:100B800008018F3031F0809108018F5F8093080158
:100B90002DC084E080930B0129C080910901882336
:100BA00031F0809109018150809309011FC085E0D7
:100BB00080930B011BC080910A018F3031F080912E
:100BC0000A018F5F80930A0111C086E080930B01B8
:100BD0000DC080910801882331F080910801815077
:100BE0008093080103C081E080930B0180910A018A
:100BF000EEE0F1E0808380910A0183838091090116
:100C0000818380910901848380910801828380918E
:100C100008018583089580910D0190910E01891737
:100C200030F08091680082608093680005C08091F8
:100C300068008D7F8093680080910D0190910F0175
:100C4000891730F08091680084608093680005C047
:100C5000809168008B7F8093680080910D01909156
:100C60001001891730F080916800886080936800D7
:100C700005C080916800877F8093680080910D0196
:100C800090911101891730F08091680080688093FD
:100C9000680005C0809168008F778093680080911C
:100CA0000D0190911201891730F0809168008064E5
:100CB0008093680005C0809168008F7B80936800F6
:100CC00080910D0190911301891730F08091680097
:100CD0008062809368000895809168008F7D809382
:100CE000680008951F920F920FB60F9211242F9350
:100CF0003F934F935F936F937F938F939F93AF93A4
:100D0000BF93EF93FF9380910D018F5F80930D014F
:100D100080910D01803110F010920D0180910C0135
:100D20008F5F80930C0180910C01843621F4109226
:100D30000C010E9489050E940B060E94E704FF91A6
:100D4000EF91BF91AF919F918F917F916F915F9143
:100D50004F913F912F910F900FBE0F901F901895BC
:100D600080931901089580931801089580931701C5
:100D70000895809316010895809315010895809138
:100D80001801089580911701089580911601089522
:100D90009F92AF92BF92CF92DF92EF92FF920F930A
:100DA0001F93CF93DF935C01C42E611107C080E0D5
:100DB0000E948D0880E00E94990811C0613039F4CA
:100DC00081E00E948D0880E00E94990808C062308E
:100DD00031F480E00E948D0881E00E949908D0E003
:100DE000C0E0E12CF12C00E010E0D12C9924939488
:100DF00033C00E947108882379F10E94A808E80E88
:100E0000F11C0E94A508080F111DC8018E199F0929
:100E1000BC0112F46F5F7F4F75956795062E000C2D
:100E2000770B880B990B0E94AA0CAB01BC01C60181
:100E30000E94F7080A151B052CF080E090E00E9444
:100E40008108C92DEA14FB042CF080E090E00E9498
:100E50008708D92D0E947408CC2359F2DD2349F26A
:100E6000DF91CF911F910F91FF90EF90DF90CF9086
:100E7000BF90AF909F9008951F93CF93DF93C0E0F2
:100E8000D1E013E00E943C03882339F080E00E9407
:100E90008D0880E00E94990828C0C13071F028F0C8
:100EA000C23099F0C330C9F0EDCF42E060E086E98E
:100EB00090E00E94C806CD2FE5CF42E062E084E6D4
:100EC00090E00E94C806C2E0DDCF42E06D2F88ECC2
:100ED00090E00E94C806C12FD5CF42E062E089E6CB
:100EE00090E00E94C806C0E0CDCFDF91CF911F9166
:100EF00008951F93CF93DF930E94EB0380E00E943D
:100F00008D0880E00E949908C6E01CE0D0E157C03F
:100F10000E947108882309F452C080911501813024
:100F200021F40E943C071092150180911601813036
:100F300081F446E062E086E990E00E94C80680E025
:100F40000E948D0880E00E94990882E0809316013B
:100F5000C12F80911801813099F446E061E08CE95D
:100F600094E00E94C80680E00E948D0880E00E9404
:100F700099080E94060582E0809318010E941405DA
:100F800080911701813041F482E0809317010E9423
:100F900020050E941A05CD2F0E944903682F880F53
:100FA000770B880B990B0E94AA0CAB01BC018C2F0C
:100FB00090E00E94F7080E9426050E947408809124
:100FC0001901882309F4A4CF80E090E00E948108F1
:100FD00080E090E00E9487080E9420050E940E0594
:100FE000DF91CF911F9108950E9441080E94B102A4
:100FF00080E10E9451040E94F2040E945A008FE195
:1010000090E00E945D000E9404050E946F087894A1
:10101000D8EEC3E00E9460020E947500882391F020
:101020000E94790780E00E947B008D2F9C2FEBE4CB
:10103000FDE13197F1F700C000000197C1F781E0B1
:101040000E947E000E947800882321F30E947F0581
:101050000E94D30B80E00E947E000E948305DACFBD
:1010600010922B0110922C0110922D0110922E0142
:1010700010922701109228011092290110922A0142
:1010800008958D9A8F9A8C9A8E9A889A8B988A98BE
:101090009598979A9498969AA89882EA8FBD89E134
:1010A0008EBD1DBC1CBC8AEF90E09BBD8ABD99BD66
:1010B00088BD97BD86BD8DE083BF12BE82E68CBF22
:1010C00089B7826089BF8BB7806C8BBF85B78F6013
:1010D00085BF84B784BF8AB7806C8ABF0895A89AF9
:1010E000089580911A01089510921A0108958B3F76
:1010F000910514F08AEF90E0992314F480E090E0D9
:1011000008950E94770890E09BBD8ABD08950E94D3
:10111000770890E099BD88BD0895882329F09798B5
:101120008FB58F7B8FBD0895979A8FB580648FBDE3
:101130000895882329F096988FB58F7E8FBD0895E6
:10114000969A8FB580618FBD089580911B01089597
:1011500080911C01089560937100709372008093D8
:10116000730090937400089560936D0070936E0007
:1011700080936F009093700008950F931F93CF9307
:10118000DF93CDB7DEB764970FB6F894DEBF0FBE1E
:10119000CDBF60E080E00E940204809130018F9317
:1011A00080912F018F93809132018F938091310133
:1011B0008F9382EF90E09F938F938E010F5F1F4F6D
:1011C0001F930F930E94A90DC8010E9442040FB6FD
:1011D000F894DEBF0FBECDBF64960FB6F894DEBFA5
:1011E0000FBECDBFDF91CF911F910F9108954F9208
:1011F0005F926F927F928F929F92AF92BF92CF92A7
:10120000DF92EF92FF92CF93DF93CDB7DEB72C97AB
:101210000FB6F894DEBF0FBECDBF6A017B01BC01E3
:1012200080E090E00E94A80C2B013C0160911B0122
:1012300070E080E090E00E94A80C9B01AC01C3012B
:10124000B2010E94050CA70196010E94050C4B01FA
:101250005C01609323017093240180932501909396
:10126000260160911C0170E080E090E00E94A80CD3
:101270009B01AC01C301B2010E94050CA7019601BC
:101280000E94060C6B017C0160931F01709320018A
:10129000809321019093220180913101909132013C
:1012A0008A3F910518F01092760003C081E0809388
:1012B000760080912F01909130018A3F910518F0BE
:1012C0001092750003C081E08093750080916900E1
:1012D00090916A00A0916B00B0916C0089839A8311
:1012E000AB83BC839C01AD01C501B4010E94360DE6
:1012F0002B013C016091760070E080E090E00E945C
:10130000AA0C9B01AC01C301B2010E94360D2091D1
:101310002B0130912C0140912D0150912E010E9402
:10132000060C2B013C0160932B0170932C018093E0
:101330002D0190932E0129813A814B815C81C70157
:10134000B6010E94360D69837A838B839C836091FA
:10135000750070E080E090E00E94AA0C9B01AC0157
:1013600069817A818B819C810E94360D20912701B1
:10137000309128014091290150912A010E94060CC8
:1013800069877A878B879C876093270170932801F0
:101390008093290190932A0180916D0090916E00B5
:1013A000A0916F00B091700089839A83AB83BC8356
:1013B0008091710090917200A0917300B0917400BF
:1013C0008D839E83AF83B88729813A814B815C816D
:1013D000C301B2010E94360D2B013C012D813E81DB
:1013E0004F815885C501B4010E94360D9B01AC01A7
:1013F000C301B2010E94060C20E030E048E451E451
:101400000E94360D0E94720C2B013C017093320138
:101410006093310129813A814B815C8169857A85AC
:101420008B859C850E94360D4B015C012D813E8190
:101430004F815885C701B6010E94360D9B01AC0152
:10144000C501B4010E94060C20E030E048E451E4FC
:101450000E94360D0E94720C7093300160932F0130
:10146000C2010E94810880912F01909130010E9459
:1014700087080E94BD082C960FB6F894DEBF0FBEF9
:10148000CDBFDF91CF91FF90EF90DF90CF90BF90D5
:10149000AF909F908F907F906F905F904F90089546
:1014A0001F920F920FB60F9211248F9380911E01FD
:1014B0008F5F80931E018F910F900FBE0F901F9032
:1014C00018951F920F920FB60F9211248F9380914F
:1014D0001D018F5F80931D018F910F900FBE0F90A4
:1014E0001F9018951F920F920FB60F9211248F9391
:1014F00080911E0180931C0110921E0180911D019C
:1015000080931B0110921D0181E080931A018F913D
:101510000F900FBE0F901F9018950F931F93CF93AE
:10152000DF93CDB7DEB764970FB6F894DEBF0FBE7A
:10153000CDBF182F61E080E00E9402041F921F932C
:101540008CEF90E09F938F938E010F5F1F4F1F933F
:101550000F930E94A90DC8010E9442040F900F90A2
:101560000F900F900F900F9064960FB6F894DEBF17
:101570000FBECDBFDF91CF911F910F91089582E0F3
:101580000E9450008739910528F060E070E080E00B
:1015900090EC089560E070E080E090E4089581E0D0
:1015A0000E948D0881E00E94990884E690E00E94E4
:1015B000810884E690E00E9487082FEF80E792E0A0
:1015C000215080409040E1F700C0000080E090E0B2
:1015D0000E94810880E090E00E9487080895CF93E0
:1015E000DF93EC0180E00E948D0880E00E94990862
:1015F00010C081E00E948D0A0E947108882349F082
:1016000040E050E0BA0186E090E00E94F7080E94B6
:10161000740881E00E9450008C179D0750F30E94CF
:10162000CF0ADF91CF9108958C34910531F546E0D2
:1016300061E084E091E00E94C80680E00E948D088D
:1016400081E00E94990884E690E00E94810884E687
:1016500090E00E9487082FEB84ED91E021508040BC
:101660009040E1F700C0000080E090E00E94810817
:1016700080E090E00E94870808958235910529F561
:1016800046E062E080EF90E00E94C80681E00E94A0
:101690008D0880E00E94990884E690E00E9481080D
:1016A00084E690E00E9487082FEB84ED91E02150C2
:1016B00080409040E1F700C0000080E090E00E9490
:1016C000810880E090E00E948708089580E00E94F1
:1016D0008D0880E00E94990810C082E00E948D0A67
:1016E0000E947108882349F040E050E0BA0186E08A
:1016F00090E00E94F7080E94740882E00E94500067
:10170000899758F746E060E080E392E00E94C806BF
:1017100083E00E948D0A089580E00E948D0880E099
:101720000E94990810C084E00E948D0A0E947108EE
:10173000882349F040E050E0BA0186E090E00E9442
:10174000F7080E94740882E00E94500084369105D8
:1017500050F380E090E00E94810880E090E00E94D9
:101760008708089580E00E948D0880E00E94990813
:1017700011C085E00E948D0A0E947108882351F0F3
:101780000E94BF0AAB01BC0186E090E00E94F7080E
:101790000E94740881E00E9450008A3F910548F33E
:1017A0000E94CF0A089560E070E080EC9FE30E9401
:1017B000AB0860E070E0CB010E94B4080E94EB032C
:1017C0000E9430088AEF90E00E94EF0A82E590E0E4
:1017D0000E94140B0E948C0B0E94660B8CE490E01C
:1017E0000E94140B0E948C0B0E94660B8CE490E00C
:1017F0000E94140B0E948C0B0E94B20B82E590E0B9
:101800000E94140B0E94B20B08955058BB27AA27C0
:101810000E941D0C0C94FC0C0E94EE0C38F00E94EF
:10182000F50C20F039F49F3F19F426F40C94EB0CDE
:101830000EF4E095E7FB0C94E50CE92F0E940D0DEA
:1018400058F3BA17620773078407950720F079F4F5
:10185000A6F50C942F0D0EF4E0950B2EBA2FA02DAB
:101860000B01B90190010C01CA01A0011124FF274D
:10187000591B99F0593F50F4503E68F11A16F04048
:10188000A22F232F342F4427585FF3CF4695379547
:101890002795A795F0405395C9F77EF41F16BA0B0C
:1018A000620B730B840BBAF09150A1F0FF0FBB1FBA
:1018B000661F771F881FC2F70EC0BA0F621F731F03
:1018C000841F48F4879577956795B795F7959E3F60
:1018D00008F0B0CF9395880F08F09927EE0F9795F1
:1018E000879508950E94790C6894B1110C94300D7D
:1018F00008950E94150D88F09F5798F0B92F9927E9
:10190000B751B0F0E1F0660F771F881F991F1AF0EA
:10191000BA95C9F714C0B13091F00E942F0DB1E013
:1019200008950C942F0D672F782F8827B85F39F012
:10193000B93FCCF3869577956795B395D9F73EF483
:1019400090958095709561957F4F8F4F9F4F08952B
:10195000E89409C097FB3EF4909580957095619549
:101960007F4F8F4F9F4F9923A9F0F92F96E9BB27FF
:101970009395F695879577956795B795F111F8CF7B
:10198000FAF4BB0F11F460FF1BC06F5F7F4F8F4FE6
:101990009F4F16C0882311F096E911C0772321F0DC
:1019A0009EE8872F762F05C0662371F096E8862F74
:1019B00070E060E02AF09A95660F771F881FDAF7CB
:1019C000880F9695879597F9089597F99F6780E80E
:1019D00070E060E008959FEF80EC089500240A9481
:1019E0001616170618060906089500240A941216FA
:1019F0001306140605060895092E0394000C11F42D
:101A0000882352F0BB0F40F4BF2B11F460FF04C0D9
:101A10006F5F7F4F8F4F9F4F089557FD9058440F32
:101A2000551F59F05F3F71F04795880F97FB991F3D
:101A300061F09F3F79F087950895121613061406FA
:101A4000551FF2CF4695F1DF08C016161706180687
:101A5000991FF1CF86957105610508940895E89462
:101A6000BB2766277727CB0197F908950E94490D78
:101A70000C94FC0C0E94EE0C38F00E94F50C20F047
:101A8000952311F00C94E50C0C94EB0C11240C94A0
:101A9000300D0E940D0D70F3959FC1F3950F50E02E
:101AA000551F629FF001729FBB27F00DB11D639F10
:101AB000AA27F00DB11DAA1F649F6627B00DA11DB6
:101AC000661F829F2227B00DA11D621F739FB00D5C
:101AD000A11D621F839FA00D611D221F749F3327CC
:101AE000A00D611D231F849F600D211D822F762F65
:101AF0006A2F11249F5750409AF0F1F088234AF042
:101B0000EE0FFF1FBB1F661F771F881F91505040AD
:101B1000A9F79E3F510580F00C94E50C0C94300D14
:101B20005F3FE4F3983ED4F3869577956795B79534
:101B3000F795E7959F5FC1F7FE2B880F911D96954E
:101B4000879597F90895EE0FFF1F0590F491E02D0A
:101B50000994AEE0B0E0EFEAFDE00C9458100D8976
:101B60001E8986E08C831A8309838FEF9FE79E830B
:101B70008D83AE01475E5F4F6F89788DCE010196F0
:101B80000E94CC0D2F813885F801E20FF31F1082DF
:101B90002E96E4E00C947410ACE0B0E0E2EDFDE0D1
:101BA0000C944A107C016B018A01FC011782168299
:101BB000838181FFBDC1CE0101964C01F701938164
:101BC000F60193FD859193FF81916F01882309F4BC
:101BD000ABC1853239F493FD859193FF81916F01FB
:101BE000853229F4B70190E00E94B40FE7CF512C61
:101BF000312C20E02032A0F48B3269F030F48032B6
:101C000059F0833269F420612CC08D3239F0803371
:101C100039F4216026C02260246023C0286021C0DE
:101C200027FD27C030ED380F3A3078F426FF06C084
:101C3000FAE05F9E300D1124532E13C08AE0389EC7
:101C4000300D1124332E20620CC08E3221F426FD7B
:101C50006BC1206406C08C3611F4206802C088363F
:101C600041F4F60193FD859193FF81916F018111FC
:101C7000C1CF982F9F7D9554933028F40C5F1F4F50
:101C8000FFE3F9830DC0833631F0833771F083357C
:101C900009F05BC022C0F801808189830E5F1F4F6D
:101CA00044244394512C540115C03801F2E06F0EC6
:101CB000711CF801A080B18026FF03C0652D70E083
:101CC00002C06FEF7FEFC5012C870E94A90F2C0186
:101CD00083012C852F77222E17C03801F2E06F0E7A
:101CE000711CF801A080B18026FF03C0652D70E053
:101CF00002C06FEF7FEFC5012C870E949E0F2C0161
:101D00002C852068222E830123FC1BC0832D90E0AC
:101D100048165906B0F4B70180E290E00E94B40F73
:101D20003A94F4CFF50127FC859127FE81915F015C
:101D3000B70190E00E94B40F31103A94F1E04F1ACD
:101D400051084114510471F7E5C0843611F0893609
:101D500039F5F80127FF07C0608171818281938185
:101D60000C5F1F4F08C060817181072E000C880B2B
:101D7000990B0E5F1F4F2F76722E97FF09C090951B
:101D80008095709561957F4F8F4F9F4F2068722E81
:101D90002AE030E0A4010E94EC0FA82EA81844C04D
:101DA000853729F42F7EB22E2AE030E025C0F22FAD
:101DB000F97FBF2E8F36C1F018F4883579F0B4C0A2
:101DC000803719F0883721F0AFC02F2F2061B22E55
:101DD000B4FE0DC08B2D8460B82E09C024FF0AC04C
:101DE0009F2F9660B92E06C028E030E005C020E1A4
:101DF00030E002C020E132E0F801B7FE07C06081A8
:101E00007181828193810C5F1F4F06C06081718157
:101E100080E090E00E5F1F4FA4010E94EC0FA82EFF
:101E2000A818FB2DFF777F2E76FE0BC0372D3E7F47
:101E3000A51450F474FE0AC072FC08C0372D3E7E13
:101E400005C0BA2C372D03C0BA2C01C0B52C34FF05
:101E50000DC0FE01EA0DF11D8081803311F4397E41
:101E600009C032FF06C0B394B39404C0832F8678B0
:101E700009F0B39433FD13C030FF06C05A2CB314DD
:101E800018F4530C5B18B32CB31468F4B70180E258
:101E900090E03C870E94B40FB3943C85F5CFB31417
:101EA00010F43B1801C0312C34FF12C0B70180E39D
:101EB00090E03C870E94B40F3C8532FF17C031FD93
:101EC00003C088E790E002C088E590E0B7010CC04D
:101ED000832F867859F031FF02C08BE201C080E287
:101EE00037FD8DE2B70190E00E94B40FA51438F4DD
:101EF000B70180E390E00E94B40F5A94F7CFAA9400
:101F0000F401EA0DF11D8081B70190E00E94B40F49
:101F1000A110F5CF332009F451CEB70180E290E053
:101F20000E94B40F3A94F6CFF7018681978102C0E0
:101F30008FEF9FEF2C96E2E10C946610FC01059068
:101F4000615070400110D8F7809590958E0F9F1FBB
:101F50000895FC016150704001900110D8F7809500
:101F600090958E0F9F1F08950F931F93CF93DF932C
:101F7000FB01238121FD03C08FEF9FEF28C022FFCB
:101F800016C046815781248135814217530744F496
:101F9000A081B1819D012F5F3F4F318320838C93BE
:101FA000268137812F5F3F4F3783268310C0EB0197
:101FB000092F182F0084F185E02D0995892BE1F672
:101FC0008E819F8101969F838E83812F902FDF9139
:101FD000CF911F910F910895FA01AA27283051F14E
:101FE000203181F1E8946F936E7F6E5F7F4F8F4F4A
:101FF0009F4FAF4FB1E03ED0B4E03CD0670F781FA9
:10200000891F9A1FA11D680F791F8A1F911DA11D8D
:102010006A0F711D811D911DA11D20D009F46894C6
:102020003F912AE0269F11243019305D3193DEF66E
:10203000CF010895462F4770405D4193B3E00FD024
:10204000C9F7F6CF462F4F70405D4A3318F0495D0F
:1020500031FD4052419302D0A9F7EACFB4E0A695F2
:102060009795879577956795BA95C9F70097610514
:10207000710508959B01AC010A2E0694579547956A
:1020800037952795BA95C9F7620F731F841F951F5F
:10209000A01D08952F923F924F925F926F927F9270
:1020A0008F929F92AF92BF92CF92DF92EF92FF9268
:1020B0000F931F93CF93DF93CDB7DEB7CA1BDB0B14
:1020C0000FB6F894DEBF0FBECDBF09942A883988B9
:1020D00048885F846E847D848C849B84AA84B984C0
:1020E000C884DF80EE80FD800C811B81AA81B981CC
:1020F000CE0FD11D0FB6F894DEBF0FBECDBFED01E0
:062100000895F894FFCFE2
:1021060035640F0580C00000FE0AD7233C0000009E
:10211600400000C03F0101040E1504040000000445
:1021260004150E0400000041646A757374206B7018
:10213600006B70203D20253033640041646A75735E
:1021460074206B69006B69203D2025303364005292
:10215600756E4C696E6528290052756E57616C6CF8
:1021660028290052756E2073656C656374696F6EFD
:1021760000456E5F426C7565746F6F7468005061E0
:1021860072616D65746572730025640020253032B6
:1021960064002530346920253034690025303269E1
:0221A600000037
:00000001FF
