S01500004C696E6520466F6C6C6F7765722E737265631D
S11300000C9431000C94530A0C94640A0C944E0022
S11300100C9495060C944E000C944E000C944E00D7
S11300200C944E000C944E000C94750A0C944E00E3
S11300300C944E000C9409010C944E000C944E0048
S11300400C944E000C944E000C944E000C944E00F4
S11300500C944E00B905C605D405E205F005FE056D
S11300600C0611241FBECFE5D8E0DEBFCDBF10E0E3
S1130070A0E6B0E0EAE2FFE102C005900D92A43FE1
S1130080B107D9F721E0A4EFB0E001C01D92A0347C
S1130090B207E1F70E942B080C94930F0C94000014
S11300A0806487B9369A3699FECF84B195B10895A4
S11300B087E886B9379A08951F93CF93DF93D82F93
S11300C0162FC42F611110C081E00E94950880E0B2
S11300D00E94A1088DE290E00E9489088C2F90E094
S11300E00E948F08C0E022C06130E1F780E00E94E6
S11300F0950881E00E94A1088C2F90E00E94890855
S11301008DE290E00E948F08EDCF0E947908882349
S113011069F0111104C00E94B008C80F05C0113065
S113012079F40E94AD08C80F0E947C08CD1768F3CB
S113013080E090E00E94890880E090E00E948F08AF
S1130140DF91CF911F910895CF92DF92EF92FF92AA
S11301501F93CF93DF932B3508F04AC0D62F182F67
S1130160E42EF12C6AE570E0CB01821B91099C011D
S1130170E29EC001E39E900DF29E900D11240E9418
S11301808D0C6B0180E00E94950880E00E94A1081C
S1130190D11109C0C60199270E948908C7010E948C
S11301A08F08C0E01BC0D13019F5C7010E9489082F
S11301B0C60199270E948F08F4CF0E9479088823EA
S11301C069F0D11104C00E94B008C80F05C0D13035
S11301D079F40E94AD08C80F0E947C08C11768F327
S11301E080E090E00E94890880E090E00E948F08FF
S11301F0DF91CF911F91FF90EF90DF90CF90089502
S113020089B990BD86E880BD88E18AB9579A789407
S113021008951F920F920FB60F9211248F938CB1F1
S1130220809323018F910F900FBE0F901F9018950C
S11302308091F50008958093F500089580E00E9470
S113024050008436910588F08C3221E0920778F0D2
S1130250843F21E0920768F08C3B22E0920758F03B
S11302608438934050F085E3089580E3089581E352
S1130270089582E3089583E3089584E308950E9432
S11302801E01982F80916000981390936000089548
S11302900E943F0191E0853309F090E0892F089591
S11302A00E94380460E080E00E944F0482E391E001
S11302B00E948F0461E080E00E944F0484E291E098
S11302C00E948F0460E08FE00E944F0481E00E944E
S11302D0670461E08FE00E944F0480E00E9467049D
S11302E008950F931F93CF93DF930E943F01C82F6C
S11302F09AE0E6E8F0E0A2E3B1E001900D929A956D
S1130300E1F7809162001F928F9320E930E03F93E0
S11303102F9324E231E03F932F930E94BB0C0E9461
S113032050010F900F900F900F900F900F90C433C7
S113033009F440C000E910E0C4E2D1E00E943F01AA
S11303408133D1F40E9448018823E1F38091620053
S11303508F5F809362001F928F931F930F93DF939D
S1130360CF930E94BB0C0E9450010F900F900F90EE
S11303700F900F900F90E2CF8233D1F40E94480186
S11303808823E1F3809162008150809362001F9280
S11303908F931F930F93DF93CF930E94BB0C0E9404
S11303A050010F900F900F900F900F900F90C6CFA9
S11303B0843321F6DF91CF911F910F9108950F930C
S11303C01F93CF93DF930E943F01C82F9AE0EAE97D
S11303D0F0E0A2E3B1E001900D929A95E1F78091EB
S11303E061001F928F9324EA30E03F932F9324E21D
S11303F031E03F932F930E94BB0C0E9450010F9059
S11304000F900F900F900F900F90C43309F440C0D9
S113041004EA10E0C4E2D1E00E943F018133D1F448
S11304200E9448018823E1F3809161008F5F8093EB
S113043061001F928F931F930F93DF93CF930E94BA
S1130440BB0C0E9450010F900F900F900F900F90D3
S11304500F90E2CF8233D1F40E9448018823E1F364
S1130460809161008150809361001F928F931F934C
S11304700F93DF93CF930E94BB0C0E9450010F9007
S11304800F900F900F900F900F90C6CF843321F6EA
S1130490DF91CF911F910F910895CF93DF930E9425
S11304A03F01C82F9EE0E2ECF0E0A2E3B1E001904E
S11304B00D929A95E1F70E945001C43309F440C0AB
S11304C0C1E0DAE00E943F018133D9F40E9448017F
S11304D08823E1F3C093F5001092F400EEEAF0E013
S11304E0A4E2B1E08D2F01900D928A95E1F70E946C
S11304F0500160E08FE00E944F0480E20E94670494
S1130500E1CF8233D9F40E9448018823E1F3C093F8
S1130510F4001092F500E8EBF0E0A4E2B1E08D2FD6
S113052001900D928A95E1F70E9450016C2F8FE0A3
S11305300E944F0480E20E946704C4CF843311F602
S1130540DF91CF910895CF930E943F01C82F82E598
S113055095E7AEE6B0E08093320190933301A09327
S11305603401B09335019BE0E0EDF0E0A4E2B1E0AA
S113057001900D929A95E1F70E94500160E08FE09E
S11305800E944F0481E00E94670461E08EE00E94B3
S11305904F048FE70E94670461E08FE00E944F04DC
S11305A08EE70E946704C433E9F00E943F0185335B
S11305B0E1F3813361F018F4803331F011C08233F8
S11305C049F0833351F00CC00E947101EECF0E94B8
S11305D04D02EBCF0E94D307FDCF0E94DF01E5CF90
S11305E0843319F7CF910895BF98BE98BD98BC98ED
S11305F0D298D198D09808954F925F926F927F923B
S11306008F929F92AF92BF92CF92DF92EF92FF921E
S11306100F931F93CF93DF93CDB7DEB764970FB6D5
S1130620F894DEBF0FBECDBFE82E61E080E00E94EB
S11306304F0400E010E0F12C6894882486F8912C93
S113064044244394712C0F2EFBEDAF2EF0E0BF2E0B
S1130650F02DCE0101966C016E2C5F2CC401002E8E
S113066002C0959587950A94E2F78E219F21242D47
S1130670372D892B09F4272D3F932F93BF92AF92E7
S1130680DF92CF920E94BB0CC6010E948F040F5FC1
S11306901F4F0F900F900F900F900F900F900730F7
S11306A01105D1F65F926F928EED90E09F938F9338
S11306B08E010F5F1F4F1F930F930E94BB0CC80145
S11306C00E948F040F900F900F900F900F900F9037
S11306D064960FB6F894DEBF0FBECDBFDF91CF9105
S11306E01F910F91FF90EF90DF90CF90BF90AF904C
S11306F09F908F907F906F905F904F900895CF93CD
S1130700C9B386B3C07FC6958770C82B8C2F0E944F
S1130710FC028C2FCF910895CF930E947F03C82FA2
S1130720882319F08093F6000FC0C091F6008C2F37
S11307308B7F883011F0C83139F481E00E94D906EA
S113074060E070E0CB0172C00E94DC06823069F088
S11307508C2F8871883149F4C2FF07C081E00E9460
S1130760D60660E070E0CB0161C08C2F877F8737AD
S113077019F481E00E94D3060E94DC068823F1F07C
S11307808C2F8F7D8034F1F0C03209F1C03321F118
S1130790C03139F1C83151F1C83069F1CC3079F147
S11307A0C43091F1C630A9F1C230C1F1CD7FC1305E
S11307B0D1F560E070E080EF91EC38C060E070E06B
S11307C0CB0134C060E070E080EF91E42FC060E0C2
S11307D070E080ED91E42AC060E070E080E891E48C
S11307E025C060E070E080E491E420C060E070E047
S11307F080E090E41BC060E070E0CB0117C060E0D3
S113080070E080E090EC12C060E070E080E491EC75
S11308100DC060E070E080E891EC08C060E070E03A
S113082080ED91EC03C060E070E0CB01CF910895BE
S1130830F1E4FA95F1F7089595B3807F9F70892BC1
S113084085BBAB9A0E941804AB980E9418040895C3
S1130850CF93C82F0E941C048C2F8295807F0E9406
S11308601C04CF910895AA27BB271197F1F7089587
S11308700E943304AA9882E00E9428040E94330450
S11308808CE00E9428040E94330481E00E94280422
S11308900E9433041092F8001092F9000895CF9347
S11308A0DF93D82FC62F0E941804AA98EC2FF0E0EB
S11308B0ED59FF4F80818D0F0E942804D093F900D9
S11308C0C093F8000E941804DF91CF910895CF934C
S11308D0C82F8A3049F46091F8006F5F6093F80084
S11308E080E00E944F0419C09091F9009F5F90939B
S11308F0F9008091F700891740F46091F8006F5F68
S11309006093F80080E00E944F040E941804AA9AA1
S11309108C2F0E9428040E941804CF910895CF932D
S1130920DF93EC018881882331F021960E946704CB
S113093089918111FBCFDF91CF910895EF92FF92BE
S11309400F931F93CF93DF93CDB7DEB760970FB6A6
S1130950F894DEBF0FBECDBF98E0E6E7F0E0DE011D
S1130960119601900D929A95E1F798E0EEE7F0E088
S1130970DE01199601900D929A95E1F795B3937F54
S113098095BBA99894B39C6F94BB8093F700E3E65E
S1130990F0E090E8980F9283805483830E9433049C
S11309A080E30E941C040E94330480E30E941C0420
S11309B00E94330480E30E941C040E94330480E2FA
S11309C00E941C040E94330488E20E9428040E94AE
S11309D0330484E00E9428040E94330485E80E94C2
S11309E028040E943304AA9886E00E94280480E424
S11309F00E9428048E01075F1F4F7E0181E1E80EEB
S1130A00F11CF80181918F010E9467040E151F05E6
S1130A10C1F780E80E94280488E40E9428048E011B
S1130A200F5F1F4F7E01F9E0EF0EF11CF801819179
S1130A308F010E9467040E151F05C1F780E80E940C
S1130A4028040E94380460960FB6F894DEBF0FBEE7
S1130A50CDBFDF91CF911F910F91FF90EF9008953B
S1130A608FB9779BFECF0895C498809167000E9448
S1130A703005809106010E943005C49A08958CE5E2
S1130A808DB91EB8BF9ABD9ABC9AA19AC598C4984C
S1130A90A99A8DE085BD14BC89E183BD0E9434050B
S1130AA00895A998089583E00E9450008D3423E0AE
S1130AB0920734F08FEF809306010E94340549C0F9
S1130AC08F3223E0920734F08FE7809306010E946F
S1130AD034053FC08B3023E0920734F08FE38093DA
S1130AE006010E94340535C0893E22E0920734F0A5
S1130AF08FE1809306010E9434052BC0863C22E0DE
S1130B00920734F08FE0809306010E94340521C0DF
S1130B10883A22E0920734F087E0809306010E942D
S1130B20340517C0843822E0920734F083E08093C0
S1130B3006010E9434050DC08F35924034F081E0E7
S1130B40809306010E94340504C0109206010E949D
S1130B5034050E9434050895E091FD008E2F90E045
S1130B608730910508F065C0FC01E65DFF4F0C94E9
S1130B70A10C8091FC008F3031F08091FC008F5FDC
S1130B808093FC0056C081E08093FD008091FB00BF
S1130B908F3031F08091FB008F5F8093FB0049C060
S1130BA082E08093FD0045C08091FC00882331F0F1
S1130BB08091FC0081508093FC003BC083E08093D3
S1130BC0FD0037C08091FA008F3031F08091FA0037
S1130BD08F5F8093FA002DC084E08093FD0029C0CC
S1130BE08091FB00882331F08091FB008150809339
S1130BF0FB001FC085E08093FD001BC08091FC00BA
S1130C008F3031F08091FC008F5F8093FC0011C025
S1130C1086E08093FD000DC08091FA00882331F0B6
S1130C208091FA0081508093FA0003C081E08093A0
S1130C30FD008091FC00E0E0F1E080838091FC0005
S1130C4083838091FB0081838091FB008483809166
S1130C50FA0082838091FA00858308958091FF00D1
S1130C6090910001891730F0809167008260809331
S1130C70670005C0809167008D7F80936700809135
S1130C80FF0090910101891730F080916700846022
S1130C908093670005C0809167008B7F8093670015
S1130CA08091FF0090910201891730F080916700D4
S1130CB088608093670005C080916700877F809378
S1130CC067008091FF0090910301891730F08091B3
S1130CD0670080688093670005C0809167008F7704
S1130CE0809367008091FF0090910401891730F090
S1130CF08091670080648093670005C080916700DD
S1130D008F7B809367008091FF0090910501891784
S1130D1030F080916700806280936700089580912D
S1130D2067008F7D8093670008951F920F920FB61E
S1130D300F9211242F933F934F935F936F937F935D
S1130D408F939F93AF93BF93EF93FF938091FF0093
S1130D508F5F8093FF008091FF00803110F010922C
S1130D60FF008091FE008F5F8093FE008091FE0063
S1130D70843621F41092FE000E94AC050E942E06D7
S1130D800E943405FF91EF91BF91AF919F918F9194
S1130D907F916F915F914F913F912F910F900FBE73
S1130DA00F901F901895809309010895809308016E
S1130DB008958093070108958091080108959F92F2
S1130DC0AF92BF92CF92DF92EF92FF920F931F9355
S1130DD0CF93DF935C01C42E611107C080E00E94B1
S1130DE0950880E00E94A10811C0613039F481E0C7
S1130DF00E94950880E00E94A10808C0623031F486
S1130E0080E00E94950881E00E94A108D0E0C0E043
S1130E10E12CF12C00E010E0D12C992493942CC007
S1130E200E947908882341F10E94B008E80EF11C61
S1130E300E94AD08080F111D602F6E19062E000CBC
S1130E40770B880B990B0E94940BAB01BC01C60174
S1130E500E94ED080A151B052CF080E090E00E942A
S1130E608908C92DEA14FB042CF080E090E00E946C
S1130E708F08D92D0E947C08CC2391F2DD2381F2C6
S1130E80DF91CF911F910F91FF90EF90DF90CF9062
S1130E90BF90AF909F9008951F93CF93DF93C0E0CE
S1130EA0D1E013E027C0C13071F028F0C23099F0CE
S1130EB0C330C9F01FC042E060E086E990E00E94C0
S1130EC0DF06CD2F17C042E062E084E690E00E9486
S1130ED0DF06C2E00FC042E06D2F88EC90E00E9474
S1130EE0DF06C12F07C042E062E089E690E00E947D
S1130EF0DF06C0E00E947F038823A9F280E00E94FD
S1130F00950880E00E94A108DF91CF911F91089578
S1130F100E94380480E00E94950880E00E94A108A5
S1130F2035C00E947908882389F1809107018130B6
S1130F3021F40E944C07109207018091080181302E
S1130F4081F446E062E086E990E00E94DF0680E0FA
S1130F500E94950880E00E94A10882E08093080125
S1130F6002C0823049F481E00E945000853F9140E4
S1130F7018F081E0809309010E948C03AB01BC014D
S1130F8086E090E00E94ED080E947C0880910901AF
S1130F90882339F280E090E00E94890880E090E0A4
S1130FA00E948F080895CF93DF93CDB7DEB764977F
S1130FB00FB6F894DEBF0FBECDBFE12CF12C00E0DC
S1130FC010E00F2EF4EEAF2EF0E0BF2EF02DCE0188
S1130FD001966C010E9479088823E1F30E94AD0810
S1130FE0080F111D0E94B008E80EF11C60E080E0BB
S1130FF00E944F0498012E193F093F932F93FF92AB
S1131000EF921F930F93BF92AF92DF92CF920E9401
S1131010BB0CC6010E948F040E947F030E947C08BF
S11310200FB6F894DEBF0FBECDBFD4CF0E944908DF
S11310300E94F40280E10E949E040E943F050E94E7
S113104058008FE190E00E9400010E9451050E9427
S11310507708789408950E941608D8EEC3E00E9499
S113106053050E94A3020E94D70A0E9418018823F4
S1131070B1F30E94880780E00E941B018D2F9C2FF2
S1131080EBE4FDE13197F1F700C000000197C1F7EF
S1131090E6CF8D9A8F9A8C9A8E9A889A8B988A9892
S11310A09598979A9498969AA89882EA8FBD89E120
S11310B08EBD1DBC1CBC8AEF90E09BBD8ABD99BD52
S11310C088BD97BD86BD8DE083BF12BE82E68CBF0E
S11310D089B7826089BF8BB7806C8BBF85B78F60FF
S11310E085BF84B784BF8AB7806C8ABF0895A89AE5
S11310F0089580910A01089510920A0108958B3F82
S1131100910514F08AEF90E0992314F480E090E0C4
S113111008950E947F0890E09BBD8ABD08950E94B7
S11311207F0890E099BD88BD0895882329F0979899
S11311308FB58F7B8FBD0895979A8FB580648FBDCF
S11311400895882329F096988FB58F7E8FBD0895D2
S1131150969A8FB580618FBD089580910B01089593
S113116080910C0108950F931F93CF93DF93CDB714
S1131170DEB764970FB6F894DEBF0FBECDBF60E054
S113118080E00E944F04809120018F9380911F0181
S11311908F93809122018F93809121018F9389EE07
S11311A090E09F938F938E010F5F1F4F1F930F93B8
S11311B00E94BB0CC8010E948F040FB6F894DEBFD6
S11311C00FBECDBF64960FB6F894DEBF0FBECDBF81
S11311D0DF91CF911F910F9108954F925F926F927B
S11311E07F928F929F92AF92BF92CF92DF92EF92B3
S11311F0FF92CF93DF93CDB7DEB72C970FB6F89459
S1131200DEBF0FBECDBF6A017B01BC0180E090E070
S11312100E94920B2B013C01B0900B0120E030E0C6
S113122040E05FE3C701B6010E94200C6B017C0122
S11312306B2D70E080E090E00E94920B9B01AC016A
S1131240C301B2010E94EF0AA70196010E94EF0AAE
S11312504B015C0160931301709314018093150199
S11312609093160160910C0170E080E090E00E9480
S1131270920B9B01AC01C301B2010E94EF0A9B01D6
S1131280AC01C701B6010E94F00A6B017C016093B6
S11312900F017093100180931101909312018091BA
S11312A02101909122018A3F910518F01092750056
S11312B003C081E08093750080911F01909120010B
S11312C08A3F910518F01092740003C081E0809366
S11312D074008091680090916900A0916A00B091B7
S11312E06B0089839A83AB83BC839C01AD01C501E8
S11312F0B4010E94200C2B013C016091750070E048
S113130080E090E00E94940B9B01AC01C301B20108
S11313100E94200C20911B0130911C0140911D0161
S113132050911E010E94F00A2B013C0160931B01A5
S113133070931C0180931D0190931E0129813A81B1
S11313404B815C81C701B6010E94200C69837A83BA
S11313508B839C836091740070E080E090E00E9435
S1131360940B9B01AC0169817A818B819C810E94E1
S1131370200C2091170130911801409119015091CE
S11313801A010E94F00A69877A878B879C87609389
S11313901701709318018093190190931A01809199
S11313A06C0090916D00A0916E00B0916F008983E4
S11313B09A83AB83BC838091700090917100A0915B
S11313C07200B09173008D839E83AF83B8872981A7
S11313D03A814B815C81C301B2010E94200C2B0134
S11313E03C012D813E814F815885C501B4010E9485
S11313F0200C9B01AC01C301B2010E94F00A20E061
S113140030E048E451E40E94200C0E945C0B2B0164
S11314103C01709322016093210129813A814B811F
S11314205C8169857A858B859C850E94200C4B01A3
S11314305C012D813E814F815885C701B6010E9410
S1131440200C9B01AC01C501B4010E94F00A20E00C
S113145030E048E451E40E94200C0E945C0B70933D
S1131460200160931F01C2010E94890880911F011D
S1131470909120010E948F080E94B3082C960FB609
S1131480F894DEBF0FBECDBFDF91CF91FF90EF90F8
S1131490DF90CF90BF90AF909F908F907F906F9090
S11314A05F904F9008951F920F920FB60F921124E0
S11314B08F9380910E018F5F80930E018F910F9017
S11314C00FBE0F901F9018951F920F920FB60F9298
S11314D011248F9380910D018F5F80930D018F9163
S11314E00F900FBE0F901F9018951F920F920FB67A
S11314F00F9211248F9380910E0180930C0110920E
S11315000E0180910D0180930B0110920D0181E079
S113151080930A018F910F900FBE0F901F90189522
S113152081E00E94500021E08139914008F420E0DC
S1131530822F089582E00E94500021E0803991407A
S113154008F020E0822F089582E00E94500021E0FC
S1131550833C914008F420E0822F089520E546E47E
S113156060E085E00E94A400089520E546E461E07F
S113157085E00E94A400089520E046E461E085E04F
S11315800E94A400089582E00E94500021E08F355B
S1131590914008F420E0822F089542E361E082E361
S11315A00E945C000E94C30A8823B9F308950E9434
S11315B0900A882319F00E94CD0AF9CF0E949A0A52
S11315C0882319F00E94AE0AF2CF0E94A40A88234D
S11315D019F00E94B50AEBCF0E94BC0AE8CF50581C
S11315E0BB27AA270E94070B0C94E60B0E94D80B7A
S11315F038F00E94DF0B20F039F49F3F19F426F4F1
S11316000C94D50B0EF4E095E7FB0C94CF0BE92F6B
S11316100E94F70B58F3BA176207730784079507FC
S113162020F079F4A6F50C94190C0EF4E0950B2E29
S1131630BA2FA02D0B01B90190010C01CA01A00120
S11316401124FF27591B99F0593F50F4503E68F17B
S11316501A16F040A22F232F342F4427585FF3CFBC
S1131660469537952795A795F0405395C9F77EF48D
S11316701F16BA0B620B730B840BBAF09150A1F0D6
S1131680FF0FBB1F661F771F881FC2F70EC0BA0F5C
S1131690621F731F841F48F4879577956795B795E4
S11316A0F7959E3F08F0B0CF9395880F08F09927DF
S11316B0EE0F9795879508950E94630B6894B11176
S11316C00C941A0C08950E94FF0B88F09F5798F011
S11316D0B92F9927B751B0F0E1F0660F771F881F33
S11316E0991F1AF0BA95C9F714C0B13091F00E944D
S11316F0190CB1E008950C94190C672F782F8827E2
S1131700B85F39F0B93FCCF3869577956795B39573
S1131710D9F73EF490958095709561957F4F8F4FE2
S11317209F4F0895E89409C097FB3EF490958095E7
S1131730709561957F4F8F4F9F4F9923A9F0F92F93
S113174096E9BB279395F695879577956795B79511
S1131750F111F8CFFAF4BB0F11F460FF1BC06F5FF7
S11317607F4F8F4F9F4F16C0882311F096E911C009
S1131770772321F09EE8872F762F05C0662371F02A
S113178096E8862F70E060E02AF09A95660F771F3E
S1131790881FDAF7880F9695879597F9089597F932
S11317A09F6780E870E060E008959FEF80EC089503
S11317B000240A941616170618060906089500242C
S11317C00A9412161306140605060895092E0394A6
S11317D0000C11F4882352F0BB0F40F4BF2B11F41A
S11317E060FF04C06F5F7F4F8F4F9F4F089557FD79
S11317F09058440F551F59F05F3F71F04795880F7B
S113180097FB991F61F09F3F79F087950895121611
S113181013061406551FF2CF4695F1DF08C01616BD
S113182017061806991FF1CF86957105610508946E
S11318300895E894BB2766277727CB0197F9089585
S11318400E94330C0C94E60B0E94D80B38F00E94D3
S1131850DF0B20F0952311F00C94CF0B0C94D50BD7
S113186011240C941A0C0E94F70B70F3959FC1F38A
S1131870950F50E0551F629FF001729FBB27F00D3A
S1131880B11D639FAA27F00DB11DAA1F649F66278F
S1131890B00DA11D661F829F2227B00DA11D621FDE
S11318A0739FB00DA11D621F839FA00D611D221F98
S11318B0749F3327A00D611D231F849F600D211D7C
S11318C0822F762F6A2F11249F5750409AF0F1F0FF
S11318D088234AF0EE0FFF1FBB1F661F771F881F68
S11318E091505040A9F79E3F510580F00C94CF0BC6
S11318F00C941A0C5F3FE4F3983ED4F386957795E5
S11319006795B795F795E7959F5FC1F7FE2B880F0D
S1131910911D9695879597F9089597FB072E16F4D0
S1131920009407D077FD09D00E94A70C07FC05D0CE
S11319303EF4909581959F4F0895709561957F4FE2
S11319400895EE0FFF1F0590F491E02D0994AA1B52
S1131950BB1B51E107C0AA1FBB1FA617B70710F096
S1131960A61BB70B881F991F5A95A9F780959095C8
S1131970BC01CD010895AEE0B0E0E1ECFCE00C94D4
S11319806A0F0D891E8986E08C831A8309838FEF81
S11319909FE79E838D83AE01475E5F4F6F89788D8D
S11319A0CE0101960E94DE0C2F813885F801E20FEA
S11319B0F31F10822E96E4E00C94860FACE0B0E0A6
S11319C0E4EEFCE00C945C0F7C016B018A01FC01E9
S11319D017821682838181FFBDC1CE0101964C011D
S11319E0F7019381F60193FD859193FF81916F0136
S11319F0882309F4ABC1853239F493FD859193FFB3
S1131A0081916F01853229F4B70190E00E94C60EDE
S1131A10E7CF512C312C20E02032A0F48B3269F036
S1131A2030F4803259F0833269F420612CC08D3255
S1131A3039F0803339F4216026C02260246023C049
S1131A40286021C027FD27C030ED380F3A3078F4E4
S1131A5026FF06C0FAE05F9E300D1124532E13C0FA
S1131A608AE0389E300D1124332E20620CC08E3251
S1131A7021F426FD6BC1206406C08C3611F4206865
S1131A8002C0883641F4F60193FD859193FF81915C
S1131A906F018111C1CF982F9F7D9554933028F405
S1131AA00C5F1F4FFFE3F9830DC0833631F083379A
S1131AB071F0833509F05BC022C0F801808189830D
S1131AC00E5F1F4F44244394512C540115C0380118
S1131AD0F2E06F0E711CF801A080B18026FF03C0F4
S1131AE0652D70E002C06FEF7FEFC5012C870E9467
S1131AF0BB0E2C0183012C852F77222E17C03801B1
S1131B00F2E06F0E711CF801A080B18026FF03C0C3
S1131B10652D70E002C06FEF7FEFC5012C870E9436
S1131B20B00E2C012C852068222E830123FC1BC0BF
S1131B30832D90E048165906B0F4B70180E290E096
S1131B400E94C60E3A94F4CFF50127FC859127FE36
S1131B5081915F01B70190E00E94C60E31103A9462
S1131B60F1E04F1A51084114510471F7E5C084366D
S1131B7011F0893639F5F80127FF07C060817181BA
S1131B80828193810C5F1F4F08C060817181072E91
S1131B90000C880B990B0E5F1F4F2F76722E97FF48
S1131BA009C090958095709561957F4F8F4F9F4F99
S1131BB02068722E2AE030E0A4010E94FE0EA82EB6
S1131BC0A81844C0853729F42F7EB22E2AE030E0CD
S1131BD025C0F22FF97FBF2E8F36C1F018F4883557
S1131BE079F0B4C0803719F0883721F0AFC02F2FB7
S1131BF02061B22EB4FE0DC08B2D8460B82E09C0B6
S1131C0024FF0AC09F2F9660B92E06C028E030E05A
S1131C1005C020E130E002C020E132E0F801B7FE67
S1131C2007C060817181828193810C5F1F4F06C060
S1131C306081718180E090E00E5F1F4FA4010E94DB
S1131C40FE0EA82EA818FB2DFF777F2E76FE0BC064
S1131C50372D3E7FA51450F474FE0AC072FC08C0F0
S1131C60372D3E7E05C0BA2C372D03C0BA2C01C0D7
S1131C70B52C34FF0DC0FE01EA0DF11D80818033C7
S1131C8011F4397E09C032FF06C0B394B39404C082
S1131C90832F867809F0B39433FD13C030FF06C058
S1131CA05A2CB31418F4530C5B18B32CB31468F403
S1131CB0B70180E290E03C870E94C60EB3943C8555
S1131CC0F5CFB31410F43B1801C0312C34FF12C00B
S1131CD0B70180E390E03C870E94C60E3C8532FF4A
S1131CE017C031FD03C088E790E002C088E590E0AA
S1131CF0B7010CC0832F867859F031FF02C08BE204
S1131D0001C080E237FD8DE2B70190E00E94C60E6B
S1131D10A51438F4B70180E390E00E94C60E5A94EB
S1131D20F7CFAA94F401EA0DF11D8081B70190E088
S1131D300E94C60EA110F5CF332009F451CEB7018D
S1131D4080E290E00E94C60E3A94F6CFF7018681B5
S1131D50978102C08FEF9FEF2C96E2E10C94780FED
S1131D60FC010590615070400110D8F78095909562
S1131D708E0F9F1F0895FC01615070400190011067
S1131D80D8F7809590958E0F9F1F08950F931F93FA
S1131D90CF93DF93FB01238121FD03C08FEF9FEFDE
S1131DA028C022FF16C046815781248135814217FD
S1131DB0530744F4A081B1819D012F5F3F4F3183CC
S1131DC020838C93268137812F5F3F4F378326836F
S1131DD010C0EB01092F182F0084F185E02D09951F
S1131DE0892BE1F68E819F8101969F838E83812FBB
S1131DF0902FDF91CF911F910F910895FA01AA2797
S1131E00283051F1203181F1E8946F936E7F6E5F39
S1131E107F4F8F4F9F4FAF4FB1E03ED0B4E03CD0E7
S1131E20670F781F891F9A1FA11D680F791F8A1FCA
S1131E30911DA11D6A0F711D811D911DA11D20D031
S1131E4009F468943F912AE0269F11243019305DEB
S1131E503193DEF6CF010895462F4770405D4193DC
S1131E60B3E00FD0C9F7F6CF462F4F70405D4A3329
S1131E7018F0495D31FD4052419302D0A9F7EACFF1
S1131E80B4E0A6959795879577956795BA95C9F720
S1131E9000976105710508959B01AC010A2E069413
S1131EA05795479537952795BA95C9F7620F731FCC
S1131EB0841F951FA01D08952F923F924F925F9209
S1131EC06F927F928F929F92AF92BF92CF92DF9246
S1131ED0EF92FF920F931F93CF93DF93CDB7DEB7AB
S1131EE0CA1BDB0B0FB6F894DEBF0FBECDBF09943F
S1131EF02A88398848885F846E847D848C849B8496
S1131F00AA84B984C884DF80EE80FD800C811B81A3
S1131F10AA81B981CE0FD11D0FB6F894DEBF0FBED2
S10D1F20CDBFED010895F894FFCF42
S1131F2A350F0580C00000FE0AD7233C000000409C
S1131F3A0000C03F0101040E15040400000004045B
S1131F4A150E0400000041646A757374206B7000F6
S1131F5A6B70203D20253033640041646A757374C4
S1131F6A206B69006B69203D20253033640052756B
S1131F7A6E4C696E6528290052756E57616C6C281F
S1131F8A290052756E2073656C656374696F6E00FF
S1131F9A506172616D657465727300256400202551
S1131FAA30326400253034692025303469202530E4
S1071FBA3469000082
S9030000FC
